S00F000070657279746F6E732E73333761
S315080000000004002051380008C9510008C9510008E9
S31508000010C9510008C9510008C9510008000000006C
S31508000020000000000000000000000000C9510008A0
S31508000030C951000800000000D9130008491100083A
S31508000040C9510008C95100081B1A0008C9510008FF
S315080000505D1E0008A71F0008C9510008C9510008FD
S3150800006065200008D12800085B300008610D0008EB
S31508000070C9510008C9510008C9510008C9510008EA
S31508000080C9510008335400083C16000088040020B3
S31508000090000000004D54000884000000305100089C
S315080000A000040020000000004F564552464C4F57AA
S315080000B00D0A00004D414354494D4552434F4D509A
S315080000C04152454025640D0A0000000044310000F5
S315080000D04433000044350000533100005332000019
S315080000E053330000533400005335000053544C4D2D
S315080000F0323000004C495333303200004D42383517
S31508000100312041004D423835312042004D423835C4
S31508000110312043004D423835312044004D423935AF
S31508000120342041004D423935342042004D4239359C
S31508000130342043004D423935302041004D4239358F
S31508000140302042004D423935312041004D42393583
S3150800015031204200504339393820505232000000CD
S31508000160CC00000808060000D000000808050000BA
S31508000170D400000808040000CC00000800050000B0
S31508000180D000000800000000CC00000800070000AE
S31508000190D800000800030000D80000080007000087
S315080001A0D800000808030000D8000008080300006B
S315080001B0DC00000800070000E0000008080700004F
S315080001C0E400000808000000E8000008080600002F
S315080001D0D800000800030000EC000008080700002B
S315080001E0EC00000800040100F4000008000000000C
S315080001F0600100089801000878010008A0010008BD
S3150800020078010008A801000878010008D001000854
S315080002108801000890010008FC000008130000008F
S3150800022001020000F001000870010008E80100085A
S31508000230D8010008040100081300000001020000AC
S31508000240F001000870010008E8010008D80100085C
S315080002500C0100082B00000001020000F80100084C
S3150800026070010008E8010008E00100081401000810
S315080002702B00000001020000F801000870010008C8
S31508000280E8010008E00100081C010008170000004A
S3150800029001020000F801000870010008E8010008E2
S315080002A0E0010008240100082F00000001020000F8
S315080002B0F801000870010008E8010008E0010008DC
S315080002C02C0100082F00000001020000F8010008B8
S315080002D070010008E8010008E00100083401000880
S315080002E02300000005020000000200087001000853
S315080002F0E8010008E00100083C01000823000000AE
S31508000300050200000002000870010008E801000864
S31508000310E001000844010008200000000102000076
S3150800032008020008000000000000000000000000AD
S315080003304C01000820000000010200000802000825
S315080003400000000000000000000000005401000842
S31508000350E000000001010000100200080000000093
S315080003600000000000000000000202024B4B464756
S31508000370766572696679466962282900563A5C6C20
S31508000380696E6B5F73746D3332775C68616C5C6D34
S315080003906963726F5C636F727465786D335C666CE3
S315080003A06173682E63000000FFFFFFFFFFFFFFFF7A
S315080003B000B0004004B0004000B4004004B400405F
S315080003C000B8004004B80040284E564D5F4C4546DC
S315080003D0545F50414745254D46425F504147455F6A
S315080003E053495A455F42293D3D300000563A5C6CF8
S315080003F0696E6B5F73746D3332775C68616C5C6DC4
S315080004006963726F5C636F727465786D335C6E7660
S315080004106D2E6300284E564D5F52494748545F502B
S31508000420414745254D46425F504147455F53495A26
S31508000430455F42293D3D3000286F66667365742620
S31508000440307831293D3D3000286C656E6774682622
S31508000450307831293D3D30006F66667365742B6CC4
S31508000460656E6774683C4E564D5F444154415F5310
S31508000470495A455F420000002862617564726174DA
S3150800048065203E3D2033303029202626202862610B
S31508000490756472617465203C3D39323136303029D5
S315080004A000000000563A5C6C696E6B5F73746D33BE
S315080004B032775C68616C5C6D6963726F5C636F72DE
S315080004C07465786D335C756172742E630000000084
S315080004D0AA2129005523290000252800AA26270035
S315080004E055282700002A2600AA2B2600552D250068
S315080004F0002F2400AA30240055322300003422009D
S31508000500AA3522005537210000392000AA3A2000D2
S31508000510D500E601EC02EF03F204F405F506F70749
S31508000520F808F909FA0AFB0BFC0DFD0FFE11FF137B
S3150800053000160119021C031F1000110020003000CC
S315080005404000410050006000700080009000A0004C
S31508000550B000C000D000E000F00000000000010379
S3150800056000100C0D0E000000010203040708090A1A
S315080005700B0F0000686A6C747A4C0000496E20669E
S31508000580756E6374696F6E2000000000202D2D20A3
S3150800059000000000202D2D20617373657274696F49
S315080005A06E206661696C65640A00000010B5DFF8A4
S315080005B03845D4E90401D4E902238B4206D301D88D
S315080005C0824203D3101A63EB010105E0D0F58010CF
S315080005D061EB410180185941DFF810250023994243
S315080005E001D8904213D3DFF808050068417A02293A
S315080005F006D3C0680168097B0068407B084300E0B1
S31508000600FF2000F09DFFD4E90201C4E9040110BDF2
S3150800061058B5002001F01CFD01F0B0F9012100A831
S3150800062001F01CFDBDF8000001F0CEF901230022FF
S3150800063008214FF4E13001F01DFC01F007FC002011
S3150800064001F0F2FCDFF8AC1400200870812000F0FD
S3150800065013F90B2001F0EDFC002001F0F2FC00205C
S3150800066001F0F1FC012001F0EAFC00F0A3F9DFF843
S31508000670784404F1280390221E2104F11C0004F09A
S31508000680F3FDDFF86C6406E0FF2000F049FF00F098
S315080006909AF9FFF78BFF00F073FA04F11C0004F0D7
S315080006A0D5FD0028F3D020780128F0D13068417AAA
S315080006B011B100F00DF800E0FF2000F029FF00F06E
S315080006C036F93068417A0029DED000F001F8DCE717
S315080006D0C0680168097900684079084370472DE9C0
S315080006E0F24F80461646DFF800A4DAE90201707078
S315080006F0DAE902010004000EB070DAE90201000C22
S31508000700F070DAE90201000E3071DAE9020171715E
S3150800071006240B256FF07E0900F055F95FEAC870CC
S3150800072023D5032701E0781EC7B2E8B201F081FCA1
S31508000730002818BF002FF6D1A555601C5FFA80FB6C
S315080007400BF10104E4B21FB981200BF806000CE096
S31508000750012705E001F080FC8145B8BF81467F1C72
S315080007600098B842F6D20BF806904FEA58086D1C66
S315080007701B2DCFDB601E30709AF80100BDE8F24FE2
S3150800078001F057BCF8B504460025DFF86C63B0786D
S31508000790070006D002281DD00ED3042849D026D338
S315080007A054E000F056F8002850D09DF800001528AF
S315080007B04CD10127207049E000F04BF8002845D0BD
S315080007C09DF80000FF2804BF607002273ED0152858
S315080007D03CD03AE000F03DF8002837D09DF80000FC
S315080007E0A070032737709DF8000070702EE000F0A7
S315080007F030F858B330789DF800100155401C307019
S31508000800C0B2011FA278914208BF04271ED0717892
S31508000810D21C9042BCBF9DF800004018E5DBA278C8
S31508000820D21C904212D19DF8000080F0FF0048408B
S31508000830DBE73078001910F8010C0C2802D1707823
S3150800084000B901250020307070700027B77028465F
S31508000850F2BD012200A9002001F07DBB10B50022DF
S31508000860022303E01C5CA218D2B25B1C8C1EA342B6
S31508000870F8DB82F0FF0010BD38B5A04C15222270B7
S31508000880FF2262700322A270E070042581380128D5
S315080008900FD9801E11D0401E1CD0001F09D0083861
S315080008A0022806D9103822D0401E02D00F38012857
S315080008B02AD808782071052526E01720A070A07888
S315080008C0801C8542BFBF11F8010B28556D1CEDB27F
S315080008D0F5DB19E00720A070A078801C8542BFBF11
S315080008E011F8010B28556D1CEDB2F5DB0CE011F87B
S315080008F0010B821CA270021D9542BFBF11F8012B85
S315080009002A556D1CEDB2F6DBA078011DC9B220464A
S31508000910FFF7A4FF2855681CC0B20C210155421CDC
S31508000920D2B221460120BDE8384001F0F2BA70B5CE
S315080009306D4C734D294604F11C0004F046FC05F283
S31508000940800315201874FF2058742A7802F10900CC
S315080009509874F020D874D5E920011976060EDE754C
S31508000960060C9E750604360E5E7518756078587600
S31508000970187A98760120144604E0415D86F89A10A4
S31508000980401CC0B246198442F7DA05F2900502F116
S315080009900D01C9B22846FFF761FF86F89A000C20B8
S315080009A086F89B0004F10D0229460120BDE8704037
S315080009B001F0AFBA10B54C4C0020C4E9020001F0B2
S315080009C049FBA06110BD38B501F032FA01F042FBCF
S315080009D045498A6990422EBF821AC2F5801282184A
S315080009E0D1E902450023A2186B41C1E902238861B7
S315080009F0BDE8314001F02ABAF8B59DF918703A4EAB
S31508000A00317801292DD100213E4B03E00C5CCC54F2
S31508000A10491CC9B204788C42F8DAB16991422EBFF2
S31508000A20881AC2F580100818D6E90245DFF8D8C03A
S31508000A30604509D38A422EBF501AC1F58010101896
S31508000A4000212018694103E00021201A65EB010105
S31508000A50C3E9200183F88870194606F11C0004F0E2
S31508000A60D4FBF1BD20480021017170470020704772
S31508000A7000207047254802F0F7BE70B51A4B9969F1
S31508000A8081422EBF0A1AC0F580128A18D3E9024598
S31508000A901D4EB24209D388422EBF401AC1F58011B5
S31508000AA0401800212018694103E00021A01A65EBCF
S31508000AB001019A78312A12D1DB78154A98545B1CC1
S31508000AC0DBB20404240E9C545B1CDBB2040C9C545D
S31508000AD05B1CDBB2040E9C545B1CDBB2995470BDE4
S31508000AE00C490D4802F0C0BE4006002021A10700AF
S31508000AF03C040020D0170020B61A002078180020E1
S31508000B001805002088040020A1860100A800000816
S31508000B10F817002055200008B4000008F8B5144C52
S31508000B20FF25144E3179002920D101F084FA0028D6
S31508000B301CD1012030711048C178B1700079F0706D
S31508000B400E4F03E000280BD0FFF73DFF3968481E1B
S31508000B50386030790029F5D1002818BF257001D1F1
S31508000B60002020704FF0FF303860F1BD2570F1BDD0
S31508000B70D01700204006002048170020080400204F
S31508000B802DE9F843724E3046FFF7FCFD00281FD0CA
S31508000B903079F1784FF0FF086E4C6F4D012918D067
S31508000BA0022919D0032921D004293CD0102948D07C
S31508000BB0112900F0AF80122900F0C180202900F029
S31508000BC09780212900F0A18030294BD0312949D0BE
S31508000BD0BCE000F0EEFEB9E000202070214682203D
S31508000BE0FFF74AFE0020C5E90200AFE001F02DFA42
S31508000BF000F2070001212170032161701021A17004
S31508000C0000210A1910F80139D370491C0829F8DBA4
S31508000C10122905DA08190022C270491CC9B2F7E779
S31508000C202146832090E0D5E902012171020EE27087
S31508000C30020CA2700204120E6270207021468420F3
S31508000C4082E06870A0F10B01C9B2102905D201F043
S31508000C50F0F910B96878207001E084F80080214620
S31508000C60902071E000203D4F302904BFB178491E1D
S31508000C7004D0312903D10120B178891E397000EBDF
S31508000C80060999F80400A0F10B01C9B2102909D286
S31508000C906978884202D001F0CCF9E0B999F80400E5
S31508000CA0687001E0FF2816D10121F07805E03128A7
S31508000CB001D15279CA55491CC9B23A788A4204DB2D
S31508000CC08A193028F3D11279F4E7FFF77CFE384603
S31508000CD0FFF724FF01E084F80080F078302804BF8D
S31508000CE02146B02030D0312830D12146B1202BE022
S31508000CF02246B179F37901EB0321737940EA03209F
S31508000D00FFF7EDFC2146A0201EE0002020702146BA
S31508000D10A12019E0287801280CD005F12803902293
S31508000D201E2105F11C0004F09FFA012028700020FE
S31508000D30207001E084F800802146912004E000201C
S31508000D402870207021469220FFF796FDBDE8F183B2
S31508000D5048170020D017002040060020F81700206A
S31508000D6070B57748427877490B685B0722D5032A1E
S31508000D7020DA00EB420384889C810123847803FAF5
S31508000D8002F22243827002786F4C82B1002502E09B
S31508000D906D1C032D0EDA03FA05F61642F8D04570D7
S31508000DA07240027000EB4500808A206002E02260F3
S31508000DB0032242704FF6FF700860BFF35F8F70BD65
S31508000DC038B501F035F85E490A78E2B15E4B1C6821
S31508000DD0E40718D4002402E0641C032C14DA012565
S31508000DE0A5401542F8D04C706A400A7001EB4401E0
S31508000DF0898A196053494FF6FF720A6053494FF4BE
S31508000E0000620A6000E0032401F00EF8E0B232BD89
S31508000E104B4800210170032141700021C170052152
S31508000E20018100218170484900220A604A604FF416
S31508000E3000428A601022CA60001D4861012088614C
S31508000E400320C8603F48042101644FF6FF71016022
S31508000E503E484FF40061016001F079B970B5044667
S31508000E602A2901D0012070BD354DD00040EA433013
S31508000E702989084305EB44018882012000FA04F613
S31508000E80287830420FD100F0D3FF297831432970F2
S31508000E90A978B143A97000F0C7FFFFF791FFA042F8
S31508000EA001D1812070BD822070BD2DE9F84304462A
S31508000EB08846274F254D00F0C1FF48B92868000528
S31508000EC006D5386800F00400461EB641F60F00E065
S31508000ED0012600F0ADFF81463EB12868000504D51D
S31508000EE03868400748BFFFF73BFF1548817801225D
S31508000EF0A2400A4208D000EB44039B89A8F80030B8
S31508000F0051408170802409E00178114218BF82247B
S31508000F1004D14078A0420CBF81248424484600F0BE
S31508000F2083FF2046BDE8F28338B504460D462946B8
S31508000F302046FFF7BAFF842818BF8028F7D132BDAC
S31508000F40A418002010A8004004D0004000E100E0EA
S31508000F5050A8004030B585B04E4C002020631023C1
S31508000F607F224D48018800A800F078FB0F2000A9D1
S31508000F70425CFF2A05D100224254401E40B2002896
S31508000F80F6D5002554F82500016800A802F07CFC77
S31508000F9018B954F82500206302E06D1C0C2DF1D316
S31508000FA0206B08B93D48206305B030BDF8B500F0A0
S31508000FB069F844F29442026000F05DF8007909216C
S31508000FC0084207D00D21012000F08EFC0D210220D9
S31508000FD000F08AFC206B0179890706D58069002113
S31508000FE002794079104300F07FFC206BC0680568E1
S31508000FF0002608E005EBC607012100F05AF800F0C4
S315080010005DF8761CF6B2206B417A8E42F2DBC06838
S315080010104568002605E000F049F800F026F8761C39
S31508001020F6B2206B017A8E42F5DB007940071BD5B4
S3150800103001210D2000F058FC01210D2000F065FC6F
S3150800104001210E2000F050FC01210E2000F05DFC6D
S3150800105001210F2000F048FC00210F2000F055FC6C
S315080010600921152000F040FCF1BD012138797A7973
S31508001070104300F04ABC4160094801604160054CD4
S31508001080206B7047074844F24441016041600648B6
S31508001090704700000C040020BE5100081802000822
S315080010A000B8004000B0004000B4004005EBC60799
S315080010B0082138797A79104300F016BC206B40680D
S315080010C00006C00F80F0010138797A79104300F0E4
S315080010D01CBC000070B504461E2C03D2BDE8704047
S315080010E000F0D5BBDFF8AC020168C90704D5416832
S315080010F011B11825641F11E00168C90704D54168B4
S3150800110011B90C250A3C09E00168C90704D44068EE
S3150800111010B10C250F3C01E00625143C00F088FEB2
S31508001120064600F097FE00F0F5F8A4B24FF0FF313E
S3150800113004FB0511416000F073F900F08DFE30469E
S31508001140BDE8704000F070BEDFF84C020021416037
S315080011508160016821F00201016090480021017058
S31508001160417801290BD18E4901220A608D49096807
S31508001170C90701D5032106E00221417046E04178FE
S31508001180042901D10521417070472DE9F041002459
S31508001190864D2C60864E34604FF4A040706041F254
S315080011A09A084046FFF796FF686844F69041081A81
S315080011B000B24FF4487190FBF1F000B200F303005F
S315080011C030604046FFF786FF08274046FFF782FF54
S315080011D0686804197F1EF8D17648211DC908B0FB36
S315080011E0F1F080B27060BDE8F08138B56FF00F0499
S315080011F0714D0120A8602C608020FFF76BFFE8681E
S31508001200FF2802D8641C102CF5DB31BD6B48016839
S3150800121041F0010101606A480421016069480160E2
S31508001220704710B55B4C206840F001002060012033
S31508001230606000F0FDFD616801F0010141F01001F8
S31508001240624A1160BDE8104000F0EEBD70B5534D1E
S31508001250E8885D4C4FF6FF76B04222D102237F2202
S315080012605B480188A81D00F0F9F9E888B04204BF78
S315080012700220E880A069800703D4A06940F0020034
S31508001280A06101202870E888206000F043F8A16971
S31508001290C9072DD5E16900292AD048F69F41416042
S315080012A005E0A1698907E8D52978002901D0002039
S315080012B070BDA16811F00101A26803D10F2809D2F7
S315080012C0401C06E0920705D52A791AB1032801D3EE
S315080012D0401EE8802971E88802283CBF0220E88081
S315080012E02068E9888842CCD1FFF79BFF012070BDB2
S315080012F0A169C90705D5E169002902D144F24F6100
S31508001300CDE7A169C90702D4E1690029F6D142F2FD
S315080013102731C4E720480721016000214160816028
S3150800132021494FF000720A60704738B500F080FD19
S31508001330044600F08FFDFFF789FF050008BF00F09F
S315080013406FF800F089FD204600F06EFD002DEDD007
S3150800135031BD38B51F480068800619D50F4CE078AE
S31508001360B0B90EE000F064FD054600F073FD607844
S31508001370052818BF00F054F800F06EFD284600F066
S3150800138053FD60780528EDD100202070FFF7CDFFCA
S3150800139031BD00001C40004010E000E06C04002055
S315080013A018A000400C40004004ED00E0104000404A
S315080013B00C0000400060E3160840004058A00040BA
S315080013C080E200E000E100E00440004000800040C8
S315080013D0C25100082C0000400B48007850B1EFF3CA
S315080013E00880A0F1200080F3088880E8F00F0749FC
S315080013F0086030BF0548006890E8F00F00F120004B
S3150800140080F3088870470000C4180020C818002018
S315080014100248006880F3088862B67047C81800203A
S3150800142000BF30BF00BF70473748018A40F6A77231
S31508001430914209D1418A4FF47F40014204D10229E1
S315080014408041C043C00F7047002070472DE9F04720
S315080014500446884600F0ECFC82462A4F0120387084
S315080014602A4DFFF7E1FF40B9EB2205F1140105F11A
S31508001470080003F027FF03F024FF2348D0F828903C
S3150800148041464FF480702043C8470646504600F050
S31508001490CBFC002038700EB1705D05E041464FF474
S315080014A000702043C847405DBDE8F0872DE9F04746
S315080014B080468946560000F0BBFC8246134CFFF76F
S315080014C0B3FF48B94FF4967204F1140104F1080009
S315080014D003F0F8FE03F0F5FE0B48456A0023324692
S315080014E049464046A8470746504600F09DFC0FB1BE
S315080014F0385D05E03346002249464046A847005D68
S31508001500BDE8F087B91A002000000408680300083F
S3150800151080B5FF2803D000F00DF800F0F6F901BDFC
S3150800152080B5FF2805D000F005F881F0010100F02C
S31508001530ECF901BD0E49096849680906C90F7047E3
S3150800154010B50446FF2C11D000F072FCE1080329FF
S315080015500AD2E110074A02EB81210A68012304F046
S315080015600704A3405A400A6000F05EFC10BD000064
S315080015703C0400200CB000405FEA000D70470000F4
S3150800158080B572B62748016821F001010160264836
S3150800159011210160254826494160264981604FF09E
S315080015A078414161244981612449C1612449254A18
S315080015B00A604FF080324A608A60CA60E0220A6197
S315080015C0102101614FF4E02101621F49096889066B
S315080015D009D51E4900220A70016841F08051016050
S315080015E0FFF716FFFEE700F003F8012002BD000032
S315080015F010B54FF000500168154A91420BD10021F1
S315080016000160017959B1012905D112484468006879
S31508001610FFF7B2FFA04700F00BFC62B610BD0E48FC
S31508001620F4E70000FCED00E00080004004ED00E077
S31508001630000000080004FA05F8F8F84080F8404071
S3150800164000E400E0808040802C000040C4180020A0
S315080016504D2001B0001804080000040830B583B016
S31508001660044610467F2808BF0020B1F5004F19D15F
S3150800167008237F2240F6120100A8FFF7EFFF082291
S315080016800D4900A800F0C4F930B908237F2240F2BA
S31508001690A27100A8FFF7E2FF082200A9204600F081
S315080016A0B5F937BD1A46054D294300FB03112046F7
S315080016B000F0ACF937BD0000A803000800000408D4
S315080016C070B505460E467C4C206C20F00800206458
S315080016D000F0AEFB310341EAC51141F00101774A3A
S315080016E0116008212160BDE8704000F09DBB10B56F
S315080016F0714C13E000F0AEFB714804210160206CC8
S3150800170040F008002064FFF78BFE206C20F00800EC
S3150800171020646C480421016000F09EFB20680007E5
S31508001720E8D5082020606848006880B210BD80B5FA
S31508001730FFF7C6FFBDE80140D9E76048016821F018
S31508001740010101607047F8B5054600F062F80446E5
S3150800175029460320FFF7EBFF064629460120FFF737
S31508001760E6FF074629460020FFF7E1FF53490A68C6
S3150800177022F001020A60801B0004B91BB0FBF1F0DD
S3150800178060434000000CF2BD10B5504C0020FFF736
S31508001790DAFF40F68C218842206834BF40F0080002
S315080017A020F00800206010BD10B582B000F029F8BE
S315080017B000F021F803D1FF2804BF04200021002CE3
S315080017C01DBF801CC0B201220022414B1A70082896
S315080017D0A8BF07200829A8BF0721FFE73D4A1368C5
S315080017E023F4607343EAC01010601068C008C00094
S315080017F00843106013BD9DF801009DF80010FF29ED
S315080018007047044602237F223348018800A8FFF761
S3150800181025BF00B583B002237F223048018800A87F
S31508001820FFF71CFFBDF800004FF6FF7188420EBF98
S315080018304FF4E1600A2190FBF1F0ADF8000024486E
S31508001840007808B302237F222348018801A8FFF7FE
S3150800185005FF9DF80500FF2808BF0420811CC9B2B2
S315080018600829A8BF0721C1F12F02BDF80030C0F131
S315080018702F0002EBD272521000FB0320C1F12F0198
S31508001880B0FBF1F0ADF80000BDF800000EBD14493C
S315080018900A68144B1B68DB0758BF4008032809D39E
S315080018A04B6D43F001034B650B689B1A1B031B0B1F
S315080018B08342F9D37047000018A000400470004026
S315080018C000E100E080E200E00070004000BC00405B
S315080018D0BA1A002018000040B8510008BA5100088A
S315080018E0382000401C40004010B582081B4B53F8B6
S315080018F02220136800F0030080000F248440A343CD
S3150800190001FA00F01843106010BDC208032A0CD271
S31508001910012200F007039A400029C0F3D50019BF39
S3150800192080020F4980020F490A50704780B50E4859
S31508001930102101600D48022101600D484FF4006135
S315080019400160FFF722FC0B480721016000210164B2
S31508001950094810210160002002BD0000B0030008FC
S3150800196010B0004014B0004080E100E008000040DC
S315080019700C60004014A0004000E100E080B5FFF7CD
S3150800198065FC2D48016821F0100101600020FFF771
S315080019900BFFFFF7DFFAFFF73BFAFFF7F5FEFFF756
S315080019A005FBFFF7C2FCFFF720FCBDE80140FFF787
S315080019B0BDBF80B500F03CFA2048002101604160B7
S315080019C01F482049016001BD81B209B94BF6EF6194
S315080019D01D4A1180000C08BF4FF6CE205080704774
S315080019E00288130448BF4A405100018090B27047EC
S315080019F038B5154C62212046FFF7F2FF054641F23D
S31508001A000B01A01CFFF7ECFF684032BD01F05EBF7A
S31508001A1080B501F093FF40B202BD0C480168C907C2
S31508001A2008D50B4903220A70016C21F001010164F3
S31508001A30012101607047000000BC00401C400040C6
S31508001A400CED00E00400FA057404002018A000401C
S31508001A506D040020DFF864030068DFF86413096882
S31508001A606FF0FF02DFF85C33984213D111F1010FD2
S31508001A7001D1042070476FF47F00814201D1022012
S31508001A80704711F1807F01D10320704791421ED122
S31508001A900520704710F1807F03D1914208D10620B6
S31508001AA0704710F1010F07D1994210D108207047ED
S31508001AB099420CD107207047904208D1994201D12A
S31508001AC00920704711F1807F01D10A207047002054
S31508001AD070472DE9F04780460F461446DFF8E8922E
S31508001AE040F2FF7ADFF8D45215EA0A0F07D06D22C2
S31508001AF009F12401484603F0E5FB03F0E2FBB04E8A
S31508001B0016EA0A0F08D06E2209F1240109F14C00E1
S31508001B1003F0D8FB03F0D5FBF80708D5702209F1C6
S31508001B20240109F1700003F0CDFB03F0CAFBE007BE
S31508001B3008D5722209F1240109F1800003F0C2FBDD
S31508001B4003F0BFFBE019B0F5006F08D3742209F162
S31508001B50240109F1900003F0B5FB03F0B2FB640819
S31508001B60FFF778FF401E032805D9001F03280DD963
S31508001B70001F012815D878190021A142BEBF30F8E8
S31508001B80112028F81120491CF7DB15E0B8190021A7
S31508001B90A142BEBF30F8112028F81120491CF7DBF6
S31508001BA00AE000214FF6FF7002E028F81100491CF0
S31508001BB0A142FADB012000E00020BDE8F087F8B575
S31508001BC0044601256D1E04EBC526374600203978E4
S31508001BD0FF2906D031460220FFF738FC48B94FF4F2
S31508001BE00060401C7F1CB0F5006FF0D3002DE9D1D2
S31508001BF00020F2BD2DE9F14F84B00E469146DFF87C
S31508001C00C88140F2FF776D4C3C4208D040F225125D
S31508001C1008F12401404603F055FB03F052FB684DDA
S31508001C203D4209D04FF4937208F1240108F14C00A3
S31508001C3003F048FB03F045FBF00709D54FF494720F
S31508001C4008F1240108F1700003F03CFB03F039FBAE
S31508001C505FEAC97009D54FF4957208F1240108F1B5
S31508001C60800003F02FFB03F02CFB09EB0600B0F510
S31508001C70006F09D34FF4967208F1240108F1900019
S31508001C8003F020FB03F01DFBC9F50060801B001F55
S31508001C904FEA500806EB09074FEA5909301F400872
S31508001CA002904FF47F4AFFF7D5FE401E032805D958
S31508001CB0001F03284FD9001F012852D80194AB46AC
S31508001CC007208DF802005846FFF779FF00283FD114
S31508001CD000F095F800283BD100F07DF8002837D1B0
S31508001CE000F086F8002833D100F070F82846FFF790
S31508001CF0DDFB00282CD100F069F8A01CFFF7D6FB05
S31508001D00002825D100F089F8002821D19DF8020085
S31508001D1007281CD05846FFF752FFC8B900F06FF8DD
S31508001D20B0B900F058F898B900F062F880B900F038
S31508001D304DF82046FFF7BAFB50B900F052F838B90B
S31508001D4000F064F820B99DF802000328BBD10020F2
S31508001D5005B0BDE8F08F0195A34603208DF8020073
S31508001D60D8E72846FFF72BFF0028F1D12046FFF7D2
S31508001D7026FF0028ECD1029A291D201DFFF796FBA5
S31508001D800028E5D14A4604993019FFF78FFB002849
S31508001D90DED14246E919E019FFF788FB0028D7D1BA
S31508001DA000F034F80028D3D100F01BF80028CFD172
S31508001DB000F033F80028CBD1C9E7000000F003088B
S31508001DC000F803080000FFFFC8030008ADF800A0EC
S31508001DD0012200A970474A46049906EB0B00FFF753
S31508001DE065BBADF800A0012200A9A81CFFF75EBBE1
S31508001DF042460198C1190BEB0700FFF757BB029A39
S31508001E000198011D0BF10400FFF750BBADF8000067
S31508001E10012200A92046FFF749BBADF800000122C0
S31508001E2000A92846FFF742BB80F3118870470000D7
S31508001E30EFF31180602181F311887047EFF3118069
S31508001E406028B4BF0020012070470000002181F3FC
S31508001E501188704772B6704762B670470448072102
S31508001E60016002480121017070470000CC1800206B
S31508001E7014A00040F8B507460E4614461D46A7F5B9
S31508001E8096706049884207D35F482C2200F12C01DE
S31508001E9003F018FA03F015FA5C4800EB5700B0FB9C
S31508001EA0F7F05B4900F001028A6140084861072E95
S31508001EB00CBF00200220012C08BF40F0180003D0F8
S31508001EC0022C08BF40F0080005F00F02022AA8BF3E
S31508001ED040F004008860012008604E480021018017
S31508001EE04180818009210920FFF7FEFC04210A2090
S31508001EF0FFF7FAFC48480121C164016C46F2090261
S31508001F00114301644FF6FF710160444820210160C6
S31508001F10F1BD10B50023012804D0022802D04FF0E5
S31508001F20FF3010BD3E48002904D1C1684906FCD5DA
S31508001F30002010BD8469012CF1D106E0C46864074D
S31508001F40FCD511F8014B04605B1C1446621E002C7C
S31508001F50F4D1184610BD2DE9F0410C46904610B153
S31508001F604FF0FF301DE000262E4F2A4D14E0FFF7F4
S31508001F705FFF6988C95D04F8011B6988491C8A11D5
S31508001F8001EB5262D211A1EBC2116980A988491EE0
S31508001F90A980FFF749FF761CA88808B14645E6D30D
S31508001FA03046BDE8F08170B51B480168026C02EA4C
S31508001FB001041C49174A1A4B002C1AE0DC681D68F4
S31508001FC0EDB2382634420ED194887F2C0BD216886F
S31508001FD07554751CAE1105EB5666F611A5EBC615BC
S31508001FE01580641C9480DC68A407E7D40468056C33
S31508001FF02C4005D0046046F209052C42F3D1F5E7DA
S3150800200070BD0000D50E0E007804000800366E017B
S3150800201054C80040A81A002008A8004000E100E0C3
S315080020203CC80040D418002080B500F0CBFC002046
S3150800203002BD00F0C6BA00F0B7BBFEF713BD00F04C
S3150800204018BE00F0BFBD00F0C9BD09E0FEF710BD1F
S3150800205000F0FDBD01F069B800F0A7BD01F068B851
S315080020600748704738B5074C2068216C01EA000517
S31508002070ADB2680748BFFEF733FD256031BD0000E5
S31508002080A01A002008A0004070B582B00446154684
S315080020900819A0F1080600F0DDFD20B12078032814
S315080020A024BF801E2070F07800F058FB96F90210C5
S315080020B0663149B200910346707900F00F00B17994
S315080020C0090241EA0040F17941EA00022946204620
S315080020D0FEF792FC73BD0000DFF8E83533F8100010
S315080020E01040C840704730B5DFF8DC35DFF8DC450E
S315080020F034F810409C60DFF8CC4534F8105095430E
S3150800210011402943D96002221A6000221A6024F875
S31508002110101058680028FCD130BDDFF8B405DFF888
S31508002120B4158A780AB149780FE089566FF0080223
S315080021309142B8BF302108DBC16D39B140F24A314E
S31508002140C26DB1FBF2F189B2C91E0160704730B5A4
S3150800215087B00A237F22DFF88005018803A8FFF7E6
S315080021607DFABDF81210DFF86C554FF6FF729142F2
S3150800217002D0287BC0077CD5FFF74BFB0446E878DE
S3150800218020B90120E870A88900F085F84FF47C6230
S315080021904FF400710D20FFF7A6FF0323892200F0F4
S315080021A076F801A900F06EF800F06FF80DF102015B
S315080021B000F068F8BDF8020000F060F8ADF802001B
S315080021C00323B92200F063F802A900F05BF8BDF812
S315080021D0080000F053F8ADF808004FF47C624FF49D
S315080021E060610D20FFF77FFF00F04FF800A900F0AF
S315080021F049F8BDF8000000F041F8ADF800000323E7
S31508002200B92200F044F80DF1060100F03BF8BDF8DC
S31508002210060000F033F8ADF80600BDF80600BDF874
S315080022200010490801EB0040BDF80010B0FBF1F0C2
S3150800223080B2BDF80810BDF80220520802EB014131
S31508002240BDF80220B1FBF2F1411A89B24FF47C6263
S31508002250E3034FF49664B3FBF4F3C01A01EBD173AE
S315080022605B1003EB0010B0FBF1F0083800F03F00FC
S3150800227081010D20FFF737FF07B030BDBDF8041008
S31508002280401A70470020FEF74FBE0323A9222A21D1
S315080022900020FEF7E3BDF8B50546DFF83844B5F586
S315080022A0004F19D102237F22DFF8300400F006FA26
S315080022B0BDF80000000AFF2800D000B91820607099
S315080022C0BDF800000006C00E10281CBF001D00F057
S315080022D080F9BDF80000C543E07808B1002008E0A1
S315080022E0207B00F0010005F0010190EA010F01D002
S315080022F00120E070A58105F00106C5F34007DFF867
S31508002300E003016841F4004101604FF44052DFF8F0
S31508002310D40300EB46004078010389B20220FFF798
S31508002320E2FE304601F0CAF94022B90100F0C4F9CC
S3150800233017B915F0040000D00120A070FFF7EDFED4
S31508002340E07818B1FFF703FF0020E0700020F2BD27
S31508002350DFF88003808970472DE9F04F85B0DFF8F4
S315080023608843207804900B38C5B2A800001D039056
S315080023700422014600A8FFF7ACFB9DF800008DF883
S3150800238009009DF801008DF808009DF802008DF8F7
S3150800239007009DF803008DF80600DFF85003007863
S315080023A0012804D16078461EB641F60F00E00126E2
S315080023B000F0F0FE80469DF90200A8F10A0908F12E
S315080023C00A0B584501DA814501DB012000E00020AF
S315080023D00121A940ADF804109DF80110090606D49C
S315080023E0A188BDF80420114201D1074607B101278B
S315080023F001F0BCF99DF8030000060AD4E088BDF890
S315080024000410084205D19DF90000584501DA8145B6
S3150800241002DB4FF0010A01E04FF0000A26B91FB9A6
S31508002420BAF1000F00F09280B148D0F80090B14898
S31508002430D0F800B0B0484FF4C0610160002000F049
S3150800244027FCFEF786FFAD4DAEB1607858B1A848B7
S31508002450016821F001010160A448012101700120F1
S31508002460FFF715FA07E0286840F400502860286846
S3150800247020F4805028609D48007801280BD19C489C
S31508002480006840F001009A490860984800210170E8
S315080024906420FFF7FCF92EB1607818B90498C0B229
S315080024A001F08DF9607838B1286820F480502860EA
S315080024B0286840F400502860BDF80400C64347B1B8
S315080024C001F055F88DF801008DF80280A08830409B
S315080024D0A080BAF1000F08D000F0C1FE8DF8030005
S315080024E08DF80080E0883040E0809DF900009DF975
S315080024F00910884211D19DF801009DF808108842FC
S315080025000BD19DF902009DF90710884205D19DF867
S3150800251003009DF80610884204D00422039900A8F7
S31508002520FFF768FB0BF4C0607249086000F070FCA6
S3150800253009F0020000F0ACFBFFF7FFF8607828B15D
S3150800254048F2607028606420FFF7A1F99DF8010041
S3150800255000F04CFF9DF8030000F07CFE05B0BDE8D6
S31508002560F08F00F013BE70B50646A6F10B04A4B2B0
S3150800257000F018FB0546A6F10B00C0B2102801D3DF
S315080025808A2070BD5E488168090702D40068C007C2
S3150800259001D58C2070BD544806705A490A680C2A21
S315080025A001D1002070BD584A32F8242090F908005D
S315080025B08018C861FFF7D0FE012DF2D100F08EFA1F
S315080025C0EFE710B5044600F0E1FD2046BDE81040EF
S315080025D0C9E72DE9F04186B006466FF02A00864223
S315080025E001DA8B2064E014237F22484800F066F85D
S315080025F0BDF810004FF6FF71884204D00E2108423C
S3150800260018BF012506D13F2200211020FFF764FDDF
S31508002610044600252F483E4906F12B02D2B22F2A3E
S3150800262014D213223B4B01E0521ED2B213F9127098
S31508002630BE42F9DB03EB420676780E6013F81210F9
S31508002640017000200026804603270DE0092EC8DA0F
S31508002650325C0A60067014237F222F4800F02EF899
S3150800266003200126B046282725B14FF6BF72BDF8CC
S31508002670101018E04FF46052C10200F01CF84FF435
S31508002680E062310200F017F880224FEAC81100F024
S3150800269012F884F020003C18A4B2402CA8BF3F24AE
S315080026A03F2284F0200100F007F8FFF736FD0020EE
S315080026B006B0BDE8F08189B20B2014E5018800A8B0
S315080026C0FEF7CCBF54190020E81000403805000872
S315080026D06410004040040020B6510008C0510008AC
S315080026E01C1000405C050008780400205C040020EB
S315080026F08020004000E100E080E100E0D0100040CA
S3150800270060200040AC100040D0040008B251000818
S31508002710C010004010050008B451000810B5DFF8D5
S315080027209C05016821F480510160DFF89445207802
S3150800273098B100202070DFF88C05016821F00101AE
S315080027400160016841F0010101600022A169402091
S31508002750FFF773FC6069401C606110BD010603D574
S315080027604FF67F710840C000704770B5DFF85045D6
S31508002770A07A012801D1002070BDDFF8505568788D
S3150800278068B1E878617B0E18B6B228798642A8BF88
S315080027900646FFF72DF90121B140491E084069791F
S315080027A008186082C0B270BD2DE9F8430546C00717
S315080027B001D502F0AABDDFF81845206DC00748BF4D
S315080027C08C2000F18380DFF8F8640020F072307006
S315080027D0DFF8F8743878A0B12878122801D00C28C8
S315080027E00BD1697801F00701032906D1401910F8C1
S315080027F0020C042804BF0120F072A06F40F001000B
S3150800280002E0A06F20F00100A067307BDFF8C484E7
S31508002810797889B100217173216D41F00401216530
S31508002820012805D100F0B9F94FF40070C8F8000086
S31508002830FFF79BFF81460CE0216D21F0040121651D
S315080028404FF00009012804D100F07DF96420FFF754
S315080028501EF8A06F20F00800A0671420E064C4F8F2
S315080028604890787828B1307B18B9A06C08B901204F
S31508002870A064B8790028206D14BF40F0080020F045
S3150800288008002065202020626560256060687F302A
S315080028906060042020624FF4C065DFF83C040560E0
S315080028A006E0FFF7CBFA18B1FFF7D0FAFFF7C0FA40
S315080028B0DFF82804006800F003000328F1D0C8F800
S315080028C00050206D40F0010020650020BDE8F2832D
S315080028D02DE9F041DFF808446068616C01EA0005FB
S315080028E0ADB26560DFF8D863707800285ED1DFF88E
S315080028F0DC83DFF8DC73E80719D53868396C7A6C3D
S3150800290042EA0141B16198F8002062B14078800638
S3150800291009D5012030704FF480502060206C40F4B7
S315080029208050206403E000220020FFF786FB28067B
S315080029300CD5307830B1002030700022B1694020C3
S31508002940FFF77BFB206C20F480502064680601D5D5
S3150800295002F0DBBCE80621D5707B401C707398F842
S315080029600210C0B2884212D2B86F20F00800B867C9
S315080029701420B866FFF7F9FEB864DFF858034FF479
S3150800298000710160386D40F00100386506E000F01E
S31508002990CCFB002201468D20FFF74FFB280705D503
S315080029A0386C796C41EA0040FEF767F8A806CFD480
S315080029B0707828B14FF44070054204BF0120B0700A
S315080029C0BDE8F08170B582B00546FFF7CAFDDFF8AD
S315080029D0140300210160DFF8EC421521E1600921AA
S315080029E001651F21416001210166FFF7B1FCFFF770
S315080029F052FC00F029FA00F01DFC00F0FBF8DFF8A5
S31508002A00C062F08900F019F9308A00F01BF9606895
S31508002A1040F040006060707900F0D4F8B07900F0BA
S31508002A20DDF8307900F0FDF8DFF8BC0290F9000017
S31508002A30FFF7CFFDF07800F02BF996F9070000F0C4
S31508002A4033F9307A00F009F9707A00F012F90223A6
S31508002A507F22DFF89802018800A8FEF7FFFDBDF87F
S31508002A600000C0054CBF0020BDF80000DFF880124A
S31508002A700870DFF880020078FFF775FD08B102F0EC
S31508002A8044BC012D05D12068C0070FD500F026F8F3
S31508002A900CE05DB92068C00708D4206840F0010042
S31508002AA02060C820FEF7F3FE00203073924DF12017
S31508002AB0286440F2F910E86300F0AAF985484FF453
S31508002AC0807101602168C90705D54FF6FF71296035
S31508002AD04FF4C0610160FEF73CFC73BD70B5874DCD
S31508002AE02E68B6B2764C207B01282BD0FFF7A0F9CA
S31508002AF048F2D00129606A68520509D548F22202CF
S31508002B002A606A68D205F5D529606A685207F1D441
S31508002B102E6071494FF4C0620A6079490A6A22F048
S31508002B2001020A620A6822F001020A600A6842F093
S31508002B3002020A604A6A42F001024A6201212173CE
S31508002B40FFF772F970BD70B55D4C207B20B3FFF7B7
S31508002B506FF905466B48012101605B4E306D40F008
S31508002B60010030650020207300F052F92020306003
S31508002B70306B40F002003063F06D40F00800F065FD
S31508002B802846FFF751F90A20FEF781FE00F005F8FE
S31508002B9050484FF4C061016070BD57484FF6FF7149
S31508002BA0016070474648007B704757480068C0F385
S31508002BB08F109A3800B210F1800FB8BF6FF07F00FF
S31508002BC040B27047514900280A6814BF42F0120201
S31508002BD022F012020A603A49487170474B490028A8
S31508002BE00A6814BF42F0800222F080020A60344963
S31508002BF088717047464847494A7812020B789A18EE
S31508002C000260CA7812028B789A1842604A791202D0
S31508002C100B799A188260CA79120289798918C16073
S31508002C2070473A4900280A6814BF42F0200222F089
S31508002C3020020A602249087170472149C88136492D
S31508002C40086070471E49088234490860704734494D
S31508002C5008707047324800787047184900280A6893
S31508002C6014BF42F4005222F400520A601449087252
S31508002C707047214928B108220A600A6C42F0080206
S31508002C8002E00A6C22F008020A640D49487270478D
S31508002C900C4900280A6814BF42F0020222F0020218
S31508002CA00A600749C870704700F19A018905090C3E
S31508002CB01C4A11600249C8717047000040A00040D4
S31508002CC050040020802000403020004000040020EE
S31508002CD01020004000E100E080E100E0A82000406C
S31508002CE000A000405C10004040040020C4510008C9
S31508002CF0800400207804002004A000401C10004036
S31508002D0060200040281000400C100040842000403D
S31508002D1098200040A01A00209420004090200040EF
S31508002D20810400205410004038B50446274D21463A
S31508002D3000F055F8E860211D00F051F8A86004F18C
S31508002D40080100F04CF8686004F10C0100F047F83F
S31508002D50286031BD38B504461C4DEA68214600F0A6
S31508002D603BF8AA68211D00F037F86A6804F10801E3
S31508002D7000F032F82A6804F10C010020BDE838405A
S31508002D8002F07ABAF8B50446114D80202860114E33
S31508002D90062030600720286030688007FCD50027A9
S31508002DA004EB870100F01BF8A8627F1C042FF7D3F9
S31508002DB030684007FCD500262A6B04EB860100F034
S31508002DC00BF8761C042EF7D3F1BD0000383000400E
S31508002DD00030004010A00040002002F04DBA00204C
S31508002DE002F058BA7FB504460D46FFF721F80646A5
S31508002DF000A8FFF7AFFF2846FFF796FF2046FFF724
S31508002E00C1FF00A8FFF790FF3046FFF70DF87FBD1A
S31508002E10DFF8D80310210163DFF8D4130A6842F0FB
S31508002E2001020A60DFF8CC1301F2140202600122E3
S31508002E30026301F29E01816002210163DFF8B80393
S31508002E404FF6FF7101607047DFF8B00345F2640181
S31508002E50C1601E21416250210162C821C16181659C
S31508002E60F021C16545F690014166882181660621F3
S31508002E70C16644F2066101604FF6FF714160DFF8F2
S31508002E808003007838B1DFF87C0348F2607101608E
S31508002E904FF4C1514160DFF87003016841F0040145
S31508002EA00160DFF868030021417070472DE9F84397
S31508002EB00446DFF840538A2000FB045000F2150050
S31508002EC04178027802EB012292B202F44041DFF81F
S31508002ED040331B782B7066190023B370920633D5DE
S31508002EE0DFF83073FA6C12062ED54FF480684FF46B
S31508002EF00069B1F5404F03D1C01DFFF7A7F809E0F7
S31508002F00B1F5004F16D1017AC07900EB012080B2E5
S31508002F10FDF7ACFD70B1786CC00606D400F016F863
S31508002F2003D0F86A40F00100F8620120B0703868F2
S31508002F30E86009E0786CC00606D500F007F803D00B
S31508002F40F86A20F00100F862BDE8F183386B04B135
S31508002F50C84610EA080F70472DE9F84F0446A04600
S31508002F60A44E8A2000FB086000F2140AAA4D002C21
S31508002F700CBF28686868C0B241005FFA81F9052865
S31508002F8001DA02F0C2B909EB0A0010F8081D427806
S31508002F9002EB01218FB2F780017931813178017016
S31508002FA0DFF878B2DBF83C0020F48050CBF83C0020
S31508002FB0686E1CBBDBF80000400525D44FF4E450CE
S31508002FC0074240D1FFF746FE08B178043BD59AF888
S31508002FD00000802837D2686BADF80000286BADF882
S31508002FE00200009830617089401C708108EB060069
S31508002FF0827849465046FFF747F827E0012CDDD18D
S31508003000DBF800000005D9D58548017891B1002183
S315080030100170844801684FF4E45007421CBF00223F
S31508003020402005D19AF80100000900F001028F201E
S31508003030FFF703F8002C0CBF4FF480604FF40060D4
S31508003040CBF8000002E0B088401CB080002C0CBF12
S31508003050012002202861BDE8F18FF8B5664C20688A
S31508003060216C01EA0005704E34E0A80654D46806BF
S315080030704AD4E8040ED525F480554FF480502060D4
S31508003080376D08203065706D000548BFFFF746FBB1
S31508003090BFB23765E80703D525F001050120206092
S315080030A0280605D502F00CF925F080058020206059
S315080030B0E80506D502F004F925F480754FF480700A
S315080030C02060A80406D5FDF7D5FC25F400554FF475
S315080030D00050206035B3280706D50020FFF7E6FE26
S315080030E025F0080508202060E80606D50120FFF728
S315080030F0DDFE25F010051020206005F06000602830
S31508003100B3D13068C00507D525F0400540202060BA
S315080031100120FFF721FFACE725F0200520202060DD
S315080031200020F6E700202060F1BD3A4800687047A5
S31508003130F0B589B004460D4600210320FEF7C0FA13
S3150800314004AE1BE00027FEF7D2FA26F81700FEF7B2
S31508003150CEFA00A921F817007F1C082FF3DB04A874
S31508003160FFF740FE00202080218836F810205140C5
S315080031702180401C0828F7DB6D1EA41CEDB2002D2B
S31508003180E0D1FEF7DAFA012009B0F0BD03210220EA
S31508003190FEF796BAF8B5FEF7AAFA044629254FF6B9
S315080031A0FF76224F3878B8B903210320FEF788FA4C
S315080031B002237F221E48018800A8FEF74FFAFEF771
S315080031C096FABDF80010401880B2301A90FBF5F058
S315080031D02530787001203870FEF7AFFA301B90FB67
S315080031E0F5F03A307978401A40B2F2BD0020004036
S315080031F0842000407819002000A000404C100040B0
S3150800320079040020D010004080200040BD1A00201C
S3150800321078040020382000402020004004A0004008
S31508003220500400206804002068200040BB1A0020D3
S31508003230BC51000808237F22024801880248FEF78D
S315080032400DBA00BFC6510008A01A00203F2241004F
S3150800325089B201E03F2201460220FEF744BF2DE96C
S31508003260F04F95B0534CE06C80B20490206880B261
S315080032700390514DE86A80B202904FF6FF72002122
S315080032800120FEF729FF01904FF6FF7200210B205F
S31508003290FEF722FF00904FF40040206000202861CE
S315080032A0686148F2020000F089F84CF68C30E06458
S315080032B048F2F000E8624FF4805211460120FEF70A
S315080032C012FF4FF6FF7200210B20FEF70CFF0621B6
S315080032D00620FEF72CFA804600F083F883464CF663
S315080032E09C30E0640020FFF7B1FF06210846FEF790
S315080032F0E7F90026B0B2FFF7A9FF06210620FEF778
S31508003300DFF9FEF7F4F905A921F81600761C202E38
S31508003310F0DBFEF7ECF91020FFF798FF00F061F8F4
S31508003320A0EB0B00BDF83410A1EB0801404301FBEC
S3150800333001094FF0100A112700F04CF800F051F877
S3150800334000F041F804DB8146BA467F1C202FF3DBE8
S315080033501FFA8AFABAF1100F0DD10F2700F03AF8C2
S3150800336000F03FF800F02FF805DB8146BA46781ED4
S3150800337007B2002FF2D50498E064039820600298FB
S31508003380E8624FF6FF72019989B20120FEF7ABFE9B
S315080033904FF6FF72009989B20B20FEF7A4FE0120B2
S315080033A02861002000F00AF84FEA4A00C0B215B0BA
S315080033B0BDE8F08FC010004018100040286040F2A9
S315080033C04C40FEF764BAA0EB0B00404306FB060030
S315080033D04845704705A830F81700A0EB0806B8B2AC
S315080033E034E706210720FEF7A2B900004FF4FE5283
S315080033F0810189B20C20FEF776BE2DE9FE4F814683
S315080034008A46A44CA06880B202904FF000080026B5
S315080034104FF00A0B012701972568ADB24FF6FF72E8
S3150800342041460C20FEF758FE4EF23F01084000EBDD
S315080034308911ADF8001000EB8A10ADF80200BDF84E
S315080034400090FEF77AF9B0202063DFF84CA20AE074
S3150800345018F1190FB8BF4FF00A0BD8440FFA88F8BD
S3150800346002984044A060DAF80000000704D5012F4E
S3150800347002DA019800283BD0C4F834900220A062F2
S315080034800020A0620120B0408449084214BFBDF85C
S315080034900090BDF80290701CC6B2202E28BF0026E8
S315080034A0E06A0028FCD1019880B1E81E8742BCBFBB
S315080034B0F81C87B213DB2F4605F50040206006216D
S315080034C00920FEF7FDF8002001900BE0DAF800006D
S315080034D0000707D5042FA6BFF81E87B2002707F5F1
S315080034E000402060B8F11A0FB2DB6FF0090BB4E7A1
S315080034F00298A06025600820CAF80000684800689D
S3150800350080B2BDE8FE8F10B566494FF0FF32604BBA
S315080035101C7864B1002819BF4A606348486041F2C4
S3150800352011100860D9889888BDE8104065E700281A
S3150800353019BF4A600A6048600860FEF7FEF806216F
S315080035400920BDE81040FEF7F2B838B50120FFF7AC
S31508003550DAFF04460020FFF7D6FF05460120FFF7ED
S31508003560D2FF4042001B00EB450000B232BD2DE9F8
S31508003570FE4F4E4CA06A0290206801904C4E30686F
S315080035800090434F387858B14FF6FF720021082053
S31508003590FEF7A2FD8046C022C0210820FEF7A3FD43
S315080035A0444D4548007810B148F260702860022002
S315080035B0A0620120206040F24C40FEF768F9012025
S315080035C0F060306078884CF24C010843E8630020CC
S315080035D0B8804020F880387800B12020FFF706FF31
S315080035E0FFF7B3FF83464020B8807F20F8803878FD
S315080035F0002814BF60207F20FFF7F8FEFFF7A5FF1D
S3150800360081463878002814BF4FF0C00A4FF0FE0AEA
S31508003610584601F07EFE00FB0AFAABEB090B387838
S3150800362060B1484601F075FE8146584601F071FEC4
S3150800363080B20AEB8911B1FBF0F905E0584601F0B2
S3150800364068FE80B2BAFBF0F91FFA89F90020E86330
S3150800365000A8008830600020F0600220206001A8E1
S315080036600088206002A80088A062387830B14FF63A
S31508003670FF721FFA88F10820FEF735FD40F24C402C
S31508003680FEF705F909F10100C003000CBDE8FE8F3D
S31508003690AE1A0020C010004018A0004071A371A304
S315080036A00070004038100040EEEEFFFF602000403A
S315080036B028100040D010004079040020F0B589B0E9
S315080036C004460020FEF770F80A237F222348018863
S315080036D000A8FDF7C3FF4FF6FF75BDF80200A84224
S315080036E001D101F012BE00271D4E2A4617B94FF424
S315080036F07C4203E0022F08BF4EF23F0200A830F8D2
S315080037001710B85DFEF7EFFC7F1C052FEDD3012CD3
S3150800371002BF14237F22134802D014237F221248A3
S31508003720018803A8FDF79AFF00272A46012F08BF3C
S315080037304FF6C072082F08BF002203A830F81710EA
S31508003740B819007AFEF7CFFC7F1C0A2FEDD3012C9F
S3150800375004BF0120FEF728F809B0F0BDB6510008ED
S3150800376060050008B4510008B2510008E0B50A2304
S315080037707F220948018800A8FDF770FF4FF6FF72FF
S31508003780BDF80000904201D101F0BFBD01460020FE
S31508003790FEF7A9FC07BD00BFB651000827490A680D
S315080037A0920992010A600A681043086024484FF497
S315080037B000410160002101606420FEF768B82DE928
S315080037C0F84380461F4D28681FFA80F9286840F498
S315080037D000402860194F386820F4805038601A4C29
S315080037E0207868B11948A178627800EB820212F84D
S315080037F02A2C891A00EB880010F82A0C401803E0D6
S3150800380020260120207000E086B23046FFF7C6FF6A
S31508003810386B042805D0386B400754BF701E701CDF
S31508003820F2E7F86A28B184F80180A670C5F8009016
S3150800383001E001F06ABDBDE8F1830000D010004048
S31508003840181000401C100040BF1A0020D0040008C1
S31508003850FDF796FE002801D000F0A2F80020FCF73C
S31508003860D7FE01F05AFD00000EB400B582B003A9D8
S31508003870009100AB02460121024800F0A1F806BCFF
S315080038805DF810FB21530008820707D010F8012BBA
S3150800389011F8013BBAB19A42F6D014E002680B68F7
S315080038A09A42A2F1013301BF934313F0803F50F8C7
S315080038B0042F51F8043FF3D010F8012B11F8013BFF
S315080038C00AB19A42F8D0D01A704700004AB38B075B
S315080038D007D011F8013B00F8013B521E21D08B0797
S315080038E0F7D183071ED1103A07D330B4B1E83810A0
S315080038F0103AA0E83810F9D230BC530724BFB1E813
S315080039000810A0E8081044BF51F8043B40F8043BEF
S31508003910D20724BF31F8022B20F8022B44BF0B78BC
S3150800392003707047083A07D3B1E80810083A40F818
S31508003930043B40F804CBF7D25307E4E70300002022
S3150800394013F0030F09D0521E22BF13F8010B11F80A
S3150800395001CBB0EB0C00F3D07047121F22BF53F80F
S31508003960040B51F804CB6045F7D0121D0AD200BAF1
S315080039709CFA8CFCB0EB0C0038BF6FF0000088BFD7
S3150800398001207047521E22BF13F8010B11F801CB14
S31508003990B0EB0C00F6D0521C08BF1046704700006A
S315080039A010B50548054CA04204D050F8041B8847BA
S315080039B0A042FAD110BD00BF84000008A800000884
S315080039C02DE9F04FA1B017461C46029002AD69607A
S315080039D00020A8620DF1440A6FF0004802E0A86AC8
S315080039E0401CA862387818B9A86A21B0BDE8F08FDB
S315080039F0252816D1002028616861A861E861286237
S31508003A00686217F8011F202908D023291BD02B2903
S31508003A1012D02D2914D0302918D01AE040F0010010
S31508003A20EFE717F8011B6868029A90476860002854
S31508003A30D5D14FF0FF30D8E740F0020080B2E0E77A
S31508003A4040F00400FAE740F00800F7E740F01000FD
S31508003A50F4E72A290DD12268111D2160116829630E
S31508003A60002904D54942296340F0040080B27F1C2E
S31508003A7012E00021296309E0296B414505D001EBD5
S31508003A80810302EB4301303929637F1C3A78A2F19E
S31508003A903001C9B20A29EFD339782E291CBF4FF055
S31508003AA0FF31E9621DD117F8011F2A2906D12268BC
S31508003AB0111D21601168E9627F1C12E00021E9628C
S31508003AC009E0E96A414505D001EB810302EB4301B0
S31508003AD03039E9627F1C3A78A2F13001C9B20A2965
S31508003AE0EFD3A8863978DFF8540B01F083FA08B1CA
S31508003AF017F8010B8DF83E009DF83E00682804D1A2
S31508003B00387868280AD1622005E06C2806D138780A
S31508003B106C2803D171208DF83E007F1C11A8E8603F
S31508003B203A781046413800F0B680001F022840F265
S31508003B30B280133870D0093800F0AD80801E17D0D7
S31508003B40401E1FD0401E022840F2A580001F19D033
S31508003B50401F00F0CF80401E5ED0401E00F0F88067
S31508003B60C01E00F00081801E56D0C01E54D00FE142
S31508003B702869411C29612268111D2160116800F815
S31508003B800A100CE19DF83E006C280FD071280BD165
S31508003B902068C01D20F007002060034603F10800D6
S31508003BA02060D3E9000106E06A28F1D02168081DE3
S31508003BB020600868C1179DF83E30682B08BF00B220
S31508003BC007D0622B08BF40B203D0742B01D07A2BE2
S31508003BD000D1C117002904DA2B695E1C2E612D2637
S31508003BE00DE0AB8E9E0704D52B695E1C2E612B2635
S31508003BF005E0DB0705D52B695E1C2E61202603F838
S31508003C000A602B6911AE3344AB60CDE90001114659
S31508003C1000A800F058F9C2E09DF83E006C280FD0C5
S31508003C2071280BD12068C01D20F0070020600346CC
S31508003C3003F108002060D3E9000106E06A28F1D004
S31508003C402168081D2060086800219DF83E30682B11
S31508003C5008BF80B207D0622B08BFC0B203D0742B4E
S31508003C6001D07A2B00D1002195F834301B07C8D52E
S31508003C7009B90028C5D042F02003782BC1D12B6999
S31508003C805E1C2E61302603F80A602B695E1C2E61C5
S31508003C9003F80A20B5E72068C01D20F00700206059
S31508003CA0034603F108002060D3E90001CDE90001CD
S31508003CB0BDF80600000404D52869411C29612D2198
S31508003CC00DE0A88E810704D52869411C29612B219E
S31508003CD005E0C00705D52869411C2961202100F89F
S31508003CE00A10286911A94018A860114600A800F012
S31508003CF071F954E09DF83E0062280BD0682820D060
S31508003D006A280ED06C2815D071280AD0742811D0CC
S31508003D107A280FE0A86A2268111D216011680870C8
S31508003D203DE0A86AC11723681A1D22601A68C2E90D
S31508003D30000134E02168081D20600868A96A01604E
S31508003D402DE0A86A2268111D21601168088026E006
S31508003D502168081D2060086811A9A9600021CDE91D
S31508003D600001782154E72168081D20600868A860CA
S31508003D70EA6A002A02D501F049F907E0002101F0B4
S31508003D800DF900281ABFA968401AE86A686106E0B2
S31508003D902869411C296102B9252200F80A207F1CDE
S31508003DA0286B2969401AE969401A6969401A296A1B
S31508003DB0401AA969401A696AA0EB010995F8340006
S31508003DC0400711D420208DF840000026B9F1010FD4
S31508003DD00ADB012210A900A800F03AFC00287FF4AB
S31508003DE028AE761C4E45F4DB2A6911A900A800F016
S31508003DF02FFC00287FF41DAE30208DF84000EE69B8
S31508003E004FF0000B012E0BDB012210A900A800F0D1
S31508003E101FFC00287FF40DAE0BF1010BB345F3DB55
S31508003E206A69A96800A800F013FC00287FF401AEAF
S31508003E3030208DF840002E6A4FF0000B012E0BDB68
S31508003E40012210A900A800F003FC00287FF4F1ADB8
S31508003E500BF1010BB345F3DBAA696869A968411838
S31508003E6000A800F0F5FB00287FF4E3AD30208DF8BC
S31508003E7040006E6A4FF0000B012E0BDB012210A9E1
S31508003E8000A800F0E5FB00287FF4D3AD0BF1010B89
S31508003E90B345F3DB95F8340040077FF5A3AD202042
S31508003EA08DF840000026B9F1010FFFF69BAD0122FF
S31508003EB010A900A800F0CCFB00287FF4BAAD761C48
S31508003EC04E45F4DB8EE52DE9FA4786B0044660696F
S31508003ED000909DF818006F2808BF082705D040F005
S31508003EE02000782814BF0A2710273C25D4E90001AA
S31508003EF0064689469DF81820642A01D0692A04D105
S31508003F00002902DA764269EB4909B9F1000F02D1B4
S31508003F100EB9606B60B3A5F101084546F817CDE9FF
S31508003F20047030464946DDE9042300F025FFCDE953
S31508003F300201B246DDE90223DDE90401A0FB0269BC
S31508003F405046801B3030C0B23A2803D39DF818106B
S31508003F5051390818009908F80100DDE90269B9F134
S31508003F60000F00D126B12069009969188842D2D37A
S31508003F70082F0BD194F83C00000707D50098285C59
S31508003F80302803D06D1E009830212954C5F13C0015
S31508003F90E061009969182161616B884206DA081A9E
S31508003FA06062A08F20F01000A08710E000290ED5CF
S31508003FB094F83C1001F01401102908D1A16BA269EC
S31508003FC0891A626A891A0D1A012DA8BF656208B096
S31508003FD0BDE8F0872DE9F24F8EB0054604AFD5E966
S31508003FE00001CDE902019DF8380040F020008DF867
S31508003FF0000061280BD0686B002848BF062005D44E
S3150800400005D19DF80000672801D101206863E8887A
S31508004010C0F30A1040F2FF71884222D1A8790F2115
S31508004020084205D1A88818B9688808B9288868B1E7
S315080040300320E8619DF838006138C0B21A2836D3E3
S3150800404089A103222869FFF741FCC7E10320E8613B
S315080040509DF838006138C0B21A2834BF83A184A1FC
S31508004060EFE7012804DA284601F065F901281BDA8A
S3150800407040F2FE31EA8861F30E12EA80441A4FF0E4
S31508004080FF309DF80010612917D12A69511C296152
S315080040903021117029694A1C2A619DF83820612A45
S315080040A00CBF7822582204E000240020E9E7CDA1BD
S315080040B0C7E70A70A969891CA96110B90026B04624
S315080040C082E19DF80000612840F09580686B002821
S315080040D04EBF2126461C36B2771CD5E900ABDDE972
S315080040E002010022002300F013FB3ABF8BF00040C8
S315080040F0CDE902A0CDE902ABA4F104088DF81020A1
S315080041000DF11109012F33DBDDE90201002200233D
S3150800411000F016FB2CD21C2102A800F0BBFEDDE93C
S31508004120020100F025FB0446FF1F012F09DB00F002
S3150800413001FE02460B46DDE9020100F03BFDCDE932
S31508004140020109F207000721012C0BDB491E5EBF9D
S3150800415004F00F0200F8012D2411F5D502E0002223
S3150800416000F8012D491EFAD500F20709012FCBDA0E
S315080041700DF11100A9EB00000DF11107B042B8BF0F
S3150800418006B2002E30D4864206DA04A830184078E3
S31508004190082828BF0F2000D20020314604AA8A1812
S315080041A001E0761E36B2491E12F801398342F8D06C
S315080041B00F2804D104A808184278521C4270002916
S315080041C004D504AF761C36B208F10408304609E077
S315080041D0C15D3031C9B23A2903D39DF838203A3A3D
S315080041E05118C155401EF3D5686B002840F1EC8084
S315080041F0701E6863E8E0DDE902010022002300F092
S3150800420087FA05D2DDE9020181F00041CDE9020114
S3150800421024B247F297506043DFF8241490FBF1F874
S315080042200FFA88F8C8F107040027DFF81894012C5C
S3150800423020DBDDE902ABE00707D5504659463A468A
S315080042404B4600F0E5FB82468B46641038464946E5
S315080042503A464B4600F0DCFB07468946002CEAD175
S31508004260CDE902AB28E000BF4E414E00696E6600FC
S31508004270494E460064429246DFF8CCB314D0E007B4
S3150800428007D5504659463A464B4600F0C1FB82468A
S315080042908B466410384649463A464B4600F0B8FB0A
S315080042A007468946002CEAD1DDE9020152465B46FB
S315080042B000F08AFACDE902019DF8000066280CBFD5
S315080042C008F10A000620696B4418142CA8BF1324A9
S315080042D030208DF810000DF11106012C30DBDB4F74
S315080042E011E0DDE9020100F059FA00F02DFD024661
S315080042F00B46DDE9020100F05DFC00223B4600F0BA
S3150800430087FBCDE90201DDE9020100F047FA06F173
S31508004310080104220A23B0FBF3F603FB160030302B
S3150800432001F8010DB6FBF3F003FB1063303301F817
S31508004330013D521EEED101F10806083C012CD0DAE7
S315080043400DF11100301A0DF111079DF811103029E1
S3150800435006D1401EA8F1010817F8011F3029F8D028
S315080043609DF80010662904BF0FFA88F808F10101C4
S3150800437003D065290CBF012100216A6B8E1836B25D
S31508004380B042B8BF06B2002E1ED4864204DAF05DEB
S31508004390352828BF392000D230203146CA19521E86
S315080043A001E0761E36B2491E12F801398342F8D06A
S315080043B0392802D1C85D401CC855002904D57F1E7E
S315080043C0761C36B208F101080FFA88F000903346D9
S315080043D03A469DF83810284600F006F80FB0BDE8B2
S315080043E0F08F00006E616E002DE9F04385B005463A
S315080043F0894690461E46BDF930406F6B012EBCBFFC
S3150800440001260FF2342849F02000662807D06728CD
S315080044107AD16FF003018C427CDBBC427ADA641CE9
S3150800442066280AD095F83C00000702D4BE42B8BFF9
S31508004430374624B23F1B48BF00272869E96924B2DA
S31508004440012C21DA4A1C30230B54012F03DA95F884
S315080044503C10090702D52E211154521CEA61E74285
S31508004460B8BF7C4224B26142A962E719B742B8BF15
S315080044703E4636B22E6232464146EB691818FFF7B9
S3150800448025FAB81BE862BFE00818A64216DA3246D3
S315080044904146FFF71BFAE9697118E961A01BA86292
S315080044A0012F03DA95F83C00000705D528692E2266
S315080044B00A54286A401C2862EF62A5E02246414653
S315080044C0FFF704FAE8692018E861361B012F03DABA
S315080044D095F83C10090704D5411CE96129692E2283
S315080044E0425436B2B742B8BF3E4636B2324604EBFD
S315080044F00801E8692B69C018FFF7E8F9E869301878
S31508004500E861B81BA8627FE0B9F1610F14D14FF0DA
S31508004510700916E0BE4204DA95F83C10090758BF40
S3150800452037467F1E48BF0027B9F1670F14BF4FF003
S3150800453045094FF0650904E0B9F1410F08BF4FF08E
S315080045405009E9694A1C286918F8013B0B54012FE0
S3150800455003DA95F83C10090702D52E211154521C8E
S31508004560EA61012F10DB761E36B2B742B8BF3E4667
S3150800457036B232464146EB691818FFF7A7F9E869DB
S315080045803018E861B81BA862E869296900EB0108D8
S3150800459008F8019B002C5CBF2B2008F8010B03D5FB
S315080045A02D2008F8010B6442002602AF24B2012C24
S315080045B00EDB0A22214600A800F020FF019807F822
S315080045C0010B009C761C24B2012CF2DA022E06DAC4
S315080045D049F02000652804BF302008F8010B1EB9F1
S315080045E0302008F8010B09E0012E07DB761E02A829
S315080045F0305C303008F8010B012EF7DAE8692969D2
S315080046004018A8EB0000286295F83C0000F014005A
S3150800461010280DD1A869E9690818A96A0818296A2D
S315080046200818E96A0818A96B8842BCBF081A6862A4
S3150800463005B0BDE8F08300003000000074050008EE
S31508004640A0860100000024400000F03F84D797416F
S31508004650F8B504460D46164600208EB14FF0FF37D2
S3150800466005E0206B401C20630020761E08D015F854
S31508004670011BE068A2689047E0600028F1D138463F
S31508004680F2BD000010B5044603E014F8010B00F073
S31508004690BCFE20780028F8D110BD2DE9F04104466B
S315080046A00D4616461F46DFF84C804EB14046FFF7CA
S315080046B0E9FF3046FFF7E6FF08F11000FFF7E2FFD3
S315080046C02046FFF7DFFF09A0FFF7DCFF2846FFF7C4
S315080046D0D9FF07A0FFF7D6FF3846FFF7D3FF08F143
S315080046E01800FFF7CFFF0020BDE8F0813A00000070
S315080046F0200000007C05000801491820ABBEFBE736
S315080047002600020007463846FFF7F6FFFBE70000DB
S315080047104FF4001C1CEB410F94BF1CEB430F09E040
S3150800472041EA030C50EA4C0C52EA0C0C03D29942AB
S3150800473008BF9042704714BF8B4282427047000000
S315080047404FF4001C1CEB410F94BF1CEB430F09E010
S3150800475041EA030C50EA4C0C52EA0C0C03D28B4289
S3150800476008BF8242704714BF9942904270470000C2
S31508004770F446400D40EAC120490006D200F013F87D
S31508004780004248BF6FF00040604700F00CF84FF059
S31508004790004188428CBF084640426047400D40EAC7
S315080047A0C12049000CD240F00040490DA1F58061B6
S315080047B0491C05D4D1F11F0154BFC840C017704722
S315080047C04FF0000070470000F0B540F2FF7581EA2F
S315080047D0030C0CF0004C15EA11541DBF15EA1357CB
S315080047E0AC42AF42E5E0BC41C1F31301C3F3130386
S315080047F0801A994143F4801304D2641E400049414B
S3150800480080185941C90241EA5051B1FBF3F603FB3E
S315080048101611A2FB0675D7EBC020A94102D2761E57
S3150800482080185941C90241EA5051B1FBF3FE03FB16
S315080048301E11A2FB0E75D7EBC020A94103D2AEF11B
S31508004840010E80185941890241EA9051760546EAD7
S315080048508E2EB1FBF3F603FB1611A2FB0675D7EBFA
S315080048608020A94102D2761E80185941C90241EA20
S3150800487050514EEA060EB1FBF3F603FB1611A2FBE6
S315080048800675D7EBC020A94102D2761E8018594179
S31508004890C90241EA5051B1FBF3F703FB1711A2FB1A
S315080048A00735D3EBC020A94167F100070CBF0042CA
S315080048B047F0010766F3D5274FEA1E31B80814F505
S315080048C0806412DDBD0775F1004250EB0E5051EBC6
S315080048D0045111F5801F5CBF41EA0C01F0BD4CF094
S315080048E07F6141F0E0410020F0BDBD076D0840EA58
S315080048F00E5041F48011D4F10104B4F120060ADA0D
S31508004900C4F120060200E04001FA06F3E14018432C
S31508004910B24015430EE0342C13DCC6F1200445EAF8
S3150800492040056D0820FA06F2154321FA06F0A14063
S315080049300D43002175F1004250F1000051EB0C01C6
S31508004940F0BD00205FEA0C01F0BDCFB992185B41BB
S31508004950B3FA83F704BFB2FA82F6BF190B3FB7F171
S3150800496020062FBF02FA06F3BB40C7F1200622FA3B
S3150800497006F638BF3343BA401CB1E419641E33E760
S315080049807F4231F00041B1FA81F404BFB0FA80F6F3
S31508004990A4190B3CB4F120062FBF00FA06F1A1407A
S315080049A0C4F1200620FA06F638BF3143A0403C1B66
S315080049B01AE7AC421ABF05EA1357AF4212E050EAAB
S315080049C041061CBF52EA4306BFE750EA4107304694
S315080049D061461CBF41EA0551F0BD52EA430C08BFC7
S315080049E0C143F0BD00204FF4001616EB410F98BFE7
S315080049F016EB430F08BF16EB410F24BFC14305E072
S31508004A0016EB430F0CBF61464CEA0551F0BD00009A
S31508004A10B0B581EA030C0CF0004C40F2FF7515EABC
S31508004A2011541DBF15EA1357AC42AF423AE0E419D8
S31508004A3023EA455343F48013C90241F0004141EA91
S31508004A4050574FEAC02E1100AEFB020200284FF065
S31508004A500000E7FB01204FF00001E3FB0E2118BF21
S31508004A6042F00102401800214941E3FB0701A4F581
S31508004A7080640F0302D252004041494154F10104B7
S31508004A806BDD470872F1004250F1000051EB04510A
S31508004A90A1F580115CBF41EA0C01B0BD4CEA055195
S31508004AA00020B0BD05EA1357AC4214BFAF4240E040
S31508004AB050EA410E1CBF52EA430E02E0614600204E
S31508004AC0B0BD24423C441AD13F42F7D0090302BF85
S31508004AD001460020143FB1FA81FEA7EB0E0401FA45
S31508004AE00EF70EF10C0ECEF1200100FA0EFEC840AC
S31508004AF047EA000723EA455343F48013A3E733F054
S31508004B000043B3FA83F704BFB2FA82FE77440B3F39
S31508004B10E41BB7F1200E2FBF02FA0EF3BB40C7F114
S31508004B20200E22FA0EFE38BF43EA0E03BA40641C72
S31508004B3082E750EA410E14BF52EA430E6FF00001B5
S31508004B404FF4001717EB430F8ABF194617EB410FAF
S31508004B50B6E74CEA05510020B0BDD4F10104B4F122
S31508004B6020070FDAC4F12007520828BF42F00102D5
S31508004B7010FA07F501FA07F7E1BF2A43E040384380
S31508004B80E1400FE0352C99DCC7F1200452EA4002D7
S31508004B9020FA07F218BF42F0010231FA07F0A140E5
S31508004BA00A43002172F1004250F1000051EB0C015A
S31508004BB0B0BD000070B44FF0004591EA030F44BF42
S31508004BC06B4000F048BA841A71EB030604D26E40B3
S31508004BD0001BB141121973414FF4001C1CEB410F25
S31508004BE034BF7CEB430684E00C0DA4EB1356362E3B
S31508004BF07DDC012E43DC45EAC32343EA525312BF48
S31508004C00D20292025B08240545EAC12141EA5051C5
S31508004C10D2EBC020994125D407D1B0FA80F610FA14
S31508004C2006F164D00020203608E0B1FA81F6B140DA
S31508004C30C6F1200220FA02F21143B0404FEAF4749A
S31508004C40B4EB465434F001064FEA74040AD8D6F594
S31508004C500016760D04F00044F04061FA06F2504062
S31508004C60F1404840C00A40EA415021F0004128BFBF
S31508004C705FEA500550F1000044EBD12137E045EAE0
S31508004C80C323DB0A45EAC121C90AB6F120050EDDB0
S31508004C9042EA0242120CC5F1200603FA06F6EB4078
S31508004CA042EA06056D42984161F100010DE062FA9B
S31508004CB006F5F240554063FA06FC82EA0C02F34018
S31508004CC05A406D42904161EB030111F4801F05D1F2
S31508004CD0641E620502D06D004041494121F48011ED
S31508004CE0430875F1004350F1000041EB045170BCD4
S31508004CF070471CEB410F15D223F0004352EA4306D6
S31508004D000BD04FEA4C0CBCEB410F04D80C0D661EB9
S31508004D10342EB7DDEBE7801A994150EA410608BF01
S31508004D200021E4E708BF1CEB430F28BF6FF0000122
S31508004D30DDE70000010040F10880F446404200F03B
S31508004D4004F851F000416047010009D0B0FA80F13B
S31508004D508840C91CC1F58461090501EBD0214005CD
S31508004D607047000013F0004C03D55B42524263F1D2
S31508004D7000039CEA210C15D11B4229D109424CD1CA
S31508004D802AB18446B0FBF2F002FB10C2704700F06D
S31508004D90CDB9FCD30022002370470B000200002186
S31508004DA00020704710B5644603D34942404261F17A
S31508004DB00001FFF7E1FF640004D34942404261F174
S31508004DC00001244203D55B42524263F1000310BD41
S31508004DD0904271EB030CE0D370B5B1FA81F4B3FAE3
S31508004DE083F52C1BA340C4F1200532FA05F633439C
S31508004DF0A2405FF00046E64002E05B085FEA320246
S31508004E00841A71EB030524BF204629467641F4D35C
S31508004E1002000B003000002170BD012AB9D970B517
S31508004E20140C20D0B1FA81F4B2FA82F5C4F1200448
S31508004E306419B4F12006D6D3B2405FF00044F440BA
S31508004E40002502E052085FEA3303C61A71EB020E28
S31508004E5024BF3046714664416D41F3D302000B000E
S31508004E602000290070BD0C46B1FBF2F102FB11458A
S31508004E702D0445EA1045B5FBF2F402FB145580B241
S31508004E8040EA0545B5FBF2F002FB105240EA044041
S31508004E9070BD000070B504460D46E088C0F30A10E0
S31508004EA040F2FF76B04210D1A0790F21084208D10E
S31508004EB0A088002805D16088002802D1208800280B
S31508004EC001D0022070BD012070BD30B9204600F027
S31508004ED032FA012801DB002070BD4519B54209DB0D
S31508004EE0E088000447BF00202A4900202A49C4E96F
S31508004EF00001E8E7012DE08805DB48F20F010840CC
S31508004F0040EA051041E000F40040A17901F00F01E4
S31508004F1041F01001E1806D1E15F1340F05DAE080CD
S31508004F200020A0806080208070BD2DB26FF00E0139
S31508004F308D420BDA62882280A2886280E288A2808B
S31508004F400022E28010352DB28D42F3DB694209B2A8
S31508004F500A0018D0C1F1100223880B4165889540D4
S31508004F602B43238063880B41A58895402B43638098
S31508004F70A3880B41E58805FA02F21A43A280E28863
S31508004F8022FA01F1E180E1880843E0804FF0FF3022
S31508004F9070BD00BF0000F0FF0000F07FC9B28307B4
S31508004FA006D0521E22D310F8013B9942F7D11FE0D2
S31508004FB0083A13D302F1040241EA012141EA014108
S31508004FC050F8043B121F21BF4B40A3F1013C2CEAC9
S31508004FD0030C1CF0803FF3D0C9B2001F083210F84A
S31508004FE0013B521E28BF91EA030FF8D818BF0120CB
S31508004FF0401E70470278C9B28A421AB11CBF10F81F
S31508005000012FF9E718BF00207047000000F10103DF
S31508005010810704D010F8011B89B18107FAD102680B
S31508005020B2F10131914311F0803F04BF50F8042FCB
S31508005030F6E710F8011B11B110F8011BFBE7C01ABF
S315080050407047000070B44FF0004591EA030C44BF66
S315080050506B40FFF7B8BD841A71EB030603D2001B39
S31508005060B141121973414FF4001C1CEB410F34BFB8
S315080050707CEB430443E00C0DA4EB1356352E50DCB1
S3150800508045EAC323DB0A45EAC121C912B6F1200560
S315080050900DDD63FA05F6EB4086EA0305124218BFF2
S315080050A045F00105C01851F100010CD213E062FA6F
S315080050B006F5F2405540F3415A40B340F3405A4092
S315080050C08018594107D349085FEA30005FEA350579
S315080050D028BF45F0010501F58011420875F1004227
S315080050E050F1000041EB045170BC4FF4001C1CEB5E
S315080050F0410F38BF70470020090D090570471CEBA2
S31508005100410F10D252EA43060BD0BCEB410F05D82B
S315080051100C0DAB43661E342EB5DD02E0AB4380189A
S31508005120594170BC704770BC70470000704700005A
S315080051300101040305000100FFFFFFFF1802000834
S3150800514034020008500200086C02000888020008B1
S31508005150A4020008C0020008DC020008F8020008E1
S3150800516014030008300300084C0300080000000080
S31508005170031800001316191C1F0000000080000009
S3150800518000000001000101B5000000000100FEFF5B
S31508005190FFFF00000000000000000000000064009F
S315080051A00100FFFFEFBECEFA0B0100000000000071
S315080051B00001AA07BE07D207DC07DE07E2072A08AE
S315080051C03C08EE08F0080080FEE770B504460E4677
S315080051D0002500F03BF850B1207902466178A368B3
S315080051E000FB01313046FEF771FB00F002F8284655
S315080051F070BD01256078401C217890FBF1F201FB17
S31508005200120060700020E070704770B50446E078C0
S3150800521070B9012520790246A378A66800FB0360C9
S31508005220FEF754FB00F006F808BFE570284670BD87
S315080052300025FBE7A078401C217890FBF1F201FBE2
S315080052401200A070A078617888427047C17809B1C9
S31508005250007807E0417882788A422FBF501A007892
S31508005260401A1018C0B2704701700271836000219D
S3150800527041708170C170704710B50023002814BFB3
S315080052801C46C3F10304E4B26254120A5B1C042BE5
S31508005290F4DB10BD30B54A788B78CC78097818B12C
S315080052A020461D460C4602E0084615461A460006E4
S315080052B0000C2843110289B2214341EA004030BD5F
S315080052C07047704770B584B0034608460A21002423
S315080052D08DF80A400DF109040A25491EC9B292FB48
S315080052E0F5F605FB1622303204F801293246012A62
S315080052F0A8BF0129F1DA002200AC0919FFF7CDF998
S3150800530008B900F002B804B070BD80B50120FFF7F7
S31508005310F3B9002848BF4042704780B5FFF7F2B995
S3150800532038B504460D46284600F06FF8A84218BF5F
S315080053300024204632BD70B4C18801F40042012120
S31508005340837913F00F03C38012D1838823B9438866
S3150800535013B90388002B4BD08388C3804488848084
S315080053600488448000240480103909B2002BF3D045
S31508005370C388102B16D28388C488DD0B45EA4404FB
S31508005380C4804588EE0B46EA430383800388DE0B18
S3150800539046EA450545805B000380491E09B2A4B26A
S315080053A0102CE8D3C388202B1ED303884488C4F363
S315080053B00004E40344EA5303038043888488C4F35F
S315080053C00004E40344EA530343808388C488C4F38F
S315080053D00004E40344EA53038380C3885B08C3805C
S315080053E0491C09B2202BE0D2837903F00F03C3804E
S315080053F0C3881A43C280084670BC704791FBF2F313
S3150800540003FB1211C0E90031704710B582B004469B
S3150800541014F1010F0AD08DF80000012200A901201D
S31508005420FCF777FD012801D1204616BD4FF0FF3065
S3150800543016BD002305E050F8041B41F8043B121F73
S31508005440FBD150F8042B002AF5D1704710B409E0B7
S3150800545050F8041B50F8042B51F8044B42F8044B3F
S315080054601B1FF9D150F8043B002BF1D110BC704733
S7050800385169
