S017000072663463655F6E776B636F705F7370692E7333376D
S3150800000000040020E5960008BD980008BF9800087F
S31508000010C1980008C3980008C598000800000000A9
S31508000020000000000000000000000000C79800085B
S31508000030C998000800000000CB980008CF9800086F
S315080000401599000819990008D998000821990008F7
S31508000050DD980008E19800082D99000831990008F4
S31508000060E5980008E9980008ED980008F198000856
S315080000704599000849990008D3980008519900083D
S3150800008055990008C32A00008C09000020050020A5
S3150800009000000000D32C000020010000F8960000A4
S315080000A00004002000000000FFFFFFFFFFFFFFFF26
S315080000B0FFFFFFFFFFFFFFFF80B500F02AF8016092
S315080000C000F022F80021002000F044F8002000F09B
S315080000D02DF80120BDE8024000F028B880B500F0F0
S315080000E018F844F29442026000F00EF800F0ABF8FB
S315080000F0002000F01BF8012000F018F8002100206D
S31508000100BDE8044000F026B841600548016041603A
S315080001107047044844F24441016041600248704710
S3150800012000B8004000B0004000B400407CB504466A
S315080001300FF2941030F81450009501208DF8040041
S31508000140594E00A956F8240000F0D4F856F82400B1
S31508000150056173BDF0B585B004460D4608208DF8D7
S3150800016010000FF2681030F8146003964F4F03A979
S3150800017057F8240000F0BEF8314657F8240000F07E
S31508000180F1F8012D26D10FF24C1030F81400019029
S315080001900FF23C1030F814008DF8080040208DF856
S315080001A0090001208DF80A008DF80B0001A800F05F
S315080001B0DBF80FF2241030F814008DF800000F2039
S315080001C08DF801008DF8020001208DF8030000A8C3
S315080001D000F012F905B0F0BDF0B583B005460E463D
S315080001E0334C002154F8250000F06EF9314654F8D6
S315080001F0250000F035F90FF2E40030F81570009785
S3150800020009208DF8040004EB850600A9706800F043
S3150800021071F83946706800F0A5F80FF2C40030F896
S315080002201570009704208DF8040000A9B06800F046
S3150800023061F83946B06800F095F8012154F82500B0
S3150800024000F042F9F7BD10B584B0042001900D20E6
S315080002508DF80800174C01A900F01EF800F01FF8E9
S315080002600220019001A900F017F8022100F018F801
S3150800027011480168114A1140016011480090114C5B
S3150800028000A9204600F03EF90121204600F0A7F912
S315080002901FBD0220009000A9204600F02BB80421BB
S315080002A0204600F05FB80000080400201004002073
S315080002B01404002000B0004020F00040EEEEFFFFDE
S315080002C0801A06003CC0004020000100080000001B
S315080002D0200000000B0000000E00000002000000D5
S315080002E00400AA07BE07D207DC07DE07E2073C08B8
S315080002F0F0080080F0B500220B7903F00F03D1F85F
S3150800030000C001240F251CF00F0F12D0076804FA4D
S3150800031002F606EA0C0EB64507D1960005FA06FE61
S3150800032027EA0E0703FA06F63743521C042AEED3C9
S3150800033007600968102914D347680022161D04FAB5
S3150800034006F606EA010CB44507D1960005FA06FC3E
S3150800035027EA0C0703FA06F63743521C042AEDD39C
S315080003604760F0BD0161704710B501790A09214956
S315080003708379002B51F8223023F0E00341F822302C
S3150800038007D00279120951F822304479234341F8FB
S31508000390223002791209C379002B51F8223014BF92
S315080003A043F4807323F4807341F8223001792029BD
S315080003B018BF312910D101F00F010D4A52F821302A
S315080003C0002342F82130017901F00F0152F821305B
S315080003D00068184342F8210010BD0121C0F303103C
S315080003E001FA00F0014908607047000014A80040AF
S315080003F014BC004060A8004070B503781A46012175
S31508000400C478ECB1124B1B6803F4E063C3F5E063F0
S315080004101B0A4478C3F10405AC4085780F2646FAD2
S3150800042003F32B4023431B010A4C13550078421152
S31508000430094B00F01F0001FA00F043F8220070BDD6
S315080004405011064A03F01F03994042F8201070BD68
S315080004500CED00E000E400E000E100E080E100E0EF
S3150800046038B504460D46A0694FF6FC710840A061F0
S315080004706868E9680843A968084329690843206247
S3150800048000F0C4F829684900B0FBF1F189B2E26AC4
S31508000490120C1204E262E26A0A43E2624900B0FB05
S315080004A0F1F2491CB0FBF1F02B68D21A48BF524250
S315080004B0C01A48BF40429042206BB2BF40F00100CC
S315080004C040084000206331BD4FF6FC72002981695F
S315080004D005D011408161816941F0010100E01140B8
S315080004E081617047002A026C12BF1143C94311404B
S315080004F001647047002AC26C12BF1143C9431140F8
S31508000500C16470472DE9F84F00F054F8002600271B
S3150800051000F058F829684900B0FBF1F0824502D18D
S315080005206662A76233E000F071F800F03EF8AAEBC5
S315080005300000012806DB00F069F800F036F8AAEB9F
S31508000540000B05E000F062F800F02FF8A0EB0A0BAC
S3150800055000F05CF800F029F8A9EB0000012808DB98
S3150800056000F054F829684900B0FBF1F0A9EB000047
S3150800057007E000F04BF829684900B0FBF1F0A0EB62
S315080005800900834503DAD146B0468DF800707F1C12
S31508000590102FBDDB761C102EB9DB5FFA88F060627F
S315080005A09DF80000A062BDE8F18F29684900B0FBFC
S315080005B0F1F0704704460D4600208DF8000080468D
S315080005C0814670470120012101E04000491CC9B25B
S315080005D08F42FADA711C01FB00FA00F017B80029FD
S315080005E0816912BF41F003014FF6FC721140816127
S315080005F070478268521C8260426832B10268531C96
S31508000600036011704168491E4160704704480068DC
S3150800061000F00300032801D10248704702487047DA
S315080006201C40004000366E01001BB7000B480078DE
S3150800063050B1EFF30880A0F1200080F3088880E825
S31508000640F00F0749086030BF0548006890E8F00FCA
S3150800065000F1200080F3088870470000200500207C
S31508000660240500200248006880F3088862B67047AF
S315080006702405002000BF30BF00BF704770B584480E
S31508000680427884490B685B0723D5032A21DA00EBF5
S31508000690420384889C810123847803FA02F2224368
S315080006A0827002787C4C8AB1002503FA05F6164258
S315080006B007D045707240027000EB4500808A2060C2
S315080006C007E06D1CEDB2032DEFD302E02260032292
S315080006D042704FF6FF700860BFF35F8F70BD30B58C
S315080006E0EFF31181602080F31188694A1378EBB122
S315080006F0694C2068C00719D40020012585401D4291
S315080007000FD050706B40137002EB4002928A226041
S31508000710604A4FF6FF731360604A4FF40063136034
S3150800072005E0401CC0B20328E7D300E00320C9B2A5
S3150800073081F3118830BD10B588B0554C0020207063
S31508000740032060700020E070052020810020A07042
S3150800075000F0C5F80121201D00F0B7F8002006902A
S315080007604FF4004007904FF460400090002001903D
S315080007700290A8200390022005900020049000A86B
S3150800078000F090F800F0A5F84248042101644FF6FD
S31508000790FF71016041484FF40061016000F0E5F81F
S315080007A008B010BD10B504462A2901D0012010BD95
S315080007B03748D10041EA43310289114300EB44022C
S315080007C091820121A14002780A4214D1EFF31182E5
S315080007D0602383F3118803780B430370837823EA35
S315080007E001018170D2B282F31188FFF778FFA04227
S315080007F001D1812010BD822010BD70B504460D467A
S3150800080027482649EFF31182602A09D20A68120599
S3150800081006D50268920802F0010282F0010200E0A1
S315080008200122EFF31186602383F311883AB1096830
S31508000830090504D50068400748BFFFF71FFF14489D
S3150800084081780122A2400A4207D000EB44039B8923
S315080008502B8051408170802009E00178114218BF31
S31508000860822004D14078A0420CBF81208420F6B2B1
S3150800087086F3118870BD38B504460D4629462046CC
S31508000880FFF7BBFF842818BF8028F7D132BD0000C8
S315080008902805002010A8004004D0004000E100E030
S315080008A050A800401049026843681A4383681A43EF
S315080008B0C36842EAC30203691A430A604269CA6006
S315080008C082694A60C06988607047084A106051604A
S315080008D070470748016841F0010101607047044804
S315080008E0102101607047000004D0004018D0004075
S315080008F010D00040DFF8003633F810001040C8402A
S31508000900704730B5DFF8F4350FF29C6434F81040C0
S315080009109C60DFF8E44534F81050954311402943AC
S31508000920D96002221A6000221A6024F8101058684A
S315080009300028FCD130BDDFF8C805DFF8C8158A786D
S315080009400AB149780FE089566FF008029142B8BF9C
S31508000950302108DBC16D39B140F24A31C26DB1FBB5
S31508000960F2F189B2C91E0160704730B587B00A2313
S315080009707F22DFF89405018803A800F029FBBDF85B
S315080009801210DFF880554FF6FF72914202D0287B8D
S31508000990C0077CD500F08CFB0446E87820B9012016
S315080009A0E870A88900F085F84FF47C624FF400716E
S315080009B00D20FFF7A6FF0323892200F076F801A988
S315080009C000F06EF800F06FF80DF1020100F068F81B
S315080009D0BDF8020000F060F8ADF802000323B92262
S315080009E000F063F802A900F05BF8BDF8080000F013
S315080009F053F8ADF808004FF47C624FF460610D209F
S31508000A00FFF77FFF00F04FF800A900F049F8BDF89E
S31508000A10000000F041F8ADF800000323B92200F009
S31508000A2044F80DF1060100F03BF8BDF8060000F0A9
S31508000A3033F8ADF80600BDF80600BDF80010490801
S31508000A4001EB0040BDF80010B0FBF1F0BDF808104E
S31508000A50BDF80220520802EB0141BDF80220B1FBA5
S31508000A60F2F1411A89B24FF47C6280B2E3034FF483
S31508000A709664B3FBF4F3C01A01EBD1735B1003EB76
S31508000A800010B0FBF1F0083800F03F0081010D209E
S31508000A90FFF737FF07B030BDBDF80410401A70479E
S31508000AA00020FFF7E8BE0323A9222A210020FFF72A
S31508000AB079BEF8B50546DFF84C44B5F5004F19D1AF
S31508000AC002237F22DFF8440400F00EFABDF8000086
S31508000AD0000AFF2814BF002818206070BDF800001F
S31508000AE00006C00E10281CBF001D00F089F9BDF8CD
S31508000AF00000C543E07808B1002005E0A089ADB242
S31508000B006840C00701D50120E070A58105F00106FF
S31508000B10C5F34007DFF8F803016841F400410160B6
S31508000B204FF440520FF2A44000EB46004078010310
S31508000B3089B20220FFF7E5FE304600F01DFB402291
S31508000B40B90100F0CFF92D06A80E00F001003843D0
S31508000B50A070FFF7F0FEE07818B1FFF706FF002057
S31508000B60E0700020F2BDDFF89C03808970472DE90C
S31508000B70F04F87B0DFF89C53287804900B38C4B23E
S31508000B80A000001D03900422014600A800F09BFB6C
S31508000B909DF800008DF80A009DF801008DF80900FF
S31508000BA09DF802008DF808009DF803008DF80500F1
S31508000BB0D94E3078012804D16878471EBF41FF0F07
S31508000BC000E0012700F08FFF80469DF90200A8F19A
S31508000BD00A0908F10A0A5045B6BF81454FF0010BCC
S31508000BE04FF0000B0120A040ADF806009DF801006B
S31508000BF0000604D4A888BDF80610084201D04FF0B4
S31508000C00010B00F0E7FF9DF8030000060AD4E88808
S31508000C10BDF80610084205D19DF900005045B8BF39
S31508000C20814502DB4FF0010901E04FF000094BEA6C
S31508000C30070059EA000000F09780B848006800F0FD
S31508000C4002008DF80400DFF8D8A2DAF8000000F4F4
S31508000C50C0600590B3484FF4C0610160002001F000
S31508000C6099FA01F091FCB04CA7B1687850B1AB483D
S31508000C70006840084000A94908600120307000F06B
S31508000C8058FA07E0206840F400502060206820F4F5
S31508000C9080502060307801280AD1A048006840F0CA
S31508000CA001009E49086000203070642000F041FA77
S31508000CB02FB1687818B90498C0B201F0BAFC687800
S31508000CC038B1206820F480502060206840F4005035
S31508000CD02060BDF80600C643BBF1000F08D001F03E
S31508000CE0B0FD8DF801008DF80280A8883040A880F4
S31508000CF0B9F1000F08D001F05AFE8DF803008DF8FF
S31508000D000080E8883040E8809DF900009DF90A10C7
S31508000D10884202BF9DF801009DF8091088420BD150
S31508000D209DF902009DF90810884202BF9DF803004C
S31508000D309DF80510884204D00422039900A800F003
S31508000D4087FB0598CAF8000000F016FD9DF8040018
S31508000D5001F020FA01F044FF687828B148F2607083
S31508000D602060642000F0E5F99DF8010001F0A8FC78
S31508000D709DF8030001F016FE07B0BDE8F08F80B5B8
S31508000D8000F0ADFEBDE80140F1E600F0A8BE70B582
S31508000D900646A6F10B0401F084F90546A6F10B00F8
S31508000DA0C0B2102801D38A2070BD6048816809073F
S31508000DB002D40068C00701D58C2070BD554806705E
S31508000DC05B490A680C2A0ED0A4B20FF2741232F8E4
S31508000DD0242090F908008018C861FFF7C8FE012D85
S31508000DE008BF01F0F5F8002070BD10B5044600F004
S31508000DF076FE2046BDE81040C9E7464800787047A9
S31508000E002DE9F04186B006466FF02A00864246DB99
S31508000E1014237F22474800F067F8BDF810004FF604
S31508000E20FF7188421EBF0E210842012506D13F22C6
S31508000E3000211020FFF75EFD0446002531483E4993
S31508000E4006F12B02D2B22F2A1AD213220FF230132E
S31508000E5000E0521ED2B213F91270BE42F9DB03EB60
S31508000E60420676780E6013F81210017000200026EC
S31508000E7080460327ADB14FF6BF72BDF8101029E0C2
S31508000E80092E0CDA325C0A60067014237F222B487E
S31508000E9000F02AF803200126B0462827EAE78B2027
S31508000EA01DE04FF46052C10200F01CF84FF4E062F6
S31508000EB0310200F017F880224FEAC81100F012F844
S31508000EC084F020003C18A4B2402C28BF3F243F22BF
S31508000ED084F0200100F006F8FFF72DFD002006B08B
S31508000EE0BDE8F0810B200CE5018800A800F070B879
S31508000EF0044890F900007047FC070020E8100040FD
S31508000F0064100040B8040020E6020008EE0200085B
S31508000F101C100040AC040020F8040020802000408B
S31508000F2000E100E080E100E0D010004060200040D1
S31508000F30AC100040E2020008C0100040E4020008BD
S31508000F40AA2129005523290000252800AA262700BA
S31508000F5055282700002A2600AA2B2600552D2500ED
S31508000F60002F2400AA302400553223000034220022
S31508000F70AA3522005537210000392000AA3A200058
S31508000F80D500E601EC02EF03F204F405F506F707CF
S31508000F90F808F909FA0AFB0BFC0DFD0FFE11FF1301
S31508000FA000160119021C031F100011002000300052
S31508000FB04000410050006000700080009000A000D2
S31508000FC0B000C000D000E000F000000000000103FF
S31508000FD030B583B0044610467F2808BF0020B1F517
S31508000FE0004F1AD108237F2240F6120100A8FFF706
S31508000FF0EFFF08220FF2380100A801F06FFE30B9A2
S3150800100008237F2240F2A27100A8FFF7E1FF082219
S3150800101000A9204601F060FE37BD1A46034D294354
S3150800102000FB0311204601F057FE37BD00000408F7
S31508001030FFFFFFFFFFFFFFFF10B5484C002001F040
S31508001040D5FD40F68C218842206834BF40F0080060
S3150800105020F00800206010BD10B582B0044600F0EC
S3150800106063F800A8FFF7B4FF9DF801009DF800108B
S31508001070FF2902BFFF2804200021394A002C1ABF85
S31508001080801C012300231370C0B2082828BF07203C
S31508001090082928BF0721334A136823F4607343EAF3
S315080010A0C01010601068C00851EAC000106013BD77
S315080010B000B583B002237F222B48018800A8FFF7DA
S315080010C087FFBDF800004FF6FF7188420EBF4FF448
S315080010D0E1600A2190FBF1F0ADF8000020480078A5
S315080010E0F8B100F021F801A8FFF772FF9DF8050096
S315080010F0FF2808BF0420811CC9B20829A8BF0721F8
S31508001100C1F12F02BDF80030C0F12F0002EBD272F8
S31508001110521000FB0320C1F12F01B0FBF1F0ADF82E
S315080011200000BDF800000EBD02237F220F4801888B
S3150800113070470F490A680F4B1B68DB0758BF400802
S31508001140032809D34B6D43F001034B650B689B1AC3
S315080011501B031B0B8342F9D37047000000BC0040F9
S31508001160A10E002018000040EA020008E802000864
S31508001170382000401C400040F0B589B004460020E5
S31508001180FFF76AFF0A237F222448018800A8FFF791
S315080011901FFF4FF6FF75BDF80200A84201D101F006
S315080011A0B9FD00260FF28C0701E02A4616B94FF45E
S315080011B07C4203E0022E08BF4EF23F0200A800F070
S315080011C033F8761C052EF0D3012C03D114237F2285
S315080011D0134802E014237F221248018803A8FFF768
S315080011E0F7FE00260FF254072A4608E02A46012E83
S315080011F008BF4FF6C07202D0082E08BF002203A807
S3150800120000F012F8761C0A2EF0D3012C04BF012038
S31508001210FFF722FF09B0F0BD00000000E602000853
S31508001220E4020008E202000830F81610F05DFFF745
S3150800123068BB000000100C0D0E000000010203043C
S315080012400708090A0B0F000010B5DFF898030168B4
S31508001250DFF89403026800206FF0FF03DFF88C4381
S31508001260A14213D112F1010F0AD06FF47F018A420D
S3150800127001D1022010BD12F1807F03D1032010BDD9
S31508001280042010BD9A421DD1052010BD11F1807FA2
S3150800129003D19A4208D1062010BD11F1010F07D1DA
S315080012A0A2420FD1082010BDA2420BD1072010BDC3
S315080012B0994207D1A24201D1092010BD12F1807FBF
S315080012C008BF0A2010BD2DE9F84381460D4617468A
S315080012D00FF2B438C34E700504D0C42200F05DF88E
S315080012E001F01BFDC04C600504D0C52200F050F883
S315080012F001F013FDE80704D5C72200F044F801F011
S315080013000CFDF80704D5C92200F098F901F005FD8F
S315080013107819B0F5006F04D3CB2200F08AF901F0F2
S31508001320FCFCFFF791FF401E032805D9001F032880
S315080013300ED9001F012817D8A8190021B1EB570F9D
S31508001340BEBF30F8112029F81120491CF6DB17E03A
S3150800135028190021B1EB570FBEBF30F8112029F824
S315080013601120491CF6DB0BE000214FF6FF7002E066
S3150800137029F81100491CB1EB570FF9DB012000E0F1
S315080013800020BDE8F28341460FF2AC3001F0C6BC3E
S3150800139041460FF2803001F0C1BC41460FF2C4202D
S315080013A001F0BCBCF8B504460FF2DC258D4E70057D
S315080013B006D04FF481722946FFF7F0FF01F0ADFC25
S315080013C0894F780506D040F203122946FFF7E1FF58
S315080013D001F0A3FCE00706D540F205122946FFF7FF
S315080013E0D3FF01F09AFCA519FFF72EFF401E03282C
S315080013F011D9001F032803D9001F01280BD901E0C2
S31508001400E51908E04FF6FF70ADF80000022200214A
S3150800141000A800F01DF82846F2BDF8B504460125D7
S315080014206D1E04EBC526374600203978FF2906D0FD
S315080014303146022001F0C0FC48B94FF40060401C58
S315080014407F1CB0F5006FF0D3002DE9D10020F2BD66
S315080014502DE9F14F84B00E4617460FF22C28614C41
S31508001460600505D040F29112FFF797FF01F055FC91
S315080014705D4D680505D04FF4C972FFF789FF01F085
S315080014804CFCF00705D54FF4CA72FFF77CFF01F054
S3150800149044FCF80705D54FF4CB7200F0CFF801F0FD
S315080014A03CFCB819B0F5006F05D34FF4CC7200F0C8
S315080014B0C0F801F032FCC7F50060801B001F4FEA38
S315080014C0500806EB0709301F400803904FF47F4A7F
S315080014D0FFF7BAFE401E032805D9001F032807D9BF
S315080014E0001F012825D80194AB460720029051E039
S315080014F00195A346032002905846FFF78EFFA8B928
S3150800150000F088F890B900F078F878B900F089F812
S3150800151060B900F06DF8204601F077FC30B900F0AC
S3150800152072F818B900F096F8002830D005B0BDE872
S31508001530F08F2846FFF771FF0028F7D12046FFF7FE
S315080015406CFF0028F2D1039A291D201D01F05DFCCD
S315080015500028EBD17A080499301901F056FC0028C6
S31508001560E4D1424605EB090104EB090001F04DFC04
S315080015700028DBD100F06EF80028D7D100F043F838
S315080015800028D3D100F05FF80028CFD128E00298D0
S31508001590032825D05846FFF740FF0028C6D100F09B
S315080015A039F80028C2D100F028F80028BED100F08A
S315080015B038F80028BAD100F01BF8284601F025FCB7
S315080015C00028B3D100F014F8A01C01F01EFC002876
S315080015D0ACD100F038F80028A8D1029807288BD19A
S315080015E00020A3E700F0010800F801080000FFFF4B
S315080015F0ADF800A0012200A970477A08049906EB05
S315080016000B0001F002BCADF800A0012200A9A81C3D
S3150800161001F0FBBB039A0198011D0BF1040001F0D0
S31508001620F4BB4246019800EB09010BEB090001F0F7
S31508001630ECBB41460FF2201001F070BB41460FF299
S31508001640081001F06BBBADF80000012200A928467E
S3150800165001F0DBBBADF80000012200A9204601F02D
S31508001660D4BB0000284E564D5F4C4546545F50414A
S315080016704745254D46425F504147455F53495A45C0
S315080016805F42293D3D300000433A5C5573657273ED
S315080016905C6468616F756164695C52465C53544D5D
S315080016A033325731303878785F70726F6A65637491
S315080016B0735C53564E5F776F726B696E675F636FC5
S315080016C070795C53544D33325731303878785F52DD
S315080016D0465F4C69625372635F6C6173745C5574E0
S315080016E0696C69746965735C53544D33325731308C
S315080016F03878785F48414C5F4472697665725C6DEC
S315080017006963726F5C636F727465786D335C6E764D
S315080017106D2E6300284E564D5F52494748545F5018
S31508001720414745254D46425F504147455F53495A13
S31508001730455F42293D3D3000286F6666736574260D
S31508001740307831293D3D3000286C656E677468260F
S31508001750307831293D3D30006F66667365742B6CB1
S31508001760656E6774683C4E564D5F444154415F53FD
S31508001770495A455F42000000DFF80804102101635A
S31508001780DFF804140A6842F001020A60DFF8FC1365
S315080017900160012202638A31816002210163DFF858
S315080017A0F0034FF6FF7101607047DFF8E80345F272
S315080017B06401C1601E21416250210162C821C161D4
S315080017C08165F021C16545F69001416688218166EB
S315080017D00621C16644F2066101604FF6FF71416059
S315080017E0DFF8B403007838B1DFF8B00348F2607167
S315080017F001604FF4C1514160DFF8A403016841F06C
S3150800180004010160DFF89C030021417070472DE94F
S31508001810F8430446DFF890538A2000FB045000F290
S3150800182015004178027802EB012292B202F4404197
S31508001830DFF878331B782B7066190023B37092068D
S3150800184039D5DFF86C73FA6C120634D54FF4806814
S315080018504FF40069B1F5404F03D1C01D01F07DFB7F
S3150800186009E0B1F5004F19D1017AC07900EB0120E2
S3150800187080B201F0A9FF88B1786CC00609D4386B2C
S3150800188004B1C84610EA080F03D0F86A40F0010010
S31508001890F8620120B0703868E8600CE0786CC00621
S315080018A009D5386B04B1C84610EA080F03D0F86AA0
S315080018B040084000F862BDE8F1832DE9F84F044678
S315080018C0A046B94E8A2000FB086000F1140BB94DFA
S315080018D0002C0CBF286868684FEA4009C0B2052882
S315080018E001D201F017FA5FFA89F909EB0B0010F833
S315080018F0081D427802EB01211FFA81FAA6F806A014
S315080019000179318131780170AB4FF86B20F4805042
S31508001910F863686E14BB3868400524D41AF4E45F8B
S315080019203ED100F019FC10B15FEA4A4038D59BF861
S315080019300000802834D2686BADF80000286BADF83B
S315080019400200009830617089401C708108EB06001F
S3150800195082784946584601F021FB24E0012CDDD166
S3150800196038680005DAD59548017889B100210170F3
S31508001970934801681AF4E45F02D00022402005E08B
S315080019809BF80100000900F001028F2001F0D2FA4D
S31508001990002C0CBF4FF480604FF40060386002E002
S315080019A0B088401CB080002C0CBF012002202861A2
S315080019B0BDE8F18FF8B5764C2068216C01EA00067F
S315080019C0804D35E0700606D526F04006402020609A
S315080019D00120FFF772FFF0040ED526F480564FF467
S315080019E0805020602F6D08202865686D000548BF67
S315080019F000F008F9BFB22F65F00703D57608760020
S31508001A0001202060300603D526F08006802020605D
S31508001A10F00504D526F480764FF480702060B00473
S31508001A2006D501F0D6FE26F400564FF40050206085
S31508001A300EB3300706D50020FFF7E9FE26F00806A4
S31508001A4008202060F00606D50120FFF7E0FE26F004
S31508001A5010061020206006F06000602803D1286870
S31508001A60C005B1D401E0B006ACD526F0200620208A
S31508001A7020600020ADE700202060F1BD4C480068DA
S31508001A807047F0B589B004460D460021032001F0E1
S31508001A906BF804AE1BE0002701F07EF826F8170065
S31508001AA001F07AF800A921F817007F1C082FF3DB4C
S31508001AB004A801F0EFFE00202080218836F81020C7
S31508001AC051402180401C0828F7DB6D1EA41CEDB28E
S31508001AD0002DE0D101F084F8012009B0F0BD032102
S31508001AE0022001F041B8F8B529244FF6FF7501F038
S31508001AF053F8281A90FBF4F000F13A06324F38787A
S31508001B00B8B90321032001F02FF802237F222F48BA
S31508001B10018800A8FFF75CFA01F03EF8BDF800104E
S31508001B20401880B2281A90FBF4F02530787001200E
S31508001B30387001F055F87878301A40B2F2BD80B5A1
S31508001B400321022001F010F8BDE80140CBE770B58B
S31508001B5000241F48007890B9FFF7F1FF0546114E9B
S31508001B60707848B13078401B40B201F0ABFE0B28C4
S31508001B7005DB3570012402E03570012070702046BF
S31508001B8070BD000000200040842000409809002015
S31508001B9000A000404C100040AD040020D0100040CA
S31508001BA080200040A50E002084090020AC040020F7
S31508001BB0382000402020004004A00040EC0400200B
S31508001BC00405002068200040A30E0020EC0200084F
S31508001BD0F8040020E0B50A237F220948018800A8F6
S31508001BE0FFF7F6F94FF6FF72BDF80000904201D1F3
S31508001BF001F090F801460020FEF783FE07BD00BFFE
S31508001C00E602000810B5DFF8B805016821F480512E
S31508001C100160DFF8B045207898B100202070DFF821
S31508001C20A8050168490849000160016841F00101F9
S31508001C3001600022A169402001F07CF96069401C1E
S31508001C40606110BD010603D54FF67F710840C000DC
S31508001C50704770B5DFF86C45A07A012801D10020DD
S31508001C6070BDDFF86C55687868B1E878617B0E1846
S31508001C70B6B22879864228BF064601F01FF8012128
S31508001C80B140491E0840697908186082C0B270BD23
S31508001C902DE9F8430546C00701D501F03BF8DFF802
S31508001CA03445206DC00748BF8C2000F18A80DFF8D4
S31508001CB014650020F0723070DFF814753878A0B11A
S31508001CC02878122818BF0C280BD1697801F007016B
S31508001CD0032902BF401910F8020C042804BF01208A
S31508001CE0F072A06F40F0010002E0A06F40084000CB
S31508001CF0A067307BDFF8E0847978A1B100217173A1
S31508001D00216D41F004012165012808D1DFF8CC04D2
S31508001D104FF6FF7101604FF40070C8F80000FFF736
S31508001D2098FF81460CE0216D21F0040121654FF0F2
S31508001D300009012804D100F085F96420FFF7F9F9B4
S31508001D40A06F20F00800A0671420E064C4F848904B
S31508001D50787830B1307B002801BFA06C00280120BC
S31508001D60A064B8790028206D14BF40F0080020F060
S31508001D7008002065202020626560256060687F3045
S31508001D806060042020624FF4C060DFF854140860D5
S31508001D9009E0EFF31181602905D3002181F3118849
S31508001DA0602181F31188DFF83C14096801F003010A
S31508001DB00329EED0C8F80000206D40F00100206528
S31508001DC00020BDE8F2832DE9F041DFF81C44606885
S31508001DD0616C01EA0005ADB26560DFF8E86370780A
S31508001DE000285CD1DFF8E883DFF8E873E80719D53F
S31508001DF03868396C7A6C42EA0141B16198F800207A
S31508001E0062B14078800609D5012030704FF48050C1
S31508001E102060206C40F48050206403E000220020FB
S31508001E2001F088F828060CD5307830B100203070DB
S31508001E300022B169402001F07DF8206C20F4805022
S31508001E40206468062DD4E80621D5707B401C707383
S31508001E5098F80210C0B2884212D2B86F20F0080073
S31508001E60B8671420B866FFF7F4FEB864DFF86803AD
S31508001E704FF400710160386D40F00100386506E0E6
S31508001E80FFF7FCFD002201468D2001F053F82807D4
S31508001E9005D5386C796C41EA004001F09BFCA80630
S31508001EA001D500F037FF707820B115F4407F04BFE4
S31508001EB00120B070BDE8F08170B582B00546FEF726
S31508001EC064FFDFF8280300210160DFF8FC421521D2
S31508001ED0E160092101651F21416001210166FEF7C4
S31508001EE042FEFEF7E6FDFFF760FC01F0EFFC00F0AE
S31508001EF000F9DFF8D062F08900F021F9308A00F0A5
S31508001F0026F9606840F040006060707900F0D9F802
S31508001F10B07900F0E2F8307900F002F9DFF8D00283
S31508001F2090F90000FEF76CFFF07800F033F996F9A7
S31508001F30070000F03BF9307A00F011F9707A00F0EA
S31508001F401AF902237F22DFF8AC02018800A8FFF7FE
S31508001F503FF8BDF80000C0054CBF0020BDF80000E2
S31508001F60DFF894120870DFF894020078FEF70FFF86
S31508001F7008B100F0CFFE012D05D12068C0070FD5A6
S31508001F8000F026F80CE05DB92068C00708D4206880
S31508001F9040F001002060C820FFF7CBF8002030731E
S31508001FA08E4DF120286440F2F910E863FFF7E4FB50
S31508001FB089484FF4807101602168C90705D54FF635
S31508001FC0FF7129604FF4C061016000F0DDFA73BD4E
S31508001FD08B4A13687B48017B012900D1704730B5CD
S31508001FE0EFF31181602484F3118848F2D004146059
S31508001FF055686D0509D548F2220515605568ED0541
S31508002000F5D5146055686D07F1D49BB21360744A10
S315080020104FF4C06313607B4A136A5B085B00136264
S3150800202013685B085B001360136843F002031360D0
S31508002030536A43F00103536201220273C9B281F362
S31508002040118830BD5F48017B01B9704738B5EFF399
S315080020501184602181F311886B4901220A605B4D66
S31508002060296D41F00101296500210173FFF784FB01
S3150800207020202860286B40F002002863E86D40F0B5
S315080020800800E865E4B284F311880A20FFF751F8DE
S3150800209052484FF6FF7101604F484FF4C061016026
S315080020A031BD4848007B70475848006880020014D4
S315080020B09A386FF07F0201B29142B8BF104640B21B
S315080020C07047534900280A6814BF42F0120222F0EA
S315080020D012020A603B49487170474D4900280A6850
S315080020E014BF42F0800222F080020A6035498871E6
S315080020F07047484848494A780B7813EB0222026031
S31508002100CA788B7813EB022242604A790B7913EB73
S3150800211002228260CA79897911EB0221C16070476F
S315080021203B4900280A6814BF42F0200222F0200228
S315080021300A602449087170472248C08970472149B6
S31508002140C8813649086070471E48008A70471D498D
S315080021500882334908607047324800787047184942
S3150800216000280A6814BF42F4005222F400520A609A
S31508002170144908727047194928B108220A600A6C7E
S3150800218042F0080202E00A6C22F008020A640D49CD
S31508002190487270470C4900280A6814BF42F00202C8
S315080021A022F002020A600749C870704700F19A01D6
S315080021B08905090C1C4A11600249C871704700005C
S315080021C040A00040EC040020802000403020004061
S315080021D0CC0400201020004000E100E004A00040EC
S315080021E080E100E0A820004000A000405C1000400C
S315080021F0B8040020F0020008B4040020AC04002053
S315080022001C10004060200040281000400C100040C0
S315080022108420004098200040900E00209420004022
S3150800222090200040080500205410004038B51E28AC
S315080022303CBFBDE83240FEF77CBFDFF890130A6862
S31508002240D20704D54A6812B11821401F11E00A685E
S31508002250D20704D54A6812B90C210A3809E00A6877
S31508002260D20704D4496811B10C210F3801E00621C0
S315080022701438EFF31184602282F3118872B6DFF8FE
S31508002280502307231360002353609360DFF8443319
S315080022904FF000751D6080B24843401E5060FEF73F
S315080022A0E9F962B6E4B284F3118831BDC848002161
S315080022B041608160016821F002010160C648002181
S315080022C00170417801290BD1C44901220A60C44929
S315080022D00968C90748BF032106D40221417070E086
S315080022E04178042901D105214170704710B5B749D5
S315080022F00A68D20704D54A6812B11821401F11E0AE
S315080023000A68D20704D54A6812B90C210A3809E0C6
S315080023100A68D20704D4496811B10C210F3801E0C4
S3150800232006211438AA4A07231360002353609360D2
S31508002330A84B4FF000741C6080B24843401E5060A2
S3150800234010BD2DE9F0410024A64D2C60A64E346040
S315080023504FF4A040706041F29A084046FFF766FFC6
S31508002360686844F69041081A00B24FF4487190FB29
S31508002370F1F000F3030030604046FFF757FF0827E7
S315080023804046FFF753FF686804197F1EF8D197483F
S31508002390211DC908B0FBF1F080B27060BDE8F0817C
S315080023A038B56FF00F04924D0120A8602C6080208C
S315080023B0FFF73CFFE868FF2802D8641C102CF5DB01
S315080023C031BD8C48016841F0010101608A48042149
S315080023D001608A480160704710B57F4C0020E070A4
S315080023E08748816901F00301032906D1002020707E
S315080023F000F080F80120E07010BD0F210160022175
S315080024008161012060706420BDE810406EE76F4866
S31508002410016841F00101016001214160EFF311817A
S31508002420602282F31188406800F0010040F0100035
S31508002430744A1060C9B281F31188704710B56649AD
S31508002440CA886F484FF6FF739A421ED10222CA8085
S315080024508269920703D4826942F0020282610122EC
S315080024600A70C98801605A4907220A6000224A6030
S315080024708A60584A4FF0007313608269D20727D5DD
S31508002480C2692AB348F69F4031E083699B07E2D5C3
S315080024900B786BBB836813F00103846803D10F2A9A
S315080024A008D2521C06E0A40704D50C7914B1032AF5
S315080024B028BF521E0B7192B2022A38BF0222CA8066
S315080024C00268CB889A42CAD1FFF7A1FF012010BD46
S315080024D08269D20701D5C26922B18269D20704D4BA
S315080024E0C06910B144F24F6001E042F227304860FB
S315080024F0002010BD38B5EFF31184602080F31188F1
S3150800250072B6FFF79BFF050008BFFEF7B3F862B681
S31508002510E4B284F31188002DEDD031BD38B52E4CC8
S31508002520E07880BB0EE0EFF31185602080F3118818
S3150800253072B66078032818BFFEF79CF862B6EDB24B
S3150800254085F3118860780328EDD12D48E18801606C
S31508002550A17879B12C4A536D43F00103536513688A
S315080025608568ED07FBD51568ED1A2D032D0BB5EB20
S31508002570510FF5D3FFF74BFF042060704FF4C87076
S31508002580BDE83240B2E631BD20480068800600D476
S31508002590704738B5104CE078B8B90EE0EFF31185FE
S315080025A0602080F3118872B66078052818BFFEF798
S315080025B061F862B6EDB285F3118860780528EDD129
S315080025C000202070BDE8314094E731BD1C40004032
S315080025D010E000E004ED00E00004002018A0004030
S315080025E00C400040104000400C0000400060E3161C
S315080025F00840004058A0004080E200E000E100E00A
S315080026000440004000800040382000402C00004074
S3150800261026490A68920992010A600A681043086006
S3150800262023484FF400410160002101606420FEF751
S3150800263080BD2DE9F84380461E4DD5F800902868E0
S3150800264040F400402860194F386820F480503860FC
S31508002650194C207868B11948A178627800EB820293
S3150800266012F82A2C891A00EB880010F82A0C46184A
S3150800267002E0202601202070B0B2FFF7C9FF386BB0
S31508002680042805D0386B400754BF761E761CF3E73E
S31508002690F86A30B184F80180A6701FFA89F02860BC
S315080026A001E000F037FBBDE8F1830000D0100040E0
S315080026B0181000401C100040A70E0020400F00080C
S315080026C04FF4FE52810189B20C20FEF71AB92DE9A2
S315080026D0FE4F81468846A74CA06880B202904FF00C
S315080026E0000A00254FF00A0B012601962768BFB29B
S315080026F04FF6FF7251460C20FEF7FCF820F4FE5008
S3150800270000EB8911ADF8001000EB8810ADF8020057
S31508002710BDF8009000F064FAB0202063DFF8588214
S31508002720D8F80000C4F834900220A0620020A06205
S315080027300120A8409149084214BFBDF80090BDF891
S315080027400290681CC5B2202D28BF0025E06A002823
S31508002750FCD1019880B1F81E864202DAF01C86B2D6
S3150800276013E03E4607F5004020600621092000F0E8
S31508002770FBF9002001900BE0D8F80000000707D508
S31508002780042EA6BFF01E86B2002606F5004020607D
S31508002790BAF11A0FA8BF6FF0090B04DA1AF1190F6C
S315080027A0B8BF4FF00A0BDA440FFA8AFA0298504477
S315080027B0A060D8F800000007B4D5012EB2DA019857
S315080027C00028AFD10298A06027600820C8F800004A
S315080027D06B48006880B2BDE8FE8F10B569494FF0B6
S315080027E0FF32634B1C7864B1002819BF4A606648FB
S315080027F0486041F211100860D9889888BDE81040F1
S3150800280065E7002819BF4A600A604860086000F05A
S31508002810E7F906210920BDE8104000F0DBB938B514
S315080028200120FFF7DAFF04460020FFF7D6FF05462A
S315080028300120FFF7D2FF4042001B00EB450000B223
S3150800284032BD2DE9F04F83B0504CA06AADF80400B4
S315080028502068ADF802004E4D2868ADF80000444ED9
S31508002860307858B14FF6FF7200210820FEF742F87B
S315080028708046C022C0210820FEF743F8454F464847
S31508002880007810B148F2607038600220A06201201A
S31508002890206040F24C40FEF74CFC0120E8602860BE
S315080028A0708840F4404040F04C00F8630020B08047
S315080028B04020F080307800B12020FFF701FFFFF7B5
S315080028C0AEFF83464020B0807F20F0803078002815
S315080028D014BF60207F20FFF7F3FEFFF7A0FF8146B5
S315080028E03078002814BF4FF0C00A4FF0FE0A584649
S315080028F000F0E8FF00FB0AFAABEB090B307860B191
S31508002900484600F0DFFF8146584600F0DBFF80B2FC
S315080029100AEB8911B1FBF0F005E0584600F0D2FF4A
S3150800292080B2BAFBF0F080B2401C4FEAC0390020F2
S31508002930F863BDF8000028600020E86002202060E7
S31508002940BDF802002060BDF80400A062307830B1FE
S315080029504FF6FF721FFA88F10820FDF7D2FF40F202
S315080029604C40FEF7E6FB4FEA1940BDE8FE8F000033
S31508002970980E0020C010004018A0004071A371A353
S315080029800070004038100040EEEEFFFF6020004067
S3150800299028100040D0100040AD0400203F2241001E
S315080029A089B201E03F2201460220FDF7AABF2DE9C0
S315080029B0F04F93B0564CE06CADF808002068ADF8BF
S315080029C00600544DE86AADF804004FF6FF72002180
S315080029D00120FDF78FFFADF802004FF6FF720021C8
S315080029E00B20FDF787FFADF800004FF4004020608C
S315080029F000202861686148F2020000F08DF84CF664
S31508002A008C30E06448F2F000E8624FF480521146D8
S31508002A100120FDF776FF4FF6FF7200210B20FDF728
S31508002A2070FF0621062000F0D5F8804600F087F8EA
S31508002A3083464CF69C30E0640020FFF7AFFF062182
S31508002A40084600F091F80026B0B2FFF7A7FF062166
S31508002A50062000F089F800F09FF803A921F816006F
S31508002A60761C202EF0DB00F097F81020FFF796FF73
S31508002A7000F065F8A0EB0B00BDF82C10A1EB0801DF
S31508002A80404301FB01094FF0100A112700F050F8E6
S31508002A9000F055F800F045F805DB81461FFA87FA7D
S31508002AA07F1C202FF2DB504610280ED10F2700F08E
S31508002AB03FF800F044F800F034F806DB81461FFAC8
S31508002AC087FA781E07B2002FF1D5BDF80800E06432
S31508002AD0BDF806002060BDF80400E8624FF6FF72F4
S31508002AE0BDF802100120FDF70CFF4FF6FF72BDF886
S31508002AF000100B20FDF705FF01202861002000F0DB
S31508002B000BF84FEA4A00C0B213B0BDE8F08F0000D8
S31508002B10C010004018100040286040F24C40FEF7F4
S31508002B2008BBA0EB0B00404306FB06004845704770
S31508002B3003A830F81700A0EB0806B8B22EE706215E
S31508002B40072000F047B850F8041B61B150F8042B71
S31508002B50D30744BFA9F101039A18002342F8043B9E
S31508002B60091FFAD1EFE7704710B5314A136C23F005
S31508002B7008031364EFF31183602484F311880903AF
S31508002B8041EAC01040F001002A4908600820106098
S31508002B90DBB283F3118810BD10B5254C11E072B66F
S31508002BA0254804210160206C40F008002064FDF7E8
S31508002BB061FD206C20F00800206420480421016093
S31508002BC062B620680007EAD5082020601C4800681D
S31508002BD080B210BD80B5FFF7C7FFBDE80140DBE74F
S31508002BE0144801684908490001607047F8B5074666
S31508002BF0FEF75EFA044639460320FFF7EBFF054663
S31508002C0039460120FFF7E6FF064639460020FFF75A
S31508002C10E1FF08490A68520852000A60401B00048E
S31508002C20711BB0FBF1F060434000000CF2BD0000E0
S31508002C3018A000400470004000E100E080E200E0D7
S31508002C400070004080B5FFF7F9FB2E48016821F0B7
S31508002C50100101600020FEF7FFF9FDF76CFDFEF795
S31508002C60EBF9FDF73BFAFFF745FCFFF799FBBDE8E3
S31508002C70014000F049BEFDF71FBA80B5FFF7ACFB6F
S31508002C80FDF759FDFEF7D8F9FDF728FABDE801402A
S31508002C90FFF744BC81B209B94BF6EF611A4A1180B5
S31508002CA0000C08BF4FF6CE205080704702881304E8
S31508002CB048BF4A40510001801046704738B5124C4B
S31508002CC062212046FFF7F2FF054641F20B01A01CE0
S31508002CD0FFF7ECFF684032BD00F044BE80B500F057
S31508002CE07DFE40B202BD09480168C90708D50849F2
S31508002CF003220A70016C4908490001640121016038
S31508002D007047000000BC00402004002018A00040C6
S31508002D1001040020012000F093BE7047B0B584B0CE
S31508002D20034608460A2100248DF80A400DF10904D5
S31508002D30491EC9B20A2592FBF5F505EB8507A2EBF4
S31508002D404702303204F801292A46012AA8BF012978
S31508002D50EEDA002200AC091900F087FE08B9FFF781
S31508002D60D9FF04B0B0BD10B450F8041B81B1026895
S31508002D701218001D50F8043BDC0744BFA9F10104F2
S31508002D80E31852F8044B43F8044B091FF9D1EBE753
S31508002D9010BC70473248018A40F6A772914202BFBA
S31508002DA0418A4FF47F40014204D102298041C04341
S31508002DB0C00F7047002070472DE9F0410446884649
S31508002DC0EFF31186602080F31188244F01203870B4
S31508002DD0FFF7E0FF20B97F2200F044F8FFF79DFFD8
S31508002DE01F48856A414644F48070A847F6B286F3C0
S31508002DF01188002139700FF2181618B9414644F4A3
S31508002E000070A847805DBDE8F0812DE9F0410446D1
S31508002E1088465600EFF31187602080F31188FFF784
S31508002E20B9FF20B9A72200F01DF8FFF776FF0C4876
S31508002E30456A0023324641462046A847FFB287F333
S31508002E4011880FF2CC0720B93346002241462046A6
S31508002E50A847C05DBDE8F08100000000A00E002074
S31508002E60000004080FF214010FF20400FFF756BF22
S31508002E70766572696679466962282900433A5C551F
S31508002E80736572735C6468616F756164695C5246E8
S31508002E905C53544D33325731303878785F70726FDF
S31508002EA06A656374735C53564E5F776F726B696EAF
S31508002EB0675F636F70795C53544D333257313038DE
S31508002EC078785F52465F4C69625372635F6C6173D0
S31508002ED0745C5574696C69746965735C53544D33D5
S31508002EE0325731303878785F48414C5F447269769A
S31508002EF065725C6D6963726F5C636F727465786D19
S31508002F00335C68616C5F666C6173682E63000000F1
S31508002F10000202024B4B4647FFF794B8FFF758B832
S31508002F20FDF763BFFDF769BFFEF711BEFDF727BFC3
S31508002F30FEF7AEBE00F0C2BBFDF762BFFDF7D8BF15
S31508002F40FFF7BFB8FFF7C9B8FFF7F9B8FFF7F4B846
S31508002F50FFF7FDB8FFF7F8B80BE000F037BCFEF74F
S31508002F608DBD00F039BC00F065BCFFF79DB8FEF7D3
S31508002F7088BD0848704738B5074C2068216C01EAB7
S31508002F800005ADB2680748BF00F022FC256031BDD8
S31508002F9000000000900E002008A0004070B582B026
S31508002FA0044615460819A0F10806FFF7D5F820B11A
S31508002FB02078032824BF801E2070F078FEF742FE92
S31508002FC096F90210663149B200910346707900F00D
S31508002FD00F00B179090241EA0040F17941EA00029D
S31508002FE02946204600F098FB73BD0000FF2150B12A
S31508002FF0402806D08D2802D08F2804D004E0E1218D
S3150800300002E0E92100E000210846704780B5014644
S31508003010002011B9FFF77EFE401C21FA00F2D20704
S31508003020FAD5C0B202BD5A30C0EB00203C2190FB55
S31508003030F1F0C0B2704710B5DFF874470020207071
S31508003040A070FFF76FFF2071042060700820607180
S315080030500020A0710220A074FFF77CFFA083FFF771
S3150800306075FFA082DFF84C07FF2101724F214172DC
S3150800307000214181CE21017301214173083020626C
S315080030800620A0772046BDE810406AE280B5DFF842
S31508003090201703220A7004224A7008224A71002265
S315080030A08A7008718A74022088714FF6FF70088248
S315080030B00881DFF80007072202720830086201203B
S315080030C08877084600F092F900B1022002BD10B5D3
S315080030D082B00120FEF7F0FE0120FFF731FF012044
S315080030E0FFF730FF012100A8FFF741FFBDF80000F8
S315080030F0FFF7D0FD4FF6FF742046FFF729FF20465D
S31508003100FFF722FFDFF8B00600210170DFF8AC06F2
S3150800311041800181C160016113BD7CB5DFF8985615
S3150800312000212970DFF89446B8B14FF6FF7630468D
S3150800313000F092F8304600F095F8032000F0E9F820
S31508003140042000F0F3F8002000F0B8F80F2000F093
S31508003150CDF800202870208125E001A9502000F034
S31508003160DAFE01A9502000F025F80DF102015320DE
S3150800317000F0D1FE0DF10201532000F01BF800A962
S31508003180522000F0C8FE00A9522000F013F89DF85E
S31508003190000020729DF8000060729DF8000010B1D2
S315080031A0FFF7BAFE01E0FFF7B9FE00206080E06095
S315080031B0206176BD10B5002450B14E2814D0502891
S315080031C00ED0522818D0532806D0592810D017E008
S315080031D0087800F08BF814E0088800F043F810E04F
S315080031E0088800F039F80CE0087800F09FF808E045
S315080031F0087800F08EF804E0087800F05FF800E040
S31508003200F424204610BD38B50C46002550B14E288A
S3150800321012D050280CD0522816D0532805D0592839
S315080032200ED016E0FFF77EFE11E0FFF78FFE01E0F5
S31508003230FFF790FE20800DE0DFF87C05807906E038
S31508003240204600F06FF805E0DFF87005007A207078
S3150800325000E0F425284632BD01B5FFF779FE00A93E
S31508003260502004E001B5FFF76FFE00A9532000F0D7
S3150800327060FE01BDFFF770BE704710B5044604F145
S315080032802B00C0B2342808D2FFF758FEA04204D05B
S315080032902046BDE81040FFF74FBE10BD10B50446E6
S315080032A0FFF74CFE207010BD10B5DFF81045607AA8
S315080032B018B9FFF731FE0120607210BD01B5DFF8BD
S315080032C0FC049DF80010017200A95220CFE710B542
S315080032D0DFF8E844217A21B90001E06000F072FEC7
S315080032E0206110BDDFF8D404407A704701B582B07A
S315080032F0FFF718FE8DF800009DF8081088421CBFDD
S315080033009DF80800FFF70CFE02A9002000F011FE48
S3150800331007BD01B5DFF8A4049DF80010417000A9A7
S315080033205920A4E70146592000F0F5BD01B5DFF89C
S3150800333088049DF80010817100A94E2097E711B501
S3150800334081B000A9612000F0E6FD9DF804009DF813
S315080033500010884203D001A90020FFF72BFFFFF7D2
S3150800336004FE04469DF804009DF80010884203D028
S3150800337000A90020FFF71EFF204616BD30B5002223
S31508003380DFF834341C780CB101220EE0DFF8304443
S31508003390DFF830542840206001208840401C4FF454
S315080033A070514843606007201870104630BDF8B564
S315080033B007460D460024DFF80064307808B101247A
S315080033C012E04FF6FF70FFF747FFDFF8F403DFF868
S315080033D0F413394001600121A940491C4FF4705289
S315080033E051434160062030702046F2BDF8B50446C8
S315080033F00025FFF759FFDFF8C00301218172207904
S31508003400FFF774FF94F90500FFF737FFA07810B1AE
S31508003410E078FFF77EFFDFF8A463A07830702078A5
S31508003420ADF80000A07828B1BDF8000040F02000F3
S31508003430ADF80000A07CBDF80010A279830343EA2A
S3150800344082221143ADF80010276A022802D0032809
S3150800345008D010E06FF0010504F11400B91E00F061
S315080034607BF808E06FF00705082204F11401A7F1BC
S31508003470080000F077FAA07C022813D3A079022866
S315080034800AD3A08B218A884206D1BDF8000040F0F5
S315080034904000ADF8000005E0AD1E6DB204F11C0059
S315080034A000F059F8A079022802D0032807D00EE0C8
S315080034B0AD1E6DB204F1080000F04DF807E0083DB6
S315080034C06DB2082204F10801E81900F04BFAA07958
S315080034D0022805D3AD1E6DB204F1100000F03BF8CA
S315080034E0207820B1012818BF032803D006E0E81980
S315080034F0B17801E0E819F17800F8011CE81E40B23D
S3150800350000A9C2190B7813704B785370A17F091A5A
S31508003510891C02F8011C451E6DB26078FFF706FF8C
S31508003520E8197060002000E0401CE95DC0B28842DE
S31508003530FAD3E819FFF7FCFC217821B1012918BF55
S31508003540032904D0F2BDB178491CB170F2BDF178F7
S31508003550491CF170F2BDE91902780A7042784A707E
S31508003560704710B5944C217809B1012010BD02218D
S315080035702170FFF73BFF10B10021217010BD4FF4F9
S31508003580817010BD71B581B001268B4C8C4D9DF8AC
S31508003590040050B1042832D0052871D006284AD034
S315080035A007281BD009285DD073BD844C207A0128D2
S315080035B011D0E06828B1206900F00AFDE16881426F
S315080035C009D2607A012803D1FFF7A8FC00206072AF
S315080035D00020E06073BDBDE8734065E6286818B949
S315080035E0002100F015FE2BE0FFF710FD00F052F861
S315080035F06FF07F00687200F0E5FCE86019E0E868A3
S3150800360000F0E6FC6968884206D395F90910287A1D
S3150800361000F0FEFD07203BE0FFF746FE287AFFF79D
S315080036207FFCFFF7A2FC95F909108142B8BF014655
S31508003630697204202CE0286820B9002100F003FEF6
S31508003640002025E0002129746961FFF7DFFC00F0FE
S3150800365021F800F0B7FCE86009202070287AFFF707
S3150800366015FD0AE0287CA0B16869002801BF05207D
S315080036702070287C00280CD0686950B1062007E025
S31508003680E86800F0A5FC696888422CBF062005207A
S31508003690207073BD2872296806FA00F021EA000036
S315080036A02860704780B5FFF73FFC08B1FFF73EFC7E
S315080036B0414800680090FFF765FF01BD10B5FFF7A8
S315080036C095FC3D4C2178092905D13D49C0B2486190
S315080036D00120087410BD082903D10120A07200201A
S315080036E011E0022917D1C0B278B1E92818BFE1283C
S315080036F00BD132494A7842B1501E48704868FFF7E4
S3150800370017FC10B90220207010BD00212170BDE8F9
S31508003710104000F0C1BD10BD10B58AB0044601AA1C
S31508003720611C207801F0C4F89DF930008DF822005C
S31508003730FFF779FC8DF82100FFF7F4FB8DF82300DD
S315080037402178601C01F01FF958B100A95020FFF735
S315080037505AFDBDF800004FF6FF71884218BFFFF703
S315080037606AFCBDF804000721084202BF1248007827
S31508003770052805D1BDF812109DF8230000F063FD59
S31508003780BDF8040000F0070001280ED1BDF80400BA
S31508003790800A00F00300022822BFBDF80400800B4F
S315080037A0022824BF01A800F09CFD0AB010BD000045
S315080037B05C0800204C080020C804002038080020B7
S315080037C02008002000F8FF070020704700207047F7
S315080037D0704770477047000038B50446274D2146A4
S315080037E000F055F8E860211D00F051F8A86004F1D2
S315080037F0080100F04CF8686004F10C0100F047F885
S31508003800286031BD38B504461C4DEA68214600F0EB
S315080038103BF8AA68211D00F037F86A6804F1080128
S3150800382000F032F82A6804F10C010020BDE838409F
S3150800383001F0F1B8F8B50446114D80202860114E04
S31508003840062030600720286030688007FCD50027EE
S3150800385004EB870100F01BF8A8627F1C042FF7D33E
S3150800386030684007FCD500262A6B04EB860100F079
S315080038700BF8761C042EF7D3F1BD00003830004053
S315080038800030004010A00040002001F0C4B800201D
S3150800389001F0CFB87FB504460D46EFF311866020D8
S315080038A080F3118800A8FFF7ADFF2846FFF794FFBD
S315080038B02046FFF7BFFF00A8FFF78EFFF6B286F394
S315080038C011887FBD002848BF4042704708237F22E1
S315080038D0024801880248FDF77BBB00BFF2020008D8
S315080038E0900E002010B582080FF2600353F82220CC
S315080038F0136800F0030080000F248440A34301FAF4
S3150800390000F01843106010BD80B50B481021016007
S315080039100A48022101600A484FF400610160FEF777
S3150800392010FD08480721016000210164064810219E
S315080039300160002002BD000080E100E008000040B0
S315080039400C60004014A0004000E100E000B0004018
S3150800395004B0004000B4004004B4004000B8004081
S3150800396004B8004062B38B0708D0521E11F8013B19
S3150800397000F8013B00F024808B07F6D1830740F05E
S31508003980208000BF103A07D330B4B1E83810103A97
S31508003990A0E83810F9D230BC530724BFB1E80810A4
S315080039A0A0E8081044BF51F8043B40F8043BD2078E
S315080039B024BF31F8022B20F8022B44BF0B78037082
S315080039C07047083A07D3B1E80810083A40F8043BAC
S315080039D040F804CBF7D25307E4E7000003000020C1
S315080039E013F0030F09D0521E22BF13F8010B11F86A
S315080039F001CBB0EB0C00F3D07047121F22BF53F86F
S31508003A00040B51F804CB6045F7D0121D0AD200BA50
S31508003A109CFA8CFCB0EB0C0038BF6FF0000088BF36
S31508003A2001207047521E22BF13F8010B11F801CB73
S31508003A30B0EB0C00F6D0521C08BF104670470000C9
S31508003A40C046C046024A11001820ABBEFBE700BFBD
S31508003A502600020010B5044603E014F8010B00F036
S31508003A60FCFF20780028F8D110BDF8B504460D46AD
S31508003A7016001F460AD00FF24400FFF7EBFF304648
S31508003A80FFF7E8FF0FF24400FFF7E4FF2046FFF7D1
S31508003A90E1FF0FF24000FFF7DDFF2846FFF7DAFFE8
S31508003AA00FF23400FFF7D6FF3846FFF7D3FF0FF2C1
S31508003AB02C00FFF7CFFF0020F2BD0000496E2066FC
S31508003AC0756E6374696F6E2000000000202D2D202E
S31508003AD0000000003A00000020000000202D2D20E4
S31508003AE0617373657274696F6E206661696C65646B
S31508003AF00A0000000022DFF8BC34002800F0AC8081
S31508003B004E2800F09A80502800F09280522800F043
S31508003B109E80532800F08780592800F093806028FB
S31508003B2028D061282AD062282DD0632830D064286E
S31508003B3033D0652836D0662839D067283CD068281F
S31508003B403FD0692842D06A2845D06B2848D06C28CF
S31508003B504BD06D284ED06E2851D06F2854D090285F
S31508003B6057D091285AD0922802BF0120088003F224
S31508003B70F20275E0042008809A1C71E00120088092
S31508003B8003F206026CE00120088003F2070267E0F0
S31508003B900420088003F1080262E00420088003F18B
S31508003BA00C025DE00420088003F1100258E00120B1
S31508003BB0088003F1140253E00120088003F215027D
S31508003BC04EE0B920088003F2160249E00120088079
S31508003BD003F2CF0244E00120088003F1D0023FE05F
S31508003BE00120088003F2D1023AE00120088003F29E
S31508003BF0D20235E00420088003F2D30230E0012027
S31508003C00088003F2D7022BE01020088003F1D802BF
S31508003C1026E00220088003F1E80221E00820088057
S31508003C2003F2EA021CE00220088003F2F30217E01E
S31508003C300220088003F2F50212E00120088003F250
S31508003C40F7020DE00120088003F1F80208E00120E0
S31508003C50088003F2F90203E00120088003F2FA0261
S31508003C60104670472DE9F84F07464420FDF79AFBA2
S31508003C700446DFF844532878002831D1A01CDFF821
S31508003C803463B11C04F1080206F1080304F2CF0CF0
S31508003C9006F2CF0E40F20148502F6FD0532F68D04E
S31508003CA0602F1ED0612F21D0622F22D0632F24D0FF
S31508003CB0642F25D0652F26D0662F2AD0682F66D088
S31508003CC0692F29D06C2F2CD06D2F2FD06E2F32D084
S31508003CD06F2F35D0902F39D0912F3CD0922F43D0CB
S31508003CE0A7E0D6F80200D4F802104BE0097900796B
S31508003CF001E049794079814245E0B068A16841E030
S31508003D00586851683EE098689168401A4045E7D37C
S31508003D103AE0187B117B35E096F8CF0094F8CF107F
S31508003D2030E09EF803009CF803102BE0DEF8040050
S31508003D30DCF8041026E09EF808009CF8081021E03C
S31508003D40102204F1D80106F1D80009E0B6F8E80017
S31508003D50B4F8E81016E0082204F1EA0106F1EA00D0
S31508003D60FFF73CFE00280EE096F8F20094F8F210F1
S31508003D7008E0B6F8F300B4F8F31003E0B6F8F50077
S31508003D80B4F8F510884254D00120287051E0002775
S31508003D90252000FB07F909EB040A09EB060BBBF81B
S31508003DA01600BAF8161088421CBF0120287008228F
S31508003DB00AF119010BF11900FFF710FE08B10120ED
S31508003DC02870BBF82100BAF8211088421CBF0120D0
S31508003DD028700AF22100BBF82310428891421CBFC2
S31508003DE00121297009EB060191F825100079814215
S31508003DF01CBF01202870DBF82600DAF82610401AC6
S31508003E00404524BF0120287010220AF12A010BF12F
S31508003E102A00FFF7E3FD08B1012028709BF83A0055
S31508003E209AF83A1088421CBF012028707F1C052F7B
S31508003E30AEDBBDE8F18F38B50024FC2000905E4863
S31508003E4004700098C00701D5FEF764FF594DFC229F
S31508003E5044212846FDF737FA28884FF6016188423B
S31508003E6002D000F077F80446204632BD38B500F097
S31508003E7071F8002842D14F4C6FF07F40C4F8020019
S31508003E80A01C0F210171FF21417143F2D400A060EB
S31508003E9004F108000021416001218160002181812F
S31508003EA0FF22B92104F1160000F0ECFD012084F888
S31508003EB0CF0004F2CF05042068700320A870E870CC
S31508003EC041F66A0068600620287207220FF2EC01A4
S31508003ED004F1D800FFF756FD4FF6FF70A884E88472
S31508003EE0042084F8F70004F2F7000321417000214A
S31508003EF081700F21C170BDE8314037E032BD10B581
S31508003F0082B000F005F808B9FEF704FF206013BD7B
S31508003F100C4600A9EEE510B582B0FFF7F9FF0100DF
S31508003F2001D1FEF7F7FEBDF800202046FFF71AFD7F
S31508003F3013BD38B504460D46FFF7EBFF08B9FEF783
S31508003F40E9FEBDF800202946FFF70CFD2046FFF7DD
S31508003F5089FE31BD10B5174CFF22FC21204600F022
S31508003F60C5FD4FF601602080BDE8104080B5FC22F3
S31508003F7044211048FDF76CFA0F4800210170002013
S31508003F8002BD10B582B0044600A99220FFF7C3FF10
S31508003F909DF80000A04201BF064800884FF601615F
S31508003FA0884201D0012016BD002016BD02480078BF
S31508003FB07047000080080020A20E00205354557355
S31508003FC06572000080B500F011F81048406802BD1F
S31508003FD010B5044600F00AF80C484068001B10BDEE
S31508003FE080B5FEF7BCFF0949086001BD80B5FEF73C
S31508003FF0B6FF06490A68824232BF821A00F5801364
S315080040009A1A4B68D2184A60086001BD7C090020DC
S3150800401010B51022DFF850182523DFF85048246819
S3150800402003FB00401430FFF7D9FCC0B210BD2DE9E0
S31508004030F0418CB00446884615464FF6FE70ADF83A
S31508004040040008F20606B0788DF8010007460DF15F
S3150800405006015320FFF7D7F8F80709D598F80000A6
S31508004060800905D000EB80000A308DF8000003E0D7
S3150800407000A96120FFF74FFFBDF80600ADF808005C
S315080040809DF800008DF80A0000F00EFC0DF10B00FB
S31508004090FFF768FCF80708D5E889ADF8130001A80A
S315080040A0317801707178417008E00DF102015020F5
S315080040B0FFF7A9F8BDF80200ADF81300BDF8040033
S315080040C0ADF815000DF101000DF1170102780A701F
S315080040D0002006901022DFF8901707A8FFF742FC89
S315080040E000F0BBFB90F824008DF82C0002A960B202
S315080040F000F0BBFD0CB0BDE8F081F8B51446012808
S3150800410002D003283ED07AE001F20505681C04F1C6
S31508004110090102780A70A81C04F10A0100F072F875
S31508004120291D04F10C00FFF71DFC05F10B0004F135
S31508004130140102780A700C26D00707D50F2205F15C
S315080041400C0104F11500FFF70DFC1B26207DC0F3BA
S3150800415041073A46711904F12500FFF703FCBE1919
S31508004160F6B2207DC0F302173A46711904F1290008
S31508004170FFF7F8FBB819C0B2401904F1310102780B
S315080041800A70F1BD01F20505E81C04F10E0102787A
S315080041900A70281D04F1100100F034F8A91D04F175
S315080041A01200FFF7DFFB05F10D0004F11A01027892
S315080041B00A700E26D00707D50F2205F10E0104F165
S315080041C01B00FFF7CFFB1D26A07EC0F341073A462A
S315080041D0711904F12B00FFF7C5FBBE19F6B2A07ED4
S315080041E0C0F302173A46711904F12F00FFF7BAFB1C
S315080041F0B819C0B2405DDFF878160870F1BDFEF751
S3150800420089FD00BF02780A7042784A700722704713
S3150800421010B5DFF860261268DFF85C361C68B4F55E
S31508004220803F02BF5B68DFF85446A3420AD110B943
S315080042300120107010BD0F38052390FBF3F0C0B2B3
S315080042408018817010BD10B5DFF828261268DFF8CF
S3150800425028361C68B4F5803F02BF5B68DFF8204645
S31508004260A34218D110B90120507010BD50791428F6
S3150800427011D2002000E0401C5379C0B2984204D203
S3150800428002EB4004E4888C42F5D1984203D1581CCD
S3150800429050719818817010BDDFF8D8150968DFF8D5
S315080042A0D8251268B2F5403F18BFB2F5802F11D055
S315080042B0B2F5A02F18BFB2F5C02F0BD0B2F5E02F7C
S315080042C01CBFB2F5002FB2F5102F03D0B2F5402F60
S315080042D002D07047086070470860012081F8B9006D
S315080042E0704710B50446DFF890050068B0F5402F12
S315080042F0204604BFBDE8104001F06CBB00F052FB3D
S3150800430018B12046BDE8104000E010BD2DE9F04F79
S3150800431085B004460027BA46D04694F81CB0A5696D
S31508004320287800F00301022906D140074CBF042073
S315080043300020ABF1050107E0012908D140074CBF71
S3150800434004200020ABF10601A1EB00090AE04107B1
S315080043504CBF04210021ABF10802A2EB010903219D
S31508004360084223D0E1892088800B022803D1208ABD
S3150800437000F013FC03E004F1100000F02EFC0646E2
S315080043802878400709D516F1010F06D0F2B259462A
S31508004390284601F0F1FC00B90127287800F003014E
S315080043A0022904D1F1B2204600F07CF876E0032910
S315080043B008BF4FF0040A400748BF4AF0020A4FF602
S315080043C0FF70E188814202BFA18881424AF0010A52
S315080043D016F1010F62D0252000FB06FB47B9DFF86E
S315080043E08C04006858440069D5F80110884255D2F3
S315080043F077B900A99220FFF78EFD9DF80000000707
S3150800440006D5287880091CBF00EB800000F10A0851
S31508004410002F43D1F0B2FFF7FBFD10B12878400713
S3150800442006D4F0B2FFF7F4FD70B9287840070BD42C
S31508004430052E09DADFF8340400685844D5F8011067
S3150800444001616820FFF70EFC01A8102101F07CFD30
S315080044508DF8046068798DF80500E888ADF80600DF
S315080044608DF80890607F8DF810008DF811A02878D7
S3150800447000F00301022908BF05F2050107D000F084
S31508004480030001280CBF05F2060105F108015FFAD1
S3150800449088F35FFA89F201A802F0C7F805B0BDE80B
S315080044A0F08F00002DE9F2418FB005462B7FAE69EB
S315080044B0A3F10800991F5A1FDFF8B8432468DFF8EC
S315080044C0B87396F805E0AEF1010EBEF1070F71D884
S315080044D0DFE81EF00800FF006D002F0161016B0187
S315080044E0CD008B013868B0F5403F21D1012084F812
S315080044F0E800687F84F8FB0000A80021002206C0B7
S3150800450004F2FE08082200A94046FFF767FA18B920
S3150800451000F0CAF9404603E000F0C6F904F58370D6
S31508004520FFF720FA04F1B40231460120FFF7E5FD52
S315080045303868B0F5003F3DD10DF102016720FFF75D
S31508004540EAFC0DF101016620FFF7E5FC00A96220EF
S31508004550FFF7E1FC9DF8020000282BD19DF8010029
S31508004560002800F07781687F9DF800108842C0F027
S315080045707181342101A801F0E7FC00F057FB0028FF
S3150800458014BF0020B1208DF8040001AA314601208D
S31508004590FFF7B3FD00F088F90DF10500FFF7E2F922
S315080045A0687F8DF83600342201A9B648FAE03868E3
S315080045B0B0F5003F40F04E81382101A801F0C4FC57
S315080045C000A96720FFF7A7FC9DF80000002877D10F
S315080045D0AD480078002873D001AA31460320FFF7BA
S315080045E08CFD00F061F90DF10A00FFF7BBF9E989C6
S315080045F0ADF808100DF10A0000F0EFFA044614F1C0
S31508004600010F1DD100F09EFA044614F1010F15D1D1
S31508004610B12001909D499DF81200C0070AD530784F
S31508004620800907D000EB80000A3008700198B1288D
S315080046300AD116E06120FFF76EFCF7E7002000E0DC
S31508004640B5200190052C07DA00F007F9012180F85A
S3150800465024106820FFF706FB2A463146E0B2FFF72A
S31508004660E6FC8DF83B40382201A989489AE038686B
S31508004670B0F5002F24D1012084F82301307800F00A
S315080046800301022905D140074CBF04200020591F09
S315080046900DE0012905D140074CBF04200020991FD1
S315080046A005E040074CBF04200020A3F10801081AC2
S315080046B004F2231188703078400702D4012048702C
S315080046C0C8E0002048708878421EB11D04F5937032
S315080046D0BEE03B68B3F5802F02BF7B686D4FBB42D7
S315080046E0EED1012384F8D630337803F00307022F7E
S315080046F005D158074CBF04200020101A0EE003F01D
S315080047000302012A05D158074CBF04200020081AC5
S3150800471004E059074CBF04210021401A421D3146C6
S3150800472004F1D700FFF71EF92022294604F5827006
S315080047302EE03B68B3F5E02F02BF7B68564FBB42BD
S3150800474028D1012384F8A630337803F00307022F13
S3150800475005D158074CBF04200020101A0EE003F0BC
S315080047600302012A05D158074CBF04200020081A65
S3150800477004E059074CBF04210021401A421D314666
S3150800478004F1A700FFF7EEF82022294604F1D80025
S31508004790FFF7F8F85EE03868B0F5003F5AD1012215
S315080047A00FA93E4801F011FF54E03868B0F5E02F34
S315080047B002BF78683A4988424CD1B07994F8851195
S315080047C0491CB4F85821891A884243D104F2FB00DF
S315080047D0502100915023F21D014601F0A4F9B4F8C6
S315080047E05801401EA4F8580134E03B68B3F5E02FA1
S315080047F002BF7B682B4DAB422CD1012384F8F830DD
S3150800480004F1F80335786D0702D40120587021E0C9
S3150800481000255D70337803F00305022D05D158078E
S315080048204CBF04200020101A0EE003F00302012AF0
S3150800483005D158074CBF04200020081A04E0590780
S315080048404CBF04210021401A421EB11D04F251102A
S31508004850FFF788F810B0BDE8F081252003490968FC
S3150800486000FB041070470000A80000088C0E00200A
S31508004870AA0E00201C050020D40400200300010015
S315080048800400010047590008DC040020AB0E002094
S3150800489035580008050004000400070019580008E8
S315080048A00600070008000700082205F110017047F6
S315080048B0F0B504460D46164628783070687870704C
S315080048C0A81CB11C02780A7003273088800A00F0F9
S315080048D00300022806D3E81C311D02780A704278C4
S315080048E04A7005273088800A00F00300022807D19D
S315080048F07819B11D02780A7042784A70BF1CFFB257
S315080049003088800A00F00300032806D108227919A6
S31508004910B01DFFF727F80837FFB23088810B022948
S3150800492012D3810A01F00301022904D3400602D5F5
S31508004930B088F08108E0781906F10E0102780A704D
S3150800494042784A70BF1CFFB23088800B022808D113
S31508004950781906F1100102780A7042784A70BF1C6D
S31508004960FFB23088800B032807D10822791906F18F
S315080049701000FEF7F7FF0837FFB27819B061E01BA1
S3150800498030770120F0BD027802F00702032A02BF41
S315080049900829C079072801D10120704700207047EF
S315080049A000000000017F80690278530718D412F0CE
S315080049B003022ED0022A05D002D3032A25D00FE0FF
S315080049C0062023E04079401E072822D8DFE800F0B9
S315080049D0040A0D1015181B1BA1F11400182818D26B
S315080049E001207047A1F1150004E0A1F1160001E0CD
S315080049F0A1F118001828F3D30BE00629F0DA08E02D
S31508004A00572906D1ECE70F29FBE70820401C81420D
S31508004A10E6DA0020704710B50023002814BF1C46AC
S31508004A20C3F10304E4B26254120A5B1C042BF4D3E8
S31508004A3010BD30B54A788B78CC78097818B12046FD
S31508004A401D460C4602E0084615461A4655EA002059
S31508004A5054EA022141EA004030BD10B582B004464E
S31508004A6014F1010F0AD08DF80000012200A90120D7
S31508004A7003F006FA012801D1204616BD4FF0FF3093
S31508004A8016BD000062F30F2262F31F42401810F0B1
S31508004A90030308D0C91A1FD3DB0748BF00F8012D46
S31508004AA028BF20F8022D130030B4144615461039D5
S31508004AB028BF20E93C00FAD8490728BF20E90C009E
S31508004AC048BF40F8042D890028BF20F8022D48BFAA
S31508004AD000F8012D30BC7047C91818BF00F8012D21
S31508004AE0CB0728BF00F8012D7047000062F30F229C
S31508004AF062F31F4200B500BF13009646944610396C
S31508004B0028BFA0E80C50FAD85FEA417C28BF0CC041
S31508004B1048BF40F8042BC90728BF20F8022B48BF16
S31508004B2000F8012B00BD000062496820FFF7E7B9CD
S31508004B30052806D225215F4A126801FB0020FF21BD
S31508004B4026E0704710B54FF0FF3000242521594A5A
S31508004B50126801FB042191F82420FF2A09D1052CAB
S31508004B6005DA012081F824006820FFF77BF8204643
S31508004B7002E0641C052CE9DB40B210BD052806D20C
S31508004B8025214C4A126801FB0020022100E07047EB
S31508004B9080F824106820FFF765B870B54FF0FF322B
S31508004BA000232524434D2D6804FB035404F20B050A
S31508004BB06E7EFF2E0CD06D88854209D14FF6FF75A3
S31508004BC0A9421CBFB4F80B408C4201D11A4602E038
S31508004BD05B1C052BE5DB50B270BD2DE9F843044696
S31508004BE088464FF0FF360027324D252000FB07F98F
S31508004BF02868484490F82410FF2911D00822214635
S31508004C00C01CFEF7EBFE58B94FF6FF7080451FBF74
S31508004C1028684844B0F80B00404501D13E4602E0FA
S31508004C207F1C052FE1DB70B2BDE8F2830020252149
S31508004C30204A126801FB002191F82410FF2901D1AE
S31508004C4001207047401CC0B20528F0D300207047E9
S31508004C502521184A126801FB002090F82400022832
S31508004C6001D1012070470020704738B50024052877
S31508004C700ADA25220F4D2D6802FB0050FEF772FE58
S31508004C806820FEF7EFFF00E0F924204632BD30B574
S31508004C900B460024052809DA25222521054D2D680D
S31508004CA001FB00511846FEF75DFE00E0F924204698
S31508004CB030BD00008C0E00200EB418B5DFF8284C65
S31508004CC0217841B103AB02467021201D03F02EF96D
S31508004CD0201D03F049F911BC5DF810FB70B5DFF82B
S31508004CE00C5CDFF80C6CDFF80C4C20780A2805D031
S31508004CF003D30C2844D0C0F08C8090E003F07FFAF0
S31508004D0008B90B208AE07078002806BF95F8C90014
S31508004D1000280C20F6D12079C007EED46078002848
S31508004D207DD0A07804281ED103F081FDEFF311850C
S31508004D30602080F31188FDF79EFF00F00CFC00F060
S31508004D4019FC4FF48051042004F05EF8FDF795FF36
S31508004D50EDB285F31188012003F078FD03F081F99F
S31508004D6003F06CF85BE0EFF31185602181F311889D
S31508004D704FF4805104F048F8EDB285F311884EE0FF
S31508004D80307811283BD01ED3132801D01FD31AE040
S31508004D9095F8C900002814BF681CB01C00F0E4F898
S31508004DA0010004D00FF61450FFF786FF07E095F8C8
S31508004DB0C90000281ABF002085F8C90070701120A4
S31508004DC0307003F074FA3078112828D125E003F002
S31508004DD035FA40B103F06BFA112030700FF6AC408B
S31508004DE0FFF76AFFEFE703F045FA08B913200EE06C
S31508004DF003F05DFA112030700FF6A840F0E77078DE
S31508004E00002804BF95F8C900002806D01220307083
S31508004E1005E000F006F8012801D10A202070207864
S31508004E2070BDFEB500208DF80000DFF8C04A207876
S31508004E30012806D0042813D0062835D008286CD0B7
S31508004E4090E003F0DCF90028FAD194F8CA0008B11A
S31508004E50012060E0C821601C04F066F804205AE0CE
S31508004E6003F02EFA00A9601C03F06BF938B108218B
S31508004E702170C4F8CC0001460FF65C300FE09DF8AF
S31508004E800000C9283CBFA078C6280BD3082020708C
S31508004E90DFF8640AC4F8CC0000210FF65C30FFF78F
S31508004EA00BFF5FE0062036E06078E178A2781219F9
S31508004EB0D278DFF8485ADFF8486ADFF8487AC02817
S31508004EC018BFD02803D0C22818BF38460DD12229CA
S31508004ED0A8BF304609DAFC2A18BF284605D1601C47
S31508004EE0DFF8242A52F821108847C4F8CC00DFF8E6
S31508004EF01C1A884204D10FF62830FFF7DDFE09E0B8
S31508004F00B8421CBFA842B04204D101460FF6303061
S31508004F10FFF7D2FE0820207024E0D4F8CC00C12187
S31508004F208DF8041001A904224A700022D30020FA41
S31508004F3003F301AD5519AB70521C042AF6DBFC20AD
S31508004F408871072101A803F094F8050004D02946C2
S31508004F500FF61430FFF7B0FE03F0B9F90120207000
S31508004F60C4F8CC502078FEBD4178C91CC9B203F0FC
S31508004F7080B8002070474178491EC9B200F2030282
S31508004F80DFF88809042900DA704730B585B0137848
S31508004F908DF8003053788DF80130931C0DF102041A
S31508004FA01D7825705D78657013798DF804308C1F2F
S31508004FB0A3420AD102F205000290881810F8010CE3
S31508004FC08DF80C0000A803F02BFB05B030BD407827
S31508004FD0401EC0B2082800D23FE000207047407843
S31508004FE0401EC0B2052800D237E00020704770B5D1
S31508004FF086B04178491EC9B200F20304DFF80C09ED
S3150800500007291FDB22788DF80020C2F34005C2F37A
S3150800501002167219521D914214D12A4600F09AF8C6
S3150800502032462819411C0DF10500FEF79BFC0422A7
S315080050307019401CC0B2011904A8FEF793FC00A819
S3150800504003F0B0FA06B070BD4078401EC0B20C2816
S3150800505000D202E00020704700BFDFF8B0087047B2
S3150800506070B588B000F203044078401EC0B20E281E
S3150800507038BFDFF8980834D300A821780170617822
S315080050804170A01C00F004F920798DF8040000F0A6
S31508005090F9F8611D0DF10500FEF764FC3246281982
S315080050A0411D0DF10900FEF75DFC7519681DC0B2BA
S315080050B0015D8DF81110001942788DF81220811CB7
S315080050C00DF11300FEF74EFC04229DF8120040195C
S315080050D0C01DC0B2011907A8FEF744FC00A803F0DA
S315080050E071FA08B070BD4078401EC0B2132800D2CD
S315080050F0B3E70020704770B586B000F20304407825
S31508005100401EC0B20D2838BFDFF8000820D320782B
S315080051108DF80000082200F01DF8607A8DF8090065
S3150800512000F0B0F804F10A010DF10A00FEF71AFCC6
S315080051303246281900F10A010DF10E00FEF712FC9D
S3150800514070190019807A8DF8160000A803F058FA2D
S3150800515006B070BD611C0DF10100FEF703BC407876
S31508005160401EC0B21A2800D277E700207047F0B573
S3150800517091B002A900220023144615463CC100F24C
S3150800518003044078401EC0B2022838BFDFF87C0707
S3150800519042D3252106A800F0D7FE20788DF8000016
S315080051A060788DF801009DF8000068280CBF06A8F5
S315080051B002A8019000A803F067FA0446DFF82C5706
S315080051C0012085F8C900C0206870681C0B21817011
S315080051D09DF80010682902D06F290BD013E026210C
S315080051E04170252206A9281DFEF7CCFBFC2085F870
S315080051F0290010E01121417002A92A1DE8C9E8C258
S31508005200FC21C17407E00521417002A92A1D0B681B
S315080052101360FC21C171204611B0F0BD70B588B08D
S3150800522000F203044078401EC0B20F2838BFDFF8EA
S31508005230DC0625D320788DF80000601C00F028F8DD
S315080052400822E11C01A8FEF78DFBE07A8DF80C0018
S3150800525000F018F804F10C010DF10D00FEF782FBC1
S315080052603246281900F10C010DF11100FEF77AFB00
S3150800527070190019007B8DF8190000A803F0EAF8E8
S3150800528008B070BDC0F34005C0F302162A46704741
S315080052900DF1020102780A7042784A707047407828
S315080052A0401EC0B2172800D2D7E60020704770B556
S315080052B088B000F203044078401EC0B2122838BFF6
S315080052C0DFF8480624D300F00AF9201D01A900F0EA
S315080052D033FB0DF10600FEF745FBA07B8DF80E00AB
S315080052E0FFF7D0FF04F10F010DF10F00FEF73AFBAF
S315080052F03246281900F10F010DF11300FEF732FBB3
S3150800530070190019C07B8DF81B0000A803F0DDF8A2
S3150800531008B070BD4078401EC0B20C2800D29CE68A
S31508005320002070474178491EC9B2012904BFC078D8
S3150800533003F02DB891E680B54178491EC9B2042913
S3150800534000D0E9E00422C11C00A8FEF70BFB009878
S3150800535003F03DF802BD00B591B04178CA1ED2B23D
S3150800536000F20300032AB8BFDFF8A00519DB0178AD
S315080053708DF8001041788DF801109DF80010682905
S3150800538001D06F2904D103A90191811C03A803E068
S3150800539002A90191811C02A8FEF7E4FA00A803F00D
S315080053A0A1F911B000BD4078401EC0B2002808BF60
S315080053B003F033B851E64078401EC0B2042800D046
S315080053C04BE6002070474178491EC9B2012904BF3F
S315080053D0C07803F0B5B840E64078401EC0B2012850
S315080053E000D03AE6002070474178491EC9B2012923
S315080053F004BFC07803F0C5B82FE64078401EC0B297
S31508005400052800D029E6002070474178491EC9B210
S31508005410112900D021E6011DC07803F098B941781A
S31508005420491EC9B2022900D017E60179C07802F0F0
S315080054305ABF38B54178012902D0DFF8D00432BD09
S3150800544080781B2802D0DFF8C80432BDFDF712FFAA
S315080054500146DFF89844C0206070651C0920687012
S315080054601B20A8700822201DFEF77CFAFC20E87293
S31508005470012084F8C900002032BD4078012800D0F8
S31508005480EBE5DFF86804C0214170411C07224A7029
S315080054901C228A700122CA7000220A714A710122EE
S315080054A08A710022CA7103220A72FC224A720121F9
S315080054B080F8C9100020704710B582B000F20304C6
S315080054C04078401EC0B2062802D2DFF8400416BD56
S315080054D000F005F8211D009803F0C6F916BD042250
S315080054E0214600A8FEF73EBA4078401EC0B2002802
S315080054F008BFFEF72FBDB0E580B54178092900D071
