S01500006961705F626F6F746C6F616465722E7333371B
S3150800000000040020BD2E0008BF2F0008BF2F0008DF
S31508000010BF2F0008BF2F0008BF2F00084D2001B0D2
S31508000020000000000000000000000000BF2F0008CC
S31508000030BF2F0008000000002D2D0008F91A00083F
S31508000040BF2F0008BF2F0008B5290008BF2F0008DA
S31508000050BF2F0008BF2F0008BF2F0008BF2F0008BA
S315080000600F2A000865100008E3160008B9200008E2
S31508000070BF2F0008BF2F0008BF2F0008BF2F00089A
S31508000080BF2F00085FEA000D704700004FF00051CF
S315080000900860DFF8580744F2444101600022826094
S315080000A0DFF84C070160DFF84C0742618261826025
S315080000B00260DFF844070260426062B6704710B516
S315080000C082B001F096FCDFF83807016821F01001CC
S315080000D00160002001F050FF02F0B8F902F044F880
S315080000E001F03AFF01F0F4FC01F052FC02F0ECFCDE
S315080000F0022100A802F087FC009802F032FC02F008
S3150800010037FF002001F028F8DFF8F8466068C08855
S3150800011002F074FC6068407902F066FC012002F087
S3150800012069FC012002F068FC02F06AFC2060DFF836
S31508000130D81661224A70CC228A706268D3880B71FD
S31508000140D288120A4A7100225318145C9C73521CF6
S31508000150082AF9DB13BD70B50446DFF8B056A87A4D
S31508000160DFF8A46682199475401CA872A9B31730E3
S315080001703070A879F070401CA871002068700822B9
S315080001806879DFF88C164018A0F10801B01D02F056
S31508000190C3FC0EE0304602F029FCE8710028F9D1CC
S315080001A06878002802BF287A697A8842F8D0687A7F
S315080001B02872687810B9287A1428EBD3687820B1A1
S315080001C0002028726872A87201E002F0BFFB1F2C9B
S315080001D003D1A878E8700020287070BDDFF82C06D7
S315080001E001780029FCD0C1784A1CC27083788B42FA
S315080001F004BF00210170D2B2DFF81406101810F8F7
S31508000200010C7047F8B504460D0046BF00266D423E
S315080002102E460027FFF7E2FF385546407F1CBD42B1
S31508000220F8D2FFF7DBFF864205D001211F20FFF732
S3150800023092FF0020F2BD681CF2BD10B582B00446DC
S3150800024000F045FA6FF0020100A8FFF7DBFF04286B
S3150800025002D04FF0FF3016BD214600F036FA00985E
S3150800026000BA16BDDFF8AC15884204D3B0F1202FCA
S3150800027001D202207047DFF8A0150918B1F5E83F4A
S3150800028001D204207047DFF8941509184FF400725C
S31508000290914201D208207047DFF884150818B0F596
S315080002A0006F01D21020704701207047DFF87405EF
S315080002B0DFF874150160DFF874250260416042605A
S315080002C0DFF86C1501220A604A68D207FCD58168F6
S315080002D0C907FCD47047DFF8580541688907FCD47C
S315080002E000210160DFF84C058021016070472DE987
S315080002F0F84380460C46154600264746002D54D03E
S3150800030008F0010005F00101084318BF012059D182
S315080003104046FFF7A7FF814605EB0800401EFFF79A
S31508000320A1FF40EA0900042803D0082818BF0220C4
S3150800033048D1FFF7BBFF0020DFF8FC1401E0BF1C23
S31508000340801CA8422DD23A8803195B7810F804C09D
S315080003500CEB03239BB29A42F1D04FF6FF7C624521
S3150800036000D0EBB9DFF8B424D219102A34BF4FF401
S31508000370047240F201224A603B800A68D207FCD424
S3150800038020220A600A6814231A42D8D00868C006D0
S315080003904CBF04260526102008600420086000E0EB
S315080003A00626FFF798FF30460CE0002000E0401CC8
S315080003B0984206D217F8011B025D9142F7D0072032
S315080003C000E00020BDE8F2832DE9F843054608461B
S315080003D00024860AB602E9B2012924D104274FF07F
S315080003E000694FF40048E80519D5FFF75FFFDFF805
S315080003F048044760E9B2022908BF866047F0400111
S3150800040041600168C907FCD4202101600168C9065A
S3150800041002D5102101600424FFF75DFF34BBA8054F
S3150800042024D5002019E002290AD1FFF71BFF04286A
S3150800043018BF02201BD10227B1464FF48078D2E7B5
S31508000440E8B2032802BF4FF40877DFF8F0934FF0BD
S315080004508008C8D003200AE0401C404506D259F857
S31508000460041B11F1010FF7D0072000E02046BDE874
S31508000470F2832DE9F04FC1B002F041F88DF8000083
S31508000480DFF8BC93DFF8BCA3DFF8BC53DFF874636E
S31508000490DFF8B8733868400B4003B0F1005F18D135
S315080004A070680168A94201D1027992B99DF80020C5
S315080004B07AB97C68A94203D1007908B9284600E0D0
S315080004C05046FFF7E3FDC9F800703868FFF7DAFD14
S315080004D0A04770680168A94206D00F21417170686B
S315080004E04BF20B01C18001E000210160FFF7E7FD37
S315080004F002F037F8DFF858B30DF1040804E000F00D
S31508000500E6F8B0682818B060FFF768FE0546FFF7FA
S3150800051065FE6840FF2818BFFF25CE48006880079B
S3150800052003D5A5F1110072280DD3284602280BD948
S3150800053011381ED0103845D0103868D0401F66D004
S315080005400D3800F09D80A1E000F0BEF815F80B40CC
S3150800055005E0002114F80B00FFF7FDFD641C05EB10
S315080005600B0040788442F4D301217920FFF7F3FD8C
S31508000570CAE70120FFF761FE0546FFF773FE04464A
S3150800058015F1010FC0D0FFF729FE0746FFF726FE33
S315080005907840FF2813D1012C11D000F095F87F1C64
S315080005A0002404E015F8010BFFF7D5FD641CBC42D6
S315080005B0AAD2781E84420CBF01210021F2E701214C
S315080005C01F20D3E70020FFF738FE044614F1010F79
S315080005D09AD0FFF747FE102C09D200F078F89E480B
S315080005E00019FFF753FD8548C9F804008CE7062172
S315080005F00842E4D0656800F06AF85046FFF746FD01
S31508000600C9F800402068FFF73DFDA8477CE7312D73
S3150800061004D10120FFF711FEB06001E000F057F8A1
S31508000620B06810F1010FF1D0FFF71CFE0446FFF782
S31508000630D5FD014601A8FFF7E5FD0546002DE5D0E5
S31508000640B7687819401EFFF70DFE2043022808D127
S315080006500024AC423EBF14F80800E055641CF8D3E9
S3150800066082E70C20044208D02B462A4601A93846C0
S31508000670FFF73DFE00283FF442AF01211F2075E732
S3150800068000F025F8FFF7AAFDFE2802D301211F2056
S315080006906CE7014601A8FFF7B5FD0546002DB5D064
S315080006A07927002414F80800800200F1006140F25E
S315080006B00230FFF789FE08B11F2702E0641CAC422E
S315080006C0F0D30121384651E70021792043E501217D
S315080006D0792040E570B5411C4C4C2278002A6ED131
S315080006E00A7802F02002520915D10A68C2F381225B
S315080006F0022A10D14FF6FF72B1F8033093420AD19D
S31508000700B1F80530934206D10A7802F04002521E2B
S315080007109241D20F00E0002222710A6802F0070314
S31508000720012B4CD113074AD4D20648D422790B6838
S31508000730C3F34013012B09D10B68C3F38123032BA1
S3150800074004D10B68C3F38013012B01D0002A36D0DD
S315080007500B68C3F38133032B31D18978A389994276
S315080007602DD0012121700178A1700023284D03E0C6
S315080007701E5C5E555B1CDBB206789E42F8DA002AE0
S3150800078014BF12201620E070E0786071002A14D099
S31508000790132915D1415D401940784840FF280FD1EB
S315080007A019B1012901D002290AD1288902F026F9AE
S315080007B01548297A0171697A4171E878A08170BD76
S315080007C00020207070BD1149402808D08D2806D019
S315080007D08F2807D101204870002048727047487A50
S315080007E0401CFAE7012048707047000004B000403A
S315080007F000B4004054C800401C4000400400FA05FC
S3150800080000BC004078040020B8060020A20400209E
S31508000810280600204007002000D0FFF700F8FBF765
S315080008200000FCF70480004023016745AB89EFCD43
S315080008302C400040108000400C800040000804084E
S3150800084008ED00E010010FF04D2001B0003000085F
S31508000850E82E00081C80004000010FF000207047B9
S31508000860002070477047704770470000DFF8E8358A
S3150800087033F810001040C840704730B5DFF8DC3553
S31508000880DFF8DC4534F810409C60DFF8CC4534F8D6
S315080008901050954311402943D96002221A6000225C
S315080008A01A6024F8101058680028FCD130BDDFF80B
S315080008B0B405DFF8B4158A780AB149780FE0895685
S315080008C06FF008029142B8BF302108DBC16D39B11B
S315080008D040F24A31C26DB1FBF2F189B2C91E01601C
S315080008E0704730B587B00A237F22DFF88005018874
S315080008F003A802F049F9BDF81210DFF86C554FF657
S31508000900FF72914202D0287BC0077CD501F069FBB3
S315080009100446E87820B90120E870A88900F085F82F
S315080009204FF47C624FF400710D20FFF7A6FF0323F6
S31508000930892200F076F801A900F06EF800F06FF849
S315080009400DF1020100F068F8BDF8020000F060F849
S31508000950ADF802000323B92200F063F802A900F0FB
S315080009605BF8BDF8080000F053F8ADF808004FF43E
S315080009707C624FF460610D20FFF77FFF00F04FF8AF
S3150800098000A900F049F8BDF8000000F041F8ADF8FC
S3150800099000000323B92200F044F80DF1060100F027
S315080009A03BF8BDF8060000F033F8ADF80600BDF8D0
S315080009B00600BDF80010490801EB0040BDF800101C
S315080009C0B0FBF1F080B2BDF80810BDF8022052085D
S315080009D002EB0141BDF80220B1FBF2F1411A89B2DE
S315080009E04FF47C62E3034FF49664B3FBF4F3C01A46
S315080009F001EBD1735B1003EB0010B0FBF1F0083884
S31508000A0000F03F0081010D20FFF737FF07B030BD2A
S31508000A10BDF80410401A7047002001F031BC0323CA
S31508000A20A9222A21002001F0C5BBF8B50546DFF842
S31508000A303844B5F5004F19D102237F22DFF8300478
S31508000A4000F006FABDF80000000AFF2800D000B939
S31508000A5018206070BDF800000006C00E10281CBFE4
S31508000A60001D00F080F9BDF80000C543E07808B124
S31508000A70002008E0207B00F0010005F0010190EA63
S31508000A80010F01D00120E070A58105F00106C5F32C
S31508000A904007DFF8E003016841F4004101604FF4C4
S31508000AA04052DFF8D40300EB46004078010389B2D0
S31508000AB00220FFF7E2FE304601F0F0FE4022B901BF
S31508000AC000F0C4F917B915F0040000D00120A07091
S31508000AD0FFF7EDFEE07818B1FFF703FF0020E0709E
S31508000AE00020F2BDDFF88003808970472DE9F04FBA
S31508000AF085B0DFF88843207804900B38C5B2A80083
S31508000B00001D03900422014600A802F057F99DF83B
S31508000B1000008DF809009DF801008DF808009DF881
S31508000B2002008DF807009DF803008DF80600DFF82F
S31508000B3050030078012804D16078461EB641F60FA6
S31508000B4000E0012600F06AFE80469DF90200A8F141
S31508000B500A0908F10A0B584501DA814501DB01202B
S31508000B6000E000200121A940ADF804109DF801100D
S31508000B70090606D4A188BDF80420114201D107460A
S31508000B8007B1012702F0EEF89DF8030000060AD423
S31508000B90E088BDF80410084205D19DF900005845C3
S31508000BA001DA814502DB4FF0010A01E04FF0000A45
S31508000BB026B91FB9BAF1000F00F09280B148D0F8F3
S31508000BC00090B148D0F800B0B0484FF4C061016059
S31508000BD0002000F017FC00F0AFFFAD4DAEB1607815
S31508000BE058B1A848016821F001010160A448012113
S31508000BF00170012001F033FA07E0286840F400503C
S31508000C002860286820F4805028609D4800780128CC
S31508000C100BD19C48006840F001009A490860984842
S31508000C2000210170642001F01AFA2EB1607818B913
S31508000C300498C0B201F037FD607838B1286820F40E
S31508000C4080502860286840F400502860BDF80400E9
S31508000C50C64347B101F075F88DF801008DF802809A
S31508000C60A0883040A080BAF1000F08D001F027FB19
S31508000C708DF803008DF80080E0883040E0809DF90B
S31508000C8000009DF90910884211D19DF801009DF8D0
S31508000C90081088420BD19DF902009DF90710884279
S31508000CA005D19DF803009DF80610884204D0042259
S31508000CB0039900A802F088F80BF4C060724908602E
S31508000CC000F0EAFB09F0020000F09CFB01F01DF9B8
S31508000CD0607828B148F260702860642001F0BFF996
S31508000CE09DF8010000F06CFF9DF8030001F0E2FAA0
S31508000CF005B0BDE8F08F00F08DBD70B50646A6F1CB
S31508000D000B04A4B200F018FB0546A6F10B00C0B20E
S31508000D10102801D38A2070BD5E488168090702D46D
S31508000D200068C00701D58C2070BD544806705A4922
S31508000D300A680C2A01D1002070BD584A32F82420CE
S31508000D4090F908008018C861FFF7D0FE012DF2D18E
S31508000D5000F08EFAEFE710B5044600F05BFD20467A
S31508000D60BDE81040C9E72DE9F04186B006466FF0A8
S31508000D702A00864201DA8B2064E014237F22484841
S31508000D8000F066F8BDF810004FF6FF71884204D0EF
S31508000D900E21084218BF012506D13F220021102046
S31508000DA0FFF764FD044600252F483E4906F12B024D
S31508000DB0D2B22F2A14D213223B4B01E0521ED2B2D2
S31508000DC013F91270BE42F9DB03EB420676780E6021
S31508000DD013F81210017000200026804603270DE044
S31508000DE0092EC8DA325C0A60067014237F222F485F
S31508000DF000F02EF803200126B046282725B14FF625
S31508000E00BF72BDF8101018E04FF46052C10200F02E
S31508000E101CF84FF4E062310200F017F880224FEA1E
S31508000E20C81100F012F884F020003C18A4B2402C37
S31508000E30A8BF3F243F2284F0200100F007F8FFF7FF
S31508000E4036FD002006B0BDE8F08189B20B2014E516
S31508000E50018800A801F098BEDC040020E8100040D4
S31508000E60E42D00086410004008040020AC2F000898
S31508000E70B42F00081C1000409C2F0008980400207E
S31508000E80680400208020004000E100E080E100E0E6
S31508000E90D010004060200040AC100040EC2C000848
S31508000EA0A82F0008C0100040942D0008AA2F00089B
S31508000EB010B5DFF87C05016821F480510160DFF880
S31508000EC07445207898B100202070DFF86C05016819
S31508000ED021F001010160016841F001010160002271
S31508000EE0A169402001F084FD6069401C606110BD65
S31508000EF0010603D54FF67F710840C000704770B5EC
S31508000F00DFF83045A07A012801D1002070BDDFF84E
S31508000F103055687868B1E878617B0E18B6B22879DA
S31508000F208642A8BF064601F030FD0121B140491EA0
S31508000F300840697908186082C0B270BD2DE9F84387
S31508000F400546C00701D502F01BB8DFF8F844206D46
S31508000F50C00748BF8C2000F18380DFF8D8640020E2
S31508000F60F0723070DFF8D8743878A0B12878122873
S31508000F7001D00C280BD1697801F00701032906D1A5
S31508000F80401910F8020C042804BF0120F072A06F63
S31508000F9040F0010002E0A06F20F00100A067307B5E
S31508000FA0DFF8A484797889B100217173216D41F045
S31508000FB004012165012805D100F0B9F94FF4007044
S31508000FC0C8F80000FFF79BFF81460CE0216D21F071
S31508000FD0040121654FF00009012804D100F07DF9CC
S31508000FE0642001F03CF8A06F20F00800A0671420E8
S31508000FF0E064C4F84890787828B1307B18B9A06CBA
S3150800100008B90120A064B8790028206D14BF40F003
S31508001010080020F008002065202020626560256011
S3150800102060687F306060042020624FF4C065DFF896
S315080010301C04056006E001F061FF18B101F098FF95
S3150800104001F064FFDFF80804006800F003000328D5
S31508001050F1D0C8F80050206D40F00100206500204E
S31508001060BDE8F2832DE9F041DFF8E8436068616C7A
S3150800107001EA0005ADB26560DFF8B863707800284C
S315080010805ED1DFF8BC83DFF8BC73E80719D538688A
S31508001090396C7A6C42EA0141B16198F8002062B174
S315080010A04078800609D5012030704FF480502060C2
S315080010B0206C40F48050206403E00022002001F0F8
S315080010C097FC28060CD5307830B100203070002205
S315080010D0B169402001F08CFC206C20F4805020641B
S315080010E0680601D501F04CBFE80621D5707B401C87
S315080010F0707398F80210C0B2884212D2B86F20F006
S315080011000800B8671420B866FFF7F9FEB864DFF878
S3150800111038034FF400710160386D40F001003865FE
S3150800112006E000F046FB002201468D2001F060FC37
S31508001130280705D5386C796C41EA0040FFF793FB20
S31508001140A806CFD4707828B14FF44070054204BF82
S315080011500120B070BDE8F08170B582B00546FFF792
S31508001160CAFDDFF8F40200210160DFF8CC42152140
S31508001170E160092101651F21416001210166FFF730
S31508001180B1FCFFF752FC00F0A3F901F08BFE00F06A
S31508001190EEF8DFF8A062F08900F00CF9308A00F06A
S315080011A00EF9606840F040006060707900F0C7F89A
S315080011B0B07900F0D0F8307900F0F0F8DFF89C024A
S315080011C090F90000FFF7CFFDF07800F01BF996F9CB
S315080011D0070000F023F9307A00F0F9F8707A00F089
S315080011E002F902237F22DFF87802018800A801F0BD
S315080011F0CBFCBDF80000C0054CBF0020BDF80000C0
S31508001200DFF860120870DFF860020078FFF775FDF6
S3150800121008B101F0B5BE012D05D12068C0070FD56C
S3150800122000F026F80CE05DB92068C00708D42068ED
S3150800123040F001002060C82000F011FF0020307344
S315080012408A4DF120286440F2F910E86300F024F989
S315080012507D484FF4807101602168C90705D54FF6AE
S31508001260FF7129604FF4C061016000F065FC73BD31
S3150800127070B57F4D2E68B6B26E4C207B01282BD0F8
S3150800128001F044FE48F2D00129606A68520509D582
S3150800129048F222022A606A68D205F5D529606A688A
S315080012A05207F1D42E6069494FF4C0620A60714949
S315080012B00A6A22F001020A620A6822F001020A603A
S315080012C00A6842F002020A604A6A42F001024A6269
S315080012D00121217301F05CFE70BD70B5554C207B71
S315080012E020B301F013FE0546634801210160534E01
S315080012F0306D40F0010030650020207300F0CCF816
S3150800130020203060306B40F002003063F06D40F012
S315080013100800F065284601F03BFE0A2000F09FFE13
S3150800132000F005F848484FF4C061016070BD4F48A9
S315080013304FF6FF71016070473E48007B70474F4982
S3150800134000280A6814BF42F0120222F012020A604C
S31508001350384948717047494900280A6814BF42F05D
S31508001360800222F080020A60324988717047444838
S3150800137044494A7812020B789A180260CA7812020F
S315080013808B789A1842604A7912020B799A18826009
S31508001390CA79120289798918C160704737490028C5
S315080013A00A6814BF42F0200222F020020A6021498E
S315080013B0087170471F49C8813349086070471D493D
S315080013C008823249086070473148007870471849E2
S315080013D000280A6814BF42F4005222F400520A6038
S315080013E0144908727047214928B108220A600A6C14
S315080013F042F0080202E00A6C22F008020A640D496B
S31508001400487270470C4900280A6814BF42F0020265
S3150800141022F002020A600749C870704700F19A0173
S315080014208905090C1B4A11600249C87170470000FA
S3150800143040A000405C04002080200040302000408E
S31508001440840400201020004000E100E080E100E074
S31508001450A820004000A000405C10004008040020BE
S31508001460B82F0008A00400209804002004A000401B
S315080014701C100040602000402810004084200040D6
S3150800148098200040A80600209420004090200040A4
S31508001490B004002054100040DFF8D803102101637F
S315080014A0DFF8D4130A6842F001020A60DFF8CC13A9
S315080014B001F2140202600122026301F29E018160B8
S315080014C002210163DFF8B8034FF6FF710160704728
S315080014D0DFF8B00345F26401C1601E214162502164
S315080014E00162C821C1618165F021C16545F6900197
S315080014F04166882181660621C16644F2066101605B
S315080015004FF6FF714160DFF88003007838B1DFF8E5
S315080015107C0348F2607101604FF4C1514160DFF805
S315080015207003016841F004010160DFF868030021D7
S31508001530417070472DE9F8430446DFF840538A2086
S3150800154000FB045000F215004178027802EB0122F4
S3150800155092B202F44041DFF840331B782B706619CB
S315080015600023B370920633D5DFF83073FA6C12068F
S315080015702ED54FF480684FF40069B1F5404F03D17A
S31508001580C01D01F03EFA09E0B1F5004F16D1017A07
S31508001590C07900EB012080B2FFF760F970B1786C72
S315080015A0C00606D400F016F803D0F86A40F0010029
S315080015B0F8620120B0703868E86009E0786CC00607
S315080015C006D500F007F803D0F86A20F00100F862A3
S315080015D0BDE8F183386B04B1C84610EA080F7047B6
S315080015E02DE9F84F0446A046A44E8A2000FB086061
S315080015F000F2140AAA4D002C0CBF28686868C0B20D
S3150800160041005FFA81F9052801DA01F0B9BC09EB56
S315080016100A0010F8081D427802EB01218FB2F78004
S315080016200179318131780170DFF878B2DBF83C0056
S3150800163020F48050CBF83C00686E1CBBDBF8000039
S31508001640400525D44FF4E450074240D1FFF7BCFECD
S3150800165008B178043BD59AF80000802837D2686B21
S31508001660ADF80000286BADF802000098306170896B
S31508001670401C708108EB060082784946504601F006
S31508001680D9F927E0012CDDD1DBF800000005D9D512
S315080016908548017891B100210170844801684FF4AA
S315080016A0E45007421CBF0022402005D19AF80100E9
S315080016B0000900F001028F2001F09AF9002C0CBFF6
S315080016C04FF480604FF40060CBF8000002E0B08869
S315080016D0401CB080002C0CBF012002202861BDE808
S315080016E0F18FF8B5664C2068216C01EA0005704E4A
S315080016F034E0A80654D468064AD4E8040ED525F47E
S3150800170080554FF480502060376D08203065706D25
S31508001710000548BFFFF7CCFBBFB23765E80703D51E
S3150800172025F0010501202060280605D501F046FCB4
S3150800173025F0800580202060E80506D501F03EFCEE
S3150800174025F480754FF480702060A80406D5FFF74D
S3150800175089F825F400554FF40050206035B3280762
S3150800176006D50020FFF7E6FE25F0080508202060CC
S31508001770E80606D50120FFF7DDFE25F01005102046
S31508001780206005F060006028B3D13068C00507D531
S3150800179025F04005402020600120FFF721FFACE737
S315080017A025F02005202020600020F6E70020206094
S315080017B0F1BD3A4800687047F0B589B004460D4651
S315080017C00021032000F064FB04AE1BE0002700F0B4
S315080017D076FB26F8170000F072FB00A921F817001F
S315080017E07F1C082FF3DB04A800F036FF00202080BA
S315080017F0218836F8102051402180401C0828F7DB44
S315080018006D1EA41CEDB2002DE0D100F07EFB012078
S3150800181009B0F0BD0321022000F03ABBF8B500F08C
S315080018204EFB044629254FF6FF76224F3878B8B97D
S315080018300321032000F02CFB02237F221E48018887
S3150800184000A801F0A1F900F03AFBBDF80010401815
S3150800185080B2301A90FBF5F0253078700120387088
S3150800186000F053FB301B90FBF5F03A307978401ABC
S3150800187040B2F2BD00200040842000400005002050
S3150800188000A000404C10004099040020D0100040F1
S31508001890802000403B0700209804002038200040A4
S315080018A02020004004A000405C04002074040020AE
S315080018B06820004039070020B22F000870B504469A
S315080018C01E2C03D2BDE8704000F0C9BBDFF8AC029D
S315080018D00168C90704D5416811B11825641F11E0CC
S315080018E00168C90704D5416811B90C250A3C09E005
S315080018F00168C90704D4406810B10C250F3C01E003
S315080019000625143C01F002FB064601F049FB00F0EF
S31508001910D4F8A4B24FF0FF3104FB0511416001F081
S315080019202BFB01F03FFB3046BDE8704001F030BBB1
S315080019302DE9F0410024944D2C60944E34604FF408
S31508001940A040706041F29A084046FFF7B7FF686802
S3150800195044F69041081A00B24FF4487190FBF1F032
S3150800196000B200F3030030604046FFF7A7FF0827E0
S315080019704046FFF7A3FF686804197F1EF8D184481C
S31508001980211DC908B0FBF1F080B27060BDE8F08196
S3150800199038B56FF00F047F4D0120A8602C608020B9
S315080019A0FFF78CFFE868FF2802D8641C102CF5DBCB
S315080019B031BD7948016841F0010101607748042189
S315080019C0016077480160704710B56C4C206840F09C
S315080019D0010020600120606001F098FA616801F05A
S315080019E0010141F01001714A1160BDE8104001F093
S315080019F0CFBA70B56B4DE8886B4C4FF6FF76B042A0
S31508001A0022D102237F226A480188A81D01F0BCF86A
S31508001A10E888B04204BF0220E880A069800703D4A2
S31508001A20A06940F00200A06101202870E8882060C3
S31508001A3000F043F8A169C9072DD5E16900292AD024
S31508001A4048F69F41416005E0A1698907E8D52978EC
S31508001A50002901D0002070BDA16811F00101A2681B
S31508001A6003D10F2809D2401C06E0920705D52A792A
S31508001A701AB1032801D3401EE8802971E888022894
S31508001A803CBF0220E8802068E9888842CCD1FFF76D
S31508001A909BFF012070BDA169C90705D5E169002929
S31508001AA002D144F24F61CDE7A169C90702D4E169C1
S31508001AB00029F6D142F22731C4E7314807210160EF
S31508001AC00021416081602F494FF000720A6070471B
S31508001AD038B501F01BFA044601F062FAFFF789FFF0
S31508001AE0050008BF01F048FA01F05CFA204601F04B
S31508001AF04FFA002DEDD031BD2148002141608160AB
S31508001B00016821F002010160264800210170417830
S31508001B1001290BD1274901220A6027490968C90703
S31508001B2001D5032106E00221417042E741780429E4
S31508001B3001D105214170704738B5204800688006F4
S31508001B4019D5184CE078B0B90EE001F0DFF9054672
S31508001B5001F026FA6078052818BF01F00DFA01F0A1
S31508001B6021FA284601F014FA60780528EDD10020FC
S31508001B702070FFF7ADFF31BD000000001C4000409B
S31508001B8010E000E004ED00E0104000400C000040CA
S31508001B900060E3160840004058A0004080E200E0DC
S31508001BA000E100E08C040020044000400080004072
S31508001BB0B62F000818A000400C4000402C0000403A
S31508001BC04FF4FE52810189B20C20FEF756BE2DE96C
S31508001BD0FE4F81468A46A44CA06880B202904FF018
S31508001BE0000800264FF00A0B012701972568ADB2B9
S31508001BF04FF6FF7241460C20FEF738FE4EF23F01C3
S31508001C00084000EB8911ADF8001000EB8A10ADF81A
S31508001C100200BDF8009000F078F9B0202063DFF8E4
S31508001C204CA20AE018F1190FB8BF4FF00A0BD844B6
S31508001C300FFA88F802984044A060DAF80000000716
S31508001C4004D5012F02DA019800283BD0C4F8349055
S31508001C500220A0620020A0620120B0408449084208
S31508001C6014BFBDF80090BDF80290701CC6B2202EB5
S31508001C7028BF0026E06A0028FCD1019880B1E81E3A
S31508001C808742BCBFF81C87B213DB2F4605F5004018
S31508001C9020600621092000F0FBF8002001900BE0E7
S31508001CA0DAF80000000707D5042FA6BFF81E87B28A
S31508001CB0002707F500402060B8F11A0FB2DB6FF075
S31508001CC0090BB4E70298A06025600820CAF800004E
S31508001CD06848006880B2BDE8FE8F10B566494FF0C7
S31508001CE0FF32604B1C7864B1002819BF4A6063480C
S31508001CF0486041F211100860D9889888BDE81040FC
S31508001D0065E7002819BF4A600A604860086000F065
S31508001D10FCF806210920BDE8104000F0F0B838B5F7
S31508001D200120FFF7DAFF04460020FFF7D6FF054635
S31508001D300120FFF7D2FF4042001B00EB450000B22E
S31508001D4032BD2DE9FE4F4E4CA06A029020680190E4
S31508001D504C4E30680090434F387858B14FF6FF72B2
S31508001D6000210820FEF782FD8046C022C0210820F7
S31508001D70FEF783FD444D4548007810B148F260707F
S31508001D8028600220A0620120206040F24C4000F04A
S31508001D9066F90120F060306078884CF24C010843FF
S31508001DA0E8630020B8804020F880387800B1202009
S31508001DB0FFF706FFFFF7B3FF83464020B8807F2072
S31508001DC0F8803878002814BF60207F20FFF7F8FED7
S31508001DD0FFF7A5FF81463878002814BF4FF0C00AE0
S31508001DE04FF0FE0A584601F0CFF800FB0AFAABEBB3
S31508001DF0090B387860B1484601F0C6F8814658465E
S31508001E0001F0C2F880B20AEB8911B1FBF0F905E0DE
S31508001E10584601F0B9F880B2BAFBF0F91FFA89F909
S31508001E200020E86300A8008830600020F0600220E7
S31508001E30206001A80088206002A80088A06238787F
S31508001E4030B14FF6FF721FFA88F10820FEF715FD2C
S31508001E5040F24C4000F003F909F10100C003000C00
S31508001E60BDE8FE8FB0060020C010004018A0004054
S31508001E7071A371A30070004038100040EEEEFFFF1A
S31508001E806020004028100040D0100040990400202F
S31508001E9070B505460E467C4C206C20F00800206480
S31508001EA001F034F8310341EAC51141F00101774ADE
S31508001EB0116008212160BDE8704001F069B810B5CD
S31508001EC0714C13E001F06CF8714804210160206C34
S31508001ED040F00800206401F04FF8206C20F008005C
S31508001EE020646C480421016001F05CF82068000752
S31508001EF0E8D5082020606848006880B210BD80B523
S31508001F00FFF7C6FFBDE80140D9E76048016821F040
S31508001F10010101607047F8B5054600F062F804460D
S31508001F2029460320FFF7EBFF064629460120FFF75F
S31508001F30E6FF074629460020FFF7E1FF53490A68EE
S31508001F4022F001020A60801B0004B91BB0FBF1F005
S31508001F5060434000000CF2BD10B5504C0020FFF75E
S31508001F60DAFF40F68C218842206834BF40F008002A
S31508001F7020F00800206010BD10B582B000F029F8E6
S31508001F8000F021F803D1FF2804BF04200021002C0B
S31508001F901DBF801CC0B201220022414B1A700828BE
S31508001FA0A8BF07200829A8BF0721FFE73D4A1368ED
S31508001FB023F4607343EAC01010601068C008C000BC
S31508001FC00843106013BD9DF801009DF80010FF2915
S31508001FD07047044602237F223348018800A800F090
S31508001FE0D3BD00B583B002237F223048018800A8FC
S31508001FF000F0CAFDBDF800004FF6FF7188420EBF1B
S315080020004FF4E1600A2190FBF1F0ADF80000244896
S31508002010007808B302237F222348018801A800F02C
S31508002020B3FD9DF80500FF2808BF0420811CC9B22E
S315080020300829A8BF0721C1F12F02BDF80030C0F159
S315080020402F0002EBD272521000FB0320C1F12F01C0
S31508002050B0FBF1F0ADF80000BDF800000EBD144964
S315080020600A68144B1B68DB0758BF4008032809D3C6
S315080020704B6D43F001034B650B689B1A1B031B0B47
S315080020808342F9D37047000018A00040047000404E
S3150800209000E100E080E200E00070004000BC004083
S315080020A03807002018000040AE2F0008B02F00089F
S315080020B0382000401C40004070B577484278774980
S315080020C00B685B0722D5032A20DA00EB42038488D3
S315080020D09C810123847803FA02F2224382700278F3
S315080020E06F4C82B1002502E06D1C032D0EDA03FA4F
S315080020F005F61642F8D045707240027000EB4500AE
S31508002100808A206002E02260032242704FF6FF7048
S315080021100860BFF35F8F70BD38B500F0F7FE5E4903
S315080021200A78E2B15E4B1C68E40718D4002402E082
S31508002130641C032C14DA0125A5401542F8D04C700E
S315080021406A400A7001EB4401898A196053494FF6BF
S31508002150FF720A6053494FF400620A6000E00324E4
S3150800216000F016FFE0B232BD4B4800210170032192
S3150800217041700021C1700521018100218170484903
S3150800218000220A604A604FF400428A601022CA6040
S31508002190001D4861012088610320C8603F4804216A
S315080021A001644FF6FF7101603E484FF4006101601B
S315080021B0FEF797BB70B504462A2901D0012070BDE9
S315080021C0354DD00040EA43302989084305EB4401E0
S315080021D08882012000FA04F6287830420FD100F0F0
S315080021E095FE297831432970A978B143A97000F082
S315080021F0CFFEFFF791FFA04201D1812070BD82205A
S3150800220070BD2DE9F84304468846274F254D00F052
S3150800221075FE48B92868000506D5386800F0040038
S31508002220461EB641F60F00E0012600F06FFE814615
S315080022303EB12868000504D53868400748BFFFF74F
S315080022403BFF154881780122A2400A4208D000EBDC
S3150800225044039B89A8F8003051408170802409E026
S315080022600178114218BF822404D14078A0420CBFDD
S3150800227081248424484600F08BFE2046BDE8F2837C
S3150800228038B504460D4629462046FFF7BAFF842886
S3150800229018BF8028F7D132BDBC04002010A8004022
S315080022A004D0004000E100E050A800403F22410071
S315080022B089B201E03F2201460220FEF7DEBA2DE987
S315080022C0F04F95B0534CE06C80B20490206880B211
S315080022D00390514DE86A80B202904FF6FF720021D2
S315080022E00120FEF7C3FA01904FF6FF7200210B207A
S315080022F0FEF7BCFA00904FF40040206000202861E9
S31508002300686148F2020000F089F84CF68C30E06407
S3150800231048F2F000E8624FF4805211460120FEF7B9
S31508002320ACFA4FF6FF7200210B20FEF7A6FA06213B
S315080023300620FFF7E4FD804600F083F883464CF656
S315080023409C30E0640020FFF7B1FF06210846FFF73E
S315080023509FFD0026B0B2FFF7A9FF06210620FFF76A
S3150800236097FDFFF7ACFD05A921F81600761C202E6F
S31508002370F0DBFFF7A4FD1020FFF798FF00F061F8E7
S31508002380A0EB0B00BDF83410A1EB0801404301FB9C
S3150800239001094FF0100A112700F04CF800F051F827
S315080023A000F041F804DB8146BA467F1C202FF3DB98
S315080023B01FFA8AFABAF1100F0DD10F2700F03AF872
S315080023C000F03FF800F02FF805DB8146BA46781E84
S315080023D007B2002FF2D50498E064039820600298AB
S315080023E0E8624FF6FF72019989B20120FEF745FAB5
S315080023F04FF6FF72009989B20B20FEF73EFA0120CC
S315080024002861002000F00AF84FEA4A00C0B215B069
S31508002410BDE8F08FC010004018100040286040F258
S315080024204C40FFF71CBEA0EB0B00404306FB060022
S315080024304845704705A830F81700A0EB0806B8B25B
S3150800244034E706210720FFF75ABD0000F0B585B02E
S315080024504E480178002950D000214160002200A989
S315080024604B4B9B5C5354521C102AF9DB0F22535CCE
S31508002470FF2B05D100235354521E52B2002AF6D51B
S315080024800022444B00240C255543EE58A75D37B16E
S315080024903E46675CBE420BD1641C102CF5DB00AED1
S315080024A0A4196478FF2C00D014B9E918416003E038
S315080024B0521C072AE6DB4360002101704068007A57
S315080024C0D8B101210D2000F0DDFA01210D2000F020
S315080024D0EAFA01210E2000F0D5FA01210E2000F0BB
S315080024E0E2FA01210F2000F0CDFA00210F2000F0BA
S315080024F0DAFA0921152000F0C5FA05B0F0BD10B5C5
S3150800250082B0FFF7A3FF214C60688279FF2A01D1C8
S31508002510002016BD0821C079104300F0B3FA6068A0
S3150800252001218279C079104300F0BDFA002000909D
S315080025304FF47A7102E00098401C00900098884297
S31508002540F9DB60688179C9108902134A515801225A
S3150800255090F9070002FA00F00840401E8041C00FBB
S3150800256016BD10B5FFF772FF084C606801210279A5
S315080025704079104300F086FA6068002102794079B4
S315080025801043BDE8104000F08EBA00000004002099
S315080025902A080408502C000808B0004038B504463C
S315080025A0274D214600F055F8E860211D00F051F846
S315080025B0A86004F1080100F04CF8686004F10C0109
S315080025C000F047F8286031BD38B504461C4DEA6866
S315080025D0214600F03BF8AA68211D00F037F86A6822
S315080025E004F1080100F032F82A6804F10C01002011
S315080025F0BDE8384000F056BBF8B50446114D8020BA
S315080026002860114E06203060072028603068800751
S31508002610FCD5002704EB870100F01BF8A8627F1C95
S31508002620042FF7D330684007FCD500262A6B04EB45
S31508002630860100F00BF8761C042EF7D3F1BD0000D6
S31508002640383000400030004010A00040002000F064
S3150800265029BB002000F034BB7FB504460D4600F0C8
S3150800266055FC064600A8FFF7AFFF2846FFF796FF7A
S315080026702046FFF7C1FF00A8FFF790FF304600F09D
S3150800268087FC7FBD27490A68920992010A600A6891
S315080026901043086024484FF400410160002101609E
S315080026A06420FFF7DCBC2DE9F84380461F4D2868F7
S315080026B01FFA80F9286840F400402860194F3868E6
S315080026C020F4805038601A4C207868B11948A178EF
S315080026D0627800EB820212F82A2C891A00EB88002D
S315080026E010F82A0C401803E020260120207000E08C
S315080026F086B23046FFF7C6FF386B042805D0386B1C
S31508002700400754BF701E701CF2E7F86A28B184F8B7
S315080027100180A670C5F8009001E000F031BCBDE864
S31508002720F1830000D0100040181000401C10004033
S315080027303D070020EC2C0008010000000000000006
S31508002740031800001316191C1F0000000080000063
S31508002750FFFFFFFFFFFFFFFFFFFFFFFFFFFFFFFF7B
S31508002760FFFFFFFFFFFFFFFFFFFFFFFFFFFFFFFF6B
S31508002770FFFFFFFFFFFFFFFFFFFFFFFFFFFFFFFF5B
S31508002780FFFFFFFFFFFFFFFFFFFFFFFFFFFFFFFF4B
S31508002790FFFFFFFF00000001000101B50000000077
S315080027A00100FEFFFFFF000000000000000000001F
S315080027B000000000000000200030000801010403AA
S315080027C005000100000064000100FFFFEFBECEFA1D
S315080027D00B010000000000000000000000000000DF
S315080027E0000000000000FFFF010000005FEA000D86
S315080027F07047000010B51D480068800608D51C48BB
S3150800280044680068FFF7F2FF1A4819490160A047B3
S31508002810BDE8104080B5184840F20731016072B62D
S315080028201648016821F0010101601548112101606F
S315080028301448154901604FF07841C1601349016198
S31508002840134941611349144A0A604FF080324A60BD
S315080028508A60CA60E0220A61102181604FF4E02193
S31508002860816100F053FB62B6012002BD2C000040D6
S315080028700030000808ED00E018000040FCED00E01C
S31508002880008000400CED00E00004FA05F8F8F84076
S3150800289080F8404000E400E080804080F0B589B0D0
S315080028A004460020FFF768FB0A237F222348018895
S315080028B000A800F069F94FF6FF75BDF80200A842B6
S315080028C001D100F05DBB00271D4E2A4617B94FF40B
S315080028D07C4203E0022F08BF4EF23F0200A830F800
S315080028E01710B85DFDF7C9FF7F1C052FEDD3012C26
S315080028F002BF14237F22134802D014237F221248D2
S31508002900018803A800F040F900272A46012F08BFCE
S315080029104FF6C072082F08BF002203A830F8171018
S31508002920B819007AFDF7A9FF7F1C0A2FEDD3012CF1
S3150800293004BF0120FFF720FB09B0F0BDAC2F00084B
S31508002940D42E0008AA2F0008A82F000880B500F08A
S31508002950DDFA1F480021016041601E481E490160DA
S3150800296001BD81B209B94BF6EF611C4A1180000C12
S3150800297008BF4FF6CE20508070470288130448BF20
S315080029804A405100018090B2704738B5134C622115
S315080029902046FFF7F2FF054641F20B01A01CFFF7A0
S315080029A0ECFF684032BD00F0B7B880B500F01EF9FC
S315080029B040B202BD0A480168C90708D50949032279
S315080029C00A70016C21F00101016401210160704760
S315080029D01C4000400CED00E00400FA0594040020B9
S315080029E018A000408D040020FEF7B5B9FEF7A6BA78
S315080029F0FDF7E9BEFEF7A3BCFEF7ADBCFEF7DFBCEC
S31508002A0003E0FDF72DBFFEF7D7BE0848704738B577
S31508002A10074C2068216C01EA0005ADB2680748BF7B
S31508002A20FDF722FF256031BD00000000A806002042
S31508002A3008A0004070B582B0044615460819A0F1F2
S31508002A400806FEF7C1FC20B12078032824BF801EA3
S31508002A502070F078FEF74CFA96F90210663149B202
S31508002A6000910346707900F00F00B179090241EA36
S31508002A700040F17941EA000229462046FDF72AFE80
S31508002A8073BD000010B582081B4B53F8222013684B
S31508002A9000F0030080000F248440A34301FA00F0ED
S31508002AA01843106010BDC208032A0CD2012200F098
S31508002AB007039A400029C0F3D50019BF80020F49C1
S31508002AC080020F490A50704780B50E4810210160F0
S31508002AD00D48022101600D484FF400610160FEF7C0
S31508002AE027FF0B48072101600021016409481021CE
S31508002AF00160002002BD00008C2E000810B00040C6
S31508002B0014B0004080E100E0080000400C6000407E
S31508002B1014A0004000E100E04AB38B0707D011F883
S31508002B20013B00F8013B521E21D08B07F7D18307E2
S31508002B301ED1103A07D330B4B1E83810103AA0E8DD
S31508002B403810F9D230BC530724BFB1E80810A0E802
S31508002B50081044BF51F8043B40F8043BD20724BF91
S31508002B6031F8022B20F8022B44BF0B78037070470C
S31508002B70083A07D3B1E80810083A40F8043B40F889
S31508002B8004CBF7D25307E4E730B583B004461046C2
S31508002B907F2808BF0020B1F5004F19D108237F22EE
S31508002BA040F6120100A8FFF7EFFF08220D4900A81A
S31508002BB0FFF7FBFE30B908237F2240F2A27100A876
S31508002BC0FFF7E2FF082200A92046FFF7ECFE37BD13
S31508002BD01A46054D294300FB03112046FFF7E3FE7D
S31508002BE037BD0000682F0008000004080300002015
S31508002BF013F0030F09D0521E22BF13F8010B11F868
S31508002C0001CBB0EB0C00F3D07047121F22BF53F86C
S31508002C10040B51F804CB6045F7D0121D0AD200BA4E
S31508002C209CFA8CFCB0EB0C0038BF6FF0000088BF34
S31508002C3001207047521E22BF13F8010B11F801CB71
S31508002C40B0EB0C00F6D0521C08BF104670470000C7
S31508002C50302F00080805000700000000382F00087C
S31508002C600805000700000000402F000800000803C0
S31508002C7000000000482F00080000080300000000BC
S31508002C80502F00080000FFFF00000000582F000822
S31508002C900000080301000000602F0008080500076F
S31508002CA00100000010B50023002814BF1C46C3F11C
S31508002CB00304E4B26254120A5B1C042BF4DB10BD55
S31508002CC030B54A788B78CC78097818B120461D46F5
S31508002CD00C4602E0084615461A460006000C28432C
S31508002CE0110289B2214341EA004030BDAA212900D8
S31508002CF05523290000252800AA262700552827003D
S31508002D00002A2600AA2B2600552D2500002F240070
S31508002D10AA3024005532230000342200AA352200A6
S31508002D205537210000392000AA3A20000B480078C0
S31508002D3050B1EFF30880A0F1200080F3088880E8FE
S31508002D40F00F0749086030BF0548006890E8F00FA3
S31508002D5000F1200080F3088870470000B4040020C2
S31508002D60B8040020E0B50A237F220948018800A894
S31508002D70FFF70AFF4FF6FF72BDF80000904201D137
S31508002D8000F0FEB801460020FDF777FD07BD00BF3D
S31508002D90AC2F0008D500E601EC02EF03F204F405B7
S31508002DA0F506F707F808F909FA0AFB0BFC0DFD0FFB
S31508002DB0FE11FF1300160119021C031F80B5014BF3
S31508002DC0C9180AE01804002080B50B4601460148D8
S31508002DD002E000BF180400201818FFF7E4FD0020E1
S31508002DE002BD000010001100200030004000410024
S31508002DF050006000700080009000A000B000C00085
S31508002E00D000E000F000000010B409E050F8041B00
S31508002E1050F8042B51F8044B42F8044B1B1FF9D108
S31508002E2050F8043B002BF1D110BC7047712E0008F6
S31508002E308C020000B404002000000000092E0008DF
S31508002E40B400000038270008000400200000000035
S31508002E5010B50548054CA04204D050F8041B884715
S31508002E60A042FAD110BD00BF2C2E0008502E000833
S31508002E70002305E050F8041B41F8043B121FFBD160
S31508002E8050F8042B002AF5D17047000000B0004026
S31508002E9004B0004000B4004004B4004000B800404C
S31508002EA004B8004008237F22024801880248FFF739
S31508002EB06BBE00BFBA2F0008A8060020FFF79AFCD1
S31508002EC0002801D0FFF7C4FF0020FDF7D2FA00F072
S31508002ED062F8000000100C0D0E0000000102030449
S31508002EE00708090A0B0F0000040E11140803000155
S31508002EF00211213136430300000109A8EFF31180BE
S31508002F006028B4BF0020012070470000EFF311804D
S31508002F10602181F31188704701491820ABBEFBE791
S31508002F202600020007463846FFF7F6FFFBE70000D3
S31508002F304D423835312041004D4238353120420066
S31508002F404D423835312043004D4239353020410055
S31508002F504D423935312041004D4239353420410042
S31508002F604D42393534204200FFFFFFFFFFFFFFFFC8
S31508002F70002181F31188704700BF30BF00BF70473A
S31508002F8080B50120FFF7C8BF002848BF40427047F8
S31508002F9080F31188704780B5FFF7C4BF00000103AE
S31508002FA072B6704762B67047AA07BE07D207DC0733
S31508002FB0DE07E2073C08EE08F00800807047FEE7E7
S70508002EBD07
