S00C000072663463652E73333714
S3150800000000040020D9C200085BC100085BC10008D3
S315080000105BC100085BC100085BC100080000000066
S315080000200000000000000000000000005BC100089E
S315080000305BC1000800000000013700087D2F00089A
S315080000405BC100085BC10008D74100085BC1000816
S315080000505BC10008B55D00085BC100085BC100080C
S315080000607B6B0008C172000867790008A9190008A7
S315080000705BC100085BC100085BC100085BC10008E2
S315080000805BC1000811C30000F00A00003405002017
S315080000900000000025C30000020000000200000066
S315080000A0C7C30000B60000000004002033010000AA
S315080000B00109B00044310000443300004435000013
S315080000C0533100005332000053330000533400000C
S315080000D05335000053544C4D323000004C495333CD
S315080000E0303200004D423835312041004D42383516
S315080000F0312042004D423835312043004D423835D3
S31508000100312044004D423935342041004D423935BD
S31508000110342042004D423935342043004D423935AA
S31508000120302041004D423935302042004D423935A4
S31508000130312041004D42393531204200504339398A
S315080001403820505232000000B400000808060000AB
S31508000150B800000808050000BC00000808040000F4
S31508000160B400000800050000B80000080000000000
S31508000170B400000800070000C000000800030000E3
S31508000180C000000800070000C000000808030000BF
S31508000190C000000808030000C400000800070000AB
S315080001A0C800000808070000CC0000080800000086
S315080001B0D000000808060000C00000080003000080
S315080001C0D400000808070000D40000080004010055
S315080001D0DC00000800000000480100088001000853
S315080001E06001000888010008600100089001000805
S315080001F060010008B80100087001000878010008CD
S31508000200E40000081300000001020000D8010008FD
S3150800021058010008D0010008C0010008EC000008D9
S315080002201300000001020000D80100085801000868
S31508000230D0010008C0010008F40000082B000000E7
S3150800024001020000E001000858010008D00100087A
S31508000250C8010008FC0000082B000000010200008D
S31508000260E001000858010008D0010008C80100088C
S31508000270040100081700000001020000E001000860
S3150800028058010008D0010008C80100080C01000840
S315080002902F00000001020000E001000858010008D4
S315080002A0D0010008C8010008140100082F0000004A
S315080002B001020000E001000858010008D00100080A
S315080002C0C80100081C010008230000000502000000
S315080002D0E801000858010008D0010008C801000814
S315080002E0240100082300000005020000E8010008B8
S315080002F058010008D0010008C80100082C010008B0
S315080003002000000001020000F001000800000000C3
S315080003100000000000000000340100082000000072
S3150800032001020000F00100080000000000000000C3
S31508000330000000003C010008E00000000101000088
S31508000340F80100080000000000000000000000009E
S31508000350556E6B6E6F776E004745545F5645525320
S31508000360494F4E004745545F4944000045524153A2
S315080003704500000057524954450000005245414483
S31508000380000000007B676574457569363420636133
S315080003906C6C2E2E2E204F4B2C207B646573744577
S315080003A0756936343A0000002530327800000000BE
S315080003B07B257320426F6F746C6F616420636F6D69
S315080003C06D616E642E2E2E207374617475732025EC
S315080003D0303278200D0A00007B7265706C793A001D
S315080003E07B53657444657374457569363420636157
S315080003F06C6C2E2E2E204F4B7D0D0A004C6F6164BF
S31508000400696E6720696D616765206F6E2072656D1C
S315080004106F7465206E6F646520776974682045552A
S315080004204936343A200000002530325800000000D2
S315080004305772697474656E202530356C752F2530B2
S31508000440356C750D000000000D0A25730D0A0000B5
S315080004504661696C65640000546F74616C20746948
S315080004606D6520286E6F7420696E636C7564696E9D
S31508000470672073637265656E206D65737361676562
S315080004807329203D20256C752E2530366C75207312
S3150800049065632E0D0A000000456E746572696E6705
S315080004A0205561727420626F6F746C6F6164657237
S315080004B0206D6F6465202E2E2E0D0A004E6F646522
S315080004C020646F6573206E6F7420636F6E74616944
S315080004D06E2049415020626F6F746C6F616465725B
S315080004E00D0A0000496E76616C6964207061697254
S315080004F0696E67207461626C6520656E7472792016
S3150800050025640D0A00000000456E746572696E6701
S3150800051020524620626F6F746C6F61646572206D3D
S315080005206F6465202E2E2E0D0A0000004572726F2C
S315080005307220647572696E6720656E61626C6520EB
S315080005404D4143206D6F6465200D0A004572726F38
S31508000550722066696E64696E67206E6F64652069CD
S315080005606E20626F6F746C6F61646572206D6F6464
S31508000570650D0A004572726F7220647572696E673E
S315080005802064697361626C65204D4143206D6F6418
S3150800059065200D0A000000004E574B5F456E6162EC
S315080005A06C654D41434D6F6465207574696C69745B
S315080005B0792063616C6C2E2E2E20737461747573AA
S315080005C0202530386C580D0A000000004E574B5F46
S315080005D053656E645261775061636B6574207574F8
S315080005E0696C6974792063616C6C2E2E2E20737485
S315080005F061747573202530386C580D0A00000000A8
S3150800060056656E646F72000053544D33325720544A
S31508000610617267657400000053544D333257205297
S3150800062043000000000202024B4B4647766572699A
S315080006306679466962282900593A5C63635F766F72
S31508000640625C73746D3332775C68616C5C6D696388
S31508000650726F5C636F727465786D335C666C617318
S31508000660682E6300FFFFFFFFFFFFFFFF00B000409B
S3150800067004B0004000B4004004B4004000B8004094
S3150800068004B80040284E564D5F4C4546545F5041CD
S315080006904745254D46425F504147455F53495A45B0
S315080006A05F42293D3D300000593A5C63635F766FCF
S315080006B0625C73746D3332775C68616C5C6D696318
S315080006C0726F5C636F727465786D335C6E766D2ECF
S315080006D063000000284E564D5F52494748545F5004
S315080006E0414745254D46425F504147455F53495A64
S315080006F0455F42293D3D3000286F6666736574265E
S31508000700307831293D3D3000286C656E677468265F
S31508000710307831293D3D30006F66667365742B6C01
S31508000720656E6774683C4E564D5F444154415F534D
S31508000730495A455F42000000593A5C63635F766F29
S31508000740625C73746D3332775C68616C5C6D696387
S31508000750726F5C636F727465786D335C736C656514
S31508000760702E6300436F6E666967757265207468DC
S3150800077065206E6F646520617320546172676574C5
S3150800078000000000436F6E666967757265207468BD
S3150800079065206E6F646520617320436F6E74726F97
S315080007A06C6C657200000000446973636F7665724D
S315080007B079202620506169722070726F63656475AE
S315080007C072650000446973636F7665727920262026
S315080007D0506169722070726F636564757265206610
S315080007E0726F6D2061205441524745540000000045
S315080007F044756D702050616972696E672054616234
S315080008006C65000044657669636520736F66747766
S31508000810617265207265736574000000436C6561DA
S31508000820722050616972696E67205461626C650056
S315080008304572617365204E564D2073746F726167F9
S3150800084065000000456E61626C6520706F776572A1
S31508000850207361766500000044697361626C6520E7
S31508000860706F77657220736176650000466C6173F8
S31508000870682052656D6F746520436F6E74726F6C75
S31508000880206F766572207468652061697220636CD2
S315080008906F6E696E6720696D616765206F66207483
S315080008A06865207461726765740000007072696E0D
S315080008B0742068656C70204D656E750053656E64AE
S315080008C020436F6D6D616E64204B65792028505208
S315080008D04553534544293A20566F6C756D65205526
S315080008E07000000053656E6420436F6D6D616E6421
S315080008F0204B6579202850524553534544293A20C0
S31508000900566F6C756D6520446F776E0053656E641F
S3150800091020436F6D6D616E64204B657920285052B7
S315080009204553534544293A204368616E6E656C20E9
S315080009305570000053656E6420436F6D6D616E647B
S31508000940204B6579202850524553534544293A206F
S315080009504368616E6E656C20446F776E0000000018
S315080009602A302D393A2053656E6420436F6D6D61C8
S315080009706E64204B657920285052455353454429C7
S315080009803A204368616E6E656C20302D3900000090
S315080009902A4553433A20456E74657220737472690A
S315080009A06E6720636F6D6D616E64206D6F646500A0
S315080009B0696E746572616374697665000D0A5365BC
S315080009C07420696E746572616374697665206D6FEB
S315080009D06465000068656C70000000000D0A4C69CB
S315080009E0737420636F6D6D616E647300656E61620A
S315080009F06C65426F6F746C6F61646572000000000D
S31508000A000D0A456E61626C6520746865205246342D
S31508000A10434520626F6F746C6F61646572206D6FF9
S31508000A206465000073656E645261775061636B6537
S31508000A307400000075756276756200000D0A6368B9
S31508000A40616E6E656C0D0A647374416464724D6FF1
S31508000A5064650D0A647374416464720D0A64737480
S31508000A6050414E49640D0A7061796C6F61644C653A
S31508000A706E6774680D0A7061796C6F6164000000B6
S31508000A80676574455549363400000000626C5F732B
S31508000A9065744465737445756936340065756936D9
S31508000AA034000000626C5F6765744465737445754D
S31508000AB069363400636C6F6E65496D616765000061
S31508000AC00D0A70616972696E67207461626C6520CF
S31508000AD0656E74727920283078464620666F7220D3
S31508000AE07265636F76657279206D6F64652900009B
S31508000AF0626C5F6D6F64657561727400456E7465CE
S31508000B007220626F6F746C6F61646572206D6F64BA
S31508000B10652076696120554152540000626C5F6D0C
S31508000B206F64656F74610000456E74657220626F4C
S31508000B306F746C6F61646572206D6F6465205246D0
S31508000B402074686520706172616D657465722069CC
S31508000B5073207468652070616972696E67207461B4
S31508000B60626C6520656E7472792028307846462056
S31508000B70666F72207265636F76657279206D6F6431
S31508000B80657D0000626C5F6765740000626C5F6774
S31508000B906574696400000000626C5F676574766559
S31508000BA07273696F6E000000626C5F726561640043
S31508000BB07775000061646472657373206279746581
S31508000BC073000000626C5F7772697465000000004C
S31508000BD077756200616464726573732062797465FF
S31508000BE07320646174610000626C5F65726173658D
S31508000BF0000000007562000070616765732070610F
S31508000C0067655F6C69737400626C5F676F000000EC
S31508000C10616464726573730054000000F74F00083E
S31508000C20AC1700086407000843000000F74F0008E7
S31508000C30B01700088407000844000000A9510008FE
S31508000C4000000000A80700085A000000E551000847
S31508000C5000000000C4070008700000006353000885
S31508000C6000000000F0070008520000007954000850
S31508000C700000000004080008650000006F51000825
S31508000C80000000001C0800084500000093500008FA
S31508000C90000000003008000853000000ED55000869
S31508000CA061C400084408000841000000ED5500082A
S31508000CB062C40008580800084F000000B950000830
S31508000CC0000000006C0800083F000000BF54000840
S31508000CD000000000AC0800082B0000003152000894
S31508000CE063C40008BC0800082D0000003152000843
S31508000CF064C40008E40800083E00000031520008F9
S31508000D0065C400080C0900083C00000031520008C0
S31508000D1066C4000834090008300000003152000893
S31508000D20B4170008600900083100000031520008B5
S31508000D30B517000800000000320000003152000814
S31508000D40B617000800000000330000003152000802
S31508000D50B7170008000000003400000031520008F0
S31508000D60B8170008000000003500000031520008DE
S31508000D70B9170008000000003600000031520008CC
S31508000D80BA170008000000003700000031520008BA
S31508000D90BB170008000000003800000031520008A8
S31508000DA0BC17000800000000390000003152000896
S31508000DB0BD170008000000001B000000000000002E
S31508000DC00000000090090008556E6B6E776F6E2064
S31508000DD0636F6D6D616E6420256320282530327837
S31508000DE0290D0A0025730D0A000000002A2A2A2A5E
S31508000DF02A2A2A2A2A2A2A2A2A2A20436F6D6D6134
S31508000E006E64204D656E75202A2A2A2A2A2A2A2ADD
S31508000E102A2A2A2A2A2A0D0A0000000025633A20CF
S31508000E2025730D0A00000000556E6B6E776F6E20F5
S31508000E30737472696E6720636F6D6D616E642025C9
S31508000E40730D0A006E6F206572726F7200000000E3
S31508000E5073657269616C20706F7274206572726F47
S31508000E60720000006E6F207375636820636F6D6D86
S31508000E70616E640077726F6E67206E756D6265725B
S31508000E80206F6620617267756D656E747300000069
S31508000E90696E746567657220617267756D656E74D3
S31508000EA0206F7574206F662072616E67650000009A
S31508000EB0617267756D656E742073796E74617820DA
S31508000EC06572726F72000000737472696E672074BF
S31508000ED06F6F206C6F6E6700696E76616C6964204F
S31508000EE0617267756D656E742074797065000000AF
S31508000EF00D0A20537472696E6720636F6D6D616E9B
S31508000F00643E000025630D0A000000005246344383
S31508000F10452043455243206170706C69636174696A
S31508000F206F6E20286C69622076657273696F6E3AF7
S31508000F302573290D0A000000312E302E33000000DB
S31508000F40436F6E74726F6C6C6572282564293E0057
S31508000F50546172676574282564293E00556E636F6F
S31508000F606E6669673E000000257320257320257389
S31508000F700D0A0D0A00000000B0090008DB4F000842
S31508000F8054C10008BC090008D4090008BB4F000872
S31508000F9060C40008DC090008EC090008C926000836
S31508000FA054C10008000A0008240A00081B27000884
S31508000FB0340A00083C0A0008800A0008CB5B0008CF
S31508000FC060C4000860C400088C0A0008F520000800
S31508000FD056C100089C0A0008A40A00082321000834
S31508000FE060C4000860C40008B40A0008992600080E
S31508000FF054C10008C00A0008F00A000807240008BF
S3150800100060C40008FC0A00081C0B00083524000808
S3150800101054C10008280B0008840B0008A522000804
S3150800102060C4000860C400088C0B0008B5220008DC
S3150800103060C4000860C40008980B0008C1220008B4
S3150800104060C4000860C40008A80B0008D122000884
S31508001050B00B0008B40B0008C40B000825230008D1
S31508001060D00B0008D40B0008E80B00087923000809
S31508001070F40B0008F80B0008080C0008BF2300084A
S3150800108058C10008100C000800000000000000000D
S315080010900000000000000000696E746572616374E8
S315080010A0697665207574696C6974792063616C6CFE
S315080010B02E2E2E206D6F646520253032780D0A009D
S315080010C03C434552435F494E49543E0D0A537461A9
S315080010D07465203D202530386C580D0A0000000044
S315080010E03C434552435F494E49543E0D0A53746189
S315080010F0747573203D202530386C580D0A3C4345DD
S3150800110052435F494E49545F454E443E0D0A00001E
S315080011104E564D206572617365642C207265626F48
S315080011206F74696E672E2E0D0A0000005468697385
S3150800113020636F6D6D616E6420697320656E6162F0
S315080011406C6564206F6E6C7920666F7220746172AC
S31508001150676574730D0A00005468697320617070BE
S315080011606C69636174696F6E206973206E6F742091
S31508001170636F6D70696C656420696E20626F6F7449
S315080011806C6F61646572206D6F64650D0A000000FE
S315080011904E6F2076616C69642070616972696E674A
S315080011A020656E7472792070726F76696465642C36
S315080011B020746865206F74686572206E6F64652098
S315080011C06D75737420626520616C7265616479203F
S315080011D0696E20626F6F746C6F61646572206D6FE3
S315080011E064650D0A0000000050616972696E672027
S315080011F07461626C65206572617365640D0A00002E
S315080012003C434552435F4453435F504149523E0D68
S315080012100A537461747573203D202530386C580D57
S315080012200A3C434552435F4453435F504149525F2A
S31508001230454E443E0D0A0000436F6D6D616E642095
S315080012406E6F7420737570706F72746564200D0A02
S3150800125000000000537461747573203D20307825B2
S3150800126030386C580D0A000044657374696E6174F1
S31508001270696F6E20446576696365206E6F742070A9
S3150800128061697265640D0A00496E76616C6964204D
S3150800129070616972696E67207265666572656E63EC
S315080012A0650D0A003C434552435F5345545F41432D
S315080012B0544956455F50414952494E475F494E4445
S315080012C045583E0D0A0000004F7574206F6620725F
S315080012D0616E67652C20696E6465783A2025642CF2
S315080012E0206C656176696E6720756E6368616E67E6
S315080012F065640D0A00000000496E76616C69642019
S31508001300696E6465783A2025642C206C6561766977
S315080013106E6720756E6368616E6765640D0A000006
S315080013204163746976652070616972696E672069C0
S315080013306E6465783A2025640D0A00003C434552E0
S31508001340435F5345545F4143544956455F504149AD
S3150800135052494E475F494E4445585F454E443E0DF7
S315080013600A0000003C434552435F50414952494EEA
S31508001370475F5441424C453E0D0A00006320737492
S315080013806174757320734E574B20434820647374F9
S315080013904945454541646472202020202020645038
S315080013A0414E20644E574B2066726D636E74202042
S315080013B0206370206C696E6B4B65790D0A0000001E
S315080013C020253032582020202000000020253034E7
S315080013D058000000202530325800000025303258C9
S315080013E000000000202530386C5800003C43455268
S315080013F0435F50414952494E475F5441424C455F0D
S31508001400454E443E0D0A0000537461747573203DC1
S31508001410202530386C580D0A0000000050616972AA
S31508001420696E67526566203D20253032580D0A00E0
S3150800143056656E646F724964203D20253034580D18
S315080014400A00000056656E646F72537472696E679F
S31508001450203D2025730D0A0041707043617061625A
S31508001460696C6974696573203D20253032580D0A08
S315080014700000000055736572537472696E67203DEB
S31508001480202573200D0A0000446576547970654C52
S31508001490697374203D2025303258200D0A0000005B
S315080014A050414E4964203D2025303458200D0A000D
S315080014B041646472657373203D2000004164647260
S315080014C0657373203D20253034580D0A000000004E
S315080014D0456E746572696E6720626F6F746C6F61B2
S315080014E0646572206D6F64652E2E2E0D0A0000004D
S315080014F04661696C656420746F20656E7465722038
S31508001500626F6F746C6F61646572206D6F646520BD
S3150800151077697468206572726F7220636F646520DC
S3150800152025640D0A000000003C444154415F5245C1
S315080015304345495645443E0D0A0000004465766910
S315080015406365203D2025640D0A0000005061796C12
S315080015506F6164203D203078000000003C4441540F
S31508001560415F52454345495645445F454E443E0D05
S315080015700A0000003C444154415F434F4E464952DD
S315080015804D3E0D0A00000000537461747573203DCA
S3150800159020256C580D0A000050616972696E675201
S315080015A06566203D2025640D0A0000003C44415430
S315080015B0415F434F4E4649524D5F454E443E0D0AE4
S315080015C000000000506F7765722053617665206EC3
S315080015D06F7420737570706F7274656420666F72AD
S315080015E02074686973206465766963650D0A00006E
S315080015F0504F574552205341564520656E61626CDF
S3150800160065640D0A00000000504F574552205341AB
S3150800161056452064697361626C65640D0A000000B2
S31508001620537461747573203D202530386C580D0A43
S315080016303C434552435F494E49545F454E443E0D2F
S315080016400A0000003C434552435F4453435F434FFF
S315080016504E4649524D3E0D0A000000003C43455295
S31508001660435F504149525F434F4E4649524D3E0DE6
S315080016700A0000003C434552435F4155544F5F44BE
S3150800168053435F434F4E4649524D3E0D0A000000F4
S315080016903C434552435F504149525F494E44494392
S315080016A04154494F4E3E0D0A000000003C43455246
S315080016B0435F52463443455F434F4D4D5F53544154
S315080016C05455535F494E4449434154494F4E3E0D84
S315080016D00A0000003C434552435F4453435F434F6F
S315080016E04E4649524D5F454E443E0D0A00000000E5
S315080016F03C434552435F504149525F434F4E46492A
S31508001700524D5F454E443E0D0A0000003C4345528B
S31508001710435F4155544F5F4453435F434F4E4649D9
S31508001720524D5F454E443E0D0A0000003C4345526B
S31508001730435F504149525F494E4449434154494FDA
S315080017404E5F454E443E0D0A000000003C4345529C
S31508001750435F52463443455F434F4D4D5F535441B3
S315080017605455535F494E4449434154494F4E5F458A
S315080017704E443E0D0A0000007B4E574B5F6765746A
S315080017804555493634204150492063616C6C2E2EEC
S315080017902E207B45554936343A20000025303278CC
S315080017A0000000007D7D0D0A000000000100000019
S315080017B000000000202122232425262728290000AE
S315080017C020092100220123022403250426052706D1
S315080017D028072908301031114112421343144015C5
S315080017E000650174027503340433441A46196925E1
S315080017F0353A0960286261756472617465203E3DF8
S3150800180020333030292026262028626175647261CB
S315080018107465203C3D3932313630302900000000ED
S31508001820593A5C63635F766F625C73746D333277C3
S315080018305C68616C5C6D6963726F5C636F7274651A
S31508001840786D335C756172742E630000AA212900D5
S315080018505523290000252800AA26270055282700F1
S31508001860002A2600AA2B2600552D2500002F240025
S31508001870AA3024005532230000342200AA3522005B
S315080018805537210000392000AA3A2000D500E60184
S31508001890EC02EF03F204F405F506F707F808F90970
S315080018A0FA0AFB0BFC0DFD0FFE11FF1300160119BA
S315080018B0021C031F100011002000300040004100E8
S315080018C050006000700080009000A000B000C000CA
S315080018D0D000E000F0000000000001036E766D2ED7
S315080018E0630000006164647265737320213D204EB5
S315080018F0554C4C00535455736572000000100C0D7E
S315080019000E000000010203040708090A0B0F000075
S315080019106D61736B20213D20300000006D61632EE0
S31508001920630000004E574B5F63616C6C6261636BCA
S315080019302E70656E64696E67203D3D2046414C53A6
S3150800194045000000736D2E6300000000FFFFFFFFD7
S31508001950FFFFFFFFFFFFFFFFFFFFFFFF46414C535F
S315080019604500000068616E646C6572732E63000042
S31508001970496E2066756E6374696F6E2000000000FC
S31508001980202D2D2000000000202D2D206173736569
S315080019907274696F6E206661696C65640A0000007E
S315080019A0686C747A4C00000070B5774842787749BD
S315080019B00B685B0722D5032A20DA00EB42038488EA
S315080019C09C810123847803FA02F22243827002780A
S315080019D06F4C82B1002502E06D1C032D0EDA03FA66
S315080019E005F61642F8D045707240027000EB4500C5
S315080019F0808A206002E02260032242704FF6FF7060
S31508001A000860BFF35F8F70BD38B503F0CBF95E4948
S31508001A100A78E2B15E4B1C68E40718D4002402E099
S31508001A20641C032C14DA0125A5401542F8D04C7025
S31508001A306A400A7001EB4401898A196053494FF6D6
S31508001A40FF720A6053494FF400620A6000E00324FB
S31508001A5003F0A4F9E0B232BD4B480021017003211E
S31508001A6041700021C170052101810021817048491A
S31508001A7000220A604A604FF400428A601022CA6057
S31508001A80001D4861012088610320C8603F48042181
S31508001A9001644FF6FF7101603E484FF40061016032
S31508001AA004F019BA70B504462A2901D0012070BD80
S31508001AB0354DD00040EA43302989084305EB4401F7
S31508001AC08882012000FA04F6287830420FD103F004
S31508001AD069F9297831432970A978B143A97003F0C7
S31508001AE05DF9FFF791FFA04201D1812070BD8220E8
S31508001AF070BD2DE9F84304468846274F254D03F067
S31508001B0057F948B92868000506D5386800F0040072
S31508001B10461EB641F60F00E0012603F043F981465A
S31508001B203EB12868000504D53868400748BFFFF766
S31508001B303BFF154881780122A2400A4208D000EBF3
S31508001B4044039B89A8F8003051408170802409E03D
S31508001B500178114218BF822404D14078A0420CBFF4
S31508001B6081248424484603F019F92046BDE8F28307
S31508001B7038B504460D4629462046FFF7BAFF84289D
S31508001B8018BF8028F7D132BD3405002010A80040C0
S31508001B9004D0004000E100E050A800402DE9F047DD
S31508001BA080460D46924601260027BE4C4FF6FF702A
S31508001BB0854216D104F084FC0546404621698847CB
S31508001BC018B118F8010B451C0BE004F079FC0AEB78
S31508001BD005018142F1D200263046BDE8F0877F1C18
S31508001BE0FFB2ADB2AF42F7DA012EF5D104F068FCC8
S31508001BF0814607EB0800216988470028EFD104F0E1
S31508001C005FFC0AEB09018142F3D20026E9E72DE9D8
S31508001C10F14382B00F46144699460025A14E00218D
S31508001C2002A8726990479DF80800C0F1FF008DF878
S31508001C300000012100A872699047DFF86C8200F065
S31508001C405BF820B19DF80000792804D050E0022501
S31508001C504FE0022508378FB3387878B3002504E0BB
S31508001C60002128189047681CC5B2726978683978C7
S31508001C708D42F5DB0023012904BF0078C34308D051
S31508001C809C4604E01CF800506B400CF1010C8C4596
S31508001C90F8DB8DF8013001210DF10100904742462D
S31508001CA001210DF10100FFF779FF0028D1D09DF839
S31508001CB0010079280CBF00250125CBE7CDB942469E
S31508001CC021464846FFF76AFF0028C0D09DF808005D
S31508001CD011280ED031280CD036280AD0432808D02F
S31508001CE000F00AF80028B2D09DF80000792800D044
S31508001CF001252846BDE8FE834246012100A84DE796
S31508001D00602801D360207047401C4FF6FE710840DA
S31508001D10704710B5634B00241C7028B104685C60DA
S31508001D2044689C608068D86059611A6110BD0000DB
S31508001D302DE9F0419CB004465A4D29780A465B4E77
S31508001D40D6F88030686803EB0008A868C01A0A2924
S31508001D500BD8DFE801F0060B0D19404B51779E951D
S31508001D609D000020C6F88000012292E0022290E041
S31508001D700BAB4FF6FF7200210020FFF748FF08B9AA
S31508001D80032286E00A2284E04FF4806804AB03222B
S31508001D9000210220FFF73BFF0028F3D10322444924
S31508001DA004A802F00EFA08B94FF40068A86840447F
S31508001DB0401EB0FBF8F0C0B2411E3170002106E0AB
S31508001DC0EA68B2FBF8F252188B195A70491C81421C
S31508001DD0F6DB04225DE03078801C00F087F84320AB
S31508001DE0FFF715FF0028CDD1052252E0E86818183C
S31508001DF000F070F806224CE004218DF8141005AFA7
S31508001E007E60FFF77DFF401C3872387A00F05CF878
S31508001E10387A801E3071301DF86000208DF8240055
S31508001E200023024605A93120FFF7F1FE0028A9D1B3
S31508001E3000F040F804D3E86800F04CF8092228E0DE
S31508001E40072226E0FFF75CFF401C8DF800009DF88E
S31508001E50000000F039F89DF80000801E307100A8D7
S31508001E60311D41600021017200230A4600A936206F
S31508001E70FFF7CDFE002885D100F01CF8E0D3DAE79D
S31508001E80042000F033F82120FFF7C1FE0028F2D124
S31508001E9008222A70D6F88000206028781CB0BDE891
S31508001EA0F08100005405002000093D006C05002063
S31508001EB0B0000008D6F880003179491C0818C6F821
S31508001EC08000A96888427047421E92B24146701D3A
S31508001ED002F075B900F10060F070C0F30721B17027
S31508001EE0C0F307417170000E307070478DF800001E
S31508001EF000A846600021017200230A4600A970471F
S31508001F0030B585B06B4C0020206310237F226A48C9
S31508001F10018800A801F042FF0F2000A9425CFF2AB1
S31508001F2005D100224254401E40B20028F6D50025AD
S31508001F3054F82500016800A809F03CFD18B954F8C2
S31508001F402500206302E06D1C0C2DF1D3206B08B927
S31508001F505A48206305B030BDF8B500F0A2F8016014
S31508001F6000F098F8C0684568002605E000F0AEF86D
S31508001F7000F08AF8761CF6B2206B017A8E42F5DB01
S31508001F80C0680568002608E005EBC607012100F0D1
S31508001F90A0F800F0A3F8761CF6B2206B417A8E42C0
S31508001FA0F2DB007940070FD501210D2002F064F815
S31508001FB001210D2002F071F801210E2002F05CF8D3
S31508001FC000210E2002F069F8F1BDF8B500F069F8B5
S31508001FD044F29442026000F05DF800790921084253
S31508001FE007D00D21012002F047F80D21022002F04A
S31508001FF043F8206B0179890706D5806900210279A3
S315080020004079104302F038F8206BC068056800264E
S3150800201008E005EBC607012100F05BF800F05EF862
S31508002020761CF6B2206B417A8E42F2DBC0684568B0
S31508002030002605E000F04AF800F026F8761CF6B20D
S31508002040206B017A8E42F5DB007940071BD501210A
S315080020500D2002F011F801210D2002F01EF80121D1
S315080020600E2002F009F801210E2002F016F80121CF
S315080020700F2002F001F800210F2002F00EF80921C6
S31508002080152001F0F9FFF1BD012138797A7910435D
S3150800209002F003B841600A4801604160054C206BB4
S315080020A07047084844F24441016041600648704759
S315080020B000000000000400204AC1000800020008D1
S315080020C000B8004000B0004000B4004005EBC60769
S315080020D0082138797A79104301F0CEBF206B406821
S315080020E00006C00F80F0010138797A79104301F0B3
S315080020F0D4BF000000B583B00023082200A9002041
S3150800210001F0DAFA0720DFF8241800AB4242D218A9
S31508002110D2794254401EF9D5DFF8140809F06CFC50
S3150800212007BD70B5DFF80C4804F1340009F064FC0B
S315080021300725DFF8F867A95D04F1580009F05CFC8B
S315080021406D1EF8D5BAA009F057FCD9A0BDE87040B5
S3150800215009F052BC2DE9FF4100240025DFF8D80715
S315080021600190DFF8D817081A401C40084000029072
S315080021704FF440500390DFF8C887404609F03CFC0E
S315080021800727DFF8A867B95D08F12C0009F034FCC9
S315080021907F1EF8D5C7A009F02FFC00F077FB00F0EA
S315080021A07EFBDFF8A027DFF8A01701A8FFF7B1FD2F
S315080021B004F086F9074600A8FFF7BAFD064604F0BC
S315080021C07FF90019C41B0A2E08BF0125029A009937
S315080021D008F1340009F010FC00F01EFE082EE7D1C5
S315080021E0002D14BF08F25401D0A108F14C0009F0E3
S315080021F003FC4DB9DFF85407B4FBF0F100FB1142BC
S3150800220008F15C0009F0F8FBBDE8FF81F8B5044663
S315080022100D4616461F4600F039FB00F040FB3B46CC
S31508002220324629462046FFF7F2FCDFF808572946CA
S3150800223074B1012C0ED0022C0FD0112C13D0212CE6
S3150800224014D0312C0CD0432C08BF05F21C010EE02B
S31508002250B7A10CE005F1080109E005F2140106E052
S3150800226005F2240103E005F22C0100E0B1A10246C3
S3150800227005F1600009F0C0FB05F1880009F0BCFB18
S31508002280002405E0E15D05F1580009F0B5FB641C82
S31508002290B442F7DB66A009F0AFFB85A0BDE8F240C3
S315080022A009F0AABBE0B500AB0A2200210020FFF71F
S315080022B0ADFF07BD80B500AB03220021022004E074
S315080022C080B500AB032200210120FFF79FFF01BD67
S315080022D000B5A9B000F0F0F8029004208DF80C00C3
S315080022E001A804900020414201AA891802AA825C2A
S315080022F0CA70401C0428F6DB012001F0C1F9401E13
S315080023008DF8000001208DF8140000A80690002022
S315080023108DF81C0009AB9DF80000421CD2B203A937
S31508002320112025E000B5A9B000F0C6F800F063F862
S3150800233000F057F8012001F0A3F9401E8DF820009F
S3150800234000239DF82000421CD2B20DF12101022083
S3150800235001F0B2F99DF82000801C8DF8100008A83D
S31508002360059000208DF818000023024602A93120A6
S31508002370FFF74CFF29B000BD00B5A5B000F09CF8EA
S31508002380401E8DF8100000239DF81000421CD2B2A2
S315080023900DF11101012001F08FF99DF81000801C44
S315080023A08DF8000004A8019000208DF8080000238D
S315080023B0024600A94320FFF729FF25B000BD00B556
S315080023C087B000F079F800F016F88DF8100000F0E4
S315080023D008F80023002202A92120FFF717FF07B0FB
S315080023E000BD414200AA891801AA825CCA70401C35
S315080023F00428F6DB7047019004208DF8080000A831
S3150800240003900020704710B5DFF84445204609F0D0
S31508002410F3FA012003F0A5FC4BF20B020F21002072
S3150800242001F0E7FE04F12400BDE8104009F0E4BA23
S315080024307D00000070B58CB000F03EF8C5B20DF115
S31508002440130600207076DFF80845052D20DA682087
S315080024508DF8000002A801908DF8015000A804F03C
S31508002460FEF9707E02281DD104F1700009F0C4FA45
S31508002470012003F076FCBDF813209DF80A10012010
S3150800248001F0B7FE04F1240009F0B6FA0CB070BDED
S31508002490FF2D07D10F208DF80A004BF20B00ADF87F
S315080024A01300E1E7294604F14C0009F0A5FAEDE727
S315080024B07D0D0A000D0A0000002001F0E1B870B594
S315080024C084B00446002500F0E1F900F0E8F900F0D0
S315080024D0FEF9FFF71EFCDFF85464012086F88D002C
S315080024E000AB0A2229460846FFF791FBD0B9082215
S315080024F006F21511204601F062FE012503F0E0FF01
S31508002500044608E096F8120128B103F0D9FF0446FC
S31508002510002086F81201204603F0D8FFDFF82C14B5
S315080025208842EFD3284604B070BD00004F4B000028
S3150800253047455400474F00001CB50C4650218DF8FE
S315080025400010019000F007F861208DF80000019452
S3150800255000F001F813BD00208DF8010000A804F072
S315080025607EB91CB50C4650218DF8001000218DF857
S31508002570011000F0C8F8612000F0C9F8019400F0D5
S31508002580C3F813BD2DE9F04391B004460D46002665
S315080025900DF123077E760DF1020100A8FFF7CCFFA7
S315080025A0DFF88883DFF8A8934FF0FF3084421AD00B
S315080025B0052C09DA68208DF80C0006A804908DF819
S315080025C00D4003A804F04BF91DB19DF802008DF8E3
S315080025D01A00787E022813D0214609F14C0009F02A
S315080025E00BFA012622E0BDF800004FF6FF7188427B
S315080025F008BF4BF20B00ADF823000F208DF81A0028
S3150800260050208DF804008DF80560BDF82300ADF85C
S31508002610140005A8029001A804F04FF9BDF823009C
S31508002620A8F88B009DF81A0088F88A00012004F0A3
S31508002630F4F918B109F1940009F0DEF94FF0FF300A
S3150800264084420AD10DF11B00FFF739FF28B909F1B9
S31508002650B40009F0D1F901260DE066B9002088F822
S315080026608D00072006A94118C97800F80810401EF1
S31508002670F8D5FFF76FFD002004F0CFF918B109F17E
S31508002680DC0009F0B9F90DF1020100A8FFF769FFAE
S31508002690304611B0BDE8F08310B584B0FFF70CFFE3
S315080026A0044692208DF8040000A8029000208DF8B8
S315080026B0050001A804F0D3F89DF8000000F0010118
S315080026C060B2FFF75FFF1FBD3EB5FFF7F5FEC4B268
S315080026D08CB14BF20B05ADF80850502000F017F8F6
S315080026E002A800F010F800F0E7F89048A0F88B5020
S315080026F00F2180F88A10204604F08FF90146954884
S3150800270009F07AF937BD019000A804F0D6B88DF81B
S31508002710000000208DF80100704700B5A9B0FFF74A
S31508002720CBFE8DF80000012000F0AAFF8DF80E0000
S315080027309DF80E00022802BF0023022204A903D036
S315080027400023082204A9022000F0B6FF032000F0A7
S3150800275097FFADF81800042000F092FF8DF81A00D4
S3150800276000239DF81A2008A9052000F0A5FF08A84F
S31508002770079000A804F075F90146774809F03CF976
S3150800278029B000BD70B588B002460020674C04F237
S3150800279088056B781B1912781A726A78521C6A7047
S315080027A0002958D0012084F88800A8788DF8000000
S315080027B003208DF8020001A804F024F994F88D008E
S315080027C050B102208DF80E004FF6FF70ADF81000DC
S315080027D0ADF8180000200CE003208DF80E00082242
S315080027E0214604A801F0EBFCB4F88B00ADF81800FC
S315080027F001208DF80100B4F88B00ADF80C0068785C
S315080028008DF81A0004F10800079094F8880001284A
S315080028101DD100A804F025F94FF4807188421CBF29
S31508002820022084F8880003F04BFE064694F88800D8
S315080028300128EAD1304603F049FE9DF81A1009012D
S3150800284001F294518842E0D200F0E6FAEEE794F8F5
S3150800285088000021697008B070BD0021334A92F8DB
S3150800286012318BB102F212118B789B1893F89030C3
S3150800287003708878401C88704978C0B2884224BFA3
S31508002880002082F8120101210846704727480021D6
S3150800289080F8881000F2880041704171704710B5C1
S315080028A0224C8D22002104F1900001F08FFC4FF696
S315080028B0FF70A4F8100110BD80B5FFF7E7FFFFF71A
S315080028C0EEFF00F004F8BDE80840FFF722BA1D4AFB
S315080028D01D490020704770B50446144D2079B5F897
S315080028E0101188421BD005F21016B078A0B994F8DA
S315080028F02020E16905F1900001F061FC0120B0702B
S315080029000020307194F82000F070082204F11201BA
S3150800291005F2151001F053FC2079A5F8100170BDD9
S31508002920024900B1022081F888007047F0050020AE
S31508002930E003000850030008000000081DC5000851
S31508002940FC0300085B2800088527000840420F00A2
S315080029509804000898050008CC050008FF280ED042
S31508002960C0F3C3018902074A5158012200F0070043
S3150800297002FA00F0084018BF0120C0B270470320D1
S315080029807047000008B00040F0B585B00446DFF88F
S315080029905C5595F8200030B1287820B904F00DF878
S315080029A0002085F82000002085F82000607800F0D7
S315080029B001002870DFF83865207858B14FF6F270B4
S315080029C0ADF80C0003A9902004F005F831469120D3
S315080029D004F001F82178607803F0A1FD070003D020
S315080029E04FF48070874245D1602000F04CF8201DD6
S315080029F000F045F8622000F046F804F1080000F0FF
S31508002A003EF8632000F03FF84FF2244000F035F816
S31508002A10642000F038F804F20C0000F030F8692061
S31508002A2000F031F81E2000F028F86C2000F02BF892
S31508002A30012000F022F86F2000F025F828780028F9
S31508002A4014BF06F1080006F1180000F018F80FB9CF
S31508002A50002004E04FF48070874201D10520687099
S31508002A6000202861A8612877FF22022105F11500B8
S31508002A7009F00AF8384605B0F0BD029002A80190A0
S31508002A8000A803F01ABF8DF8000000208DF8010099
S31508002A90704770B58EB00546DFF8504494F82000AC
S31508002AA030B1207820B903F088FF002084F8200090
S31508002AB0607810B14FF6014041E06878E070207800
S31508002AC0A8B1287898B913208DF8200068788DF871
S31508002AD0210001208DF82500DFF818040C9008A8BD
S31508002AE003F057FE064603F0EBFC20611FE04FF6A5
S31508002AF0FF70ADF80000ADF8020013208DF8040051
S31508002B0068788DF8050001208DF80900A8788DF8F9
S31508002B10110001208DF812008DF8130041F66A00A5
S31508002B20079000A803F046FE0646E878A0704FF422
S31508002B308070864214BF00200120607030460EB0B7
S31508002B4070BD1CB5DFF8A4430179022901D20168DA
S31508002B5079B101218DF8001001900079022803D37C
S31508002B6001984FF60241016000A802F078FE0020A5
S31508002B700BE0C17961710189E180082200F10A013F
S31508002B8004F1080008F048FF0220607013BD1CB568
S31508002B90DFF85843016821B1032100F005F8002049
S31508002BA000E00320607013BD8DF80010019000A8A6
S31508002BB002F055BE10B596B0CC4C60798DF8080079
S31508002BC0E088ADF80A0004F1080003A90CC80CC196
S31508002BD013208DF81400E0788DF8150001208DF883
S31508002BE01900A07800B903208DF8210002A803F087
S31508002BF04DFD00F0DDF808D002218DF8001009908F
S31508002C0009A8FFF7D3FF002000E00120607016B086
S31508002C1010BD00B583B0022155E01CB50446B34883
S31508002C20417803291AD12168B12902D100214170BE
S31508002C3013BDA188C18094F8371001750822A11D1B
S31508002C40083008F0E9FE04208DF80000019400A879
S31508002C5002F005FE002818BF00F001F813BD10B5F4
S31508002C6088B0A24C6078032818BF4FF6014025D1DA
S31508002C7000200090E088ADF80400082204F108015D
S31508002C800DF1060008F0C8FE13208DF80E00E07856
S31508002C908DF80F0001208DF81300207D8DF81B009C
S31508002CA00020206100A803F02DFD00F081F81CBF6C
S31508002CB00021617002D103206070084608B010BD7B
S31508002CC000B583B00521FFF76FFF884800214170E2
S31508002CD007BD7FB504464FF60445844E7078002834
S31508002CE063D16068017801291CD1217A4A1E411CEA
S31508002CF006F1150008F0FCFEA0B9306903F0E6FB02
S31508002D007D4988420ED2306903F0E0FB4CF250311F
S31508002D10884238BF002049D301208DF8040006F206
S31508002D20210003E0207A8DF804006068029020787C
S31508002D308DF8000001208DF801004FF6F170ADF80E
S31508002D4002002078FF280CBF01200C208DF80C000B
S31508002D5096F8200030B1307820B903F02EFE002016
S31508002D6086F8200000A803F044FD00F021F81AD1E7
S31508002D700420707060680178012908D19DF8041054
S31508002D804A1E411C06F1150008F046FE05E0FF2222
S31508002D90022106F1150008F077FE03F091FB306179
S31508002DA04FF6034501E000207070284604B070BD58
S31508002DB04FF480718842704738B54FF604444B4D3E
S31508002DC0697849B903F015FDFFF7F2FF06BF04203D
S31508002DD04FF6034400206870204632BD00B583B024
S31508002DE0424900224A70019006208DF800000CE046
S31508002DF080B502F074FC3D480021417001BD00B564
S31508002E0083B007218DF80010019000A802F084FD18
S31508002E1007BD70477047000070B586B0334C6078C0
S31508002E2006282DD8DFE800F0042C16192C2C2C00C7
S31508002E3094F8200030B9207820B903F0AFFD0120BE
S31508002E4084F82000207FD8B9A069C8B903F038FBF8
S31508002E50A06115E0FFF7AEFE12E0206980B103F02D
S31508002E6035FB264988420BD303208DF800004FF620
S31508002E700540029002A8FFF799FE002060702061C5
S31508002E8003F050FD054605F0030002280DD1132076
S31508002E9002F0DAFF01F086FF064603F06EFD3046C3
S31508002EA001F07CFF112002F0CFFFA06903F00EFBB2
S31508002EB01349884208D3207830B90320054203D144
S31508002EC0607808B90120207706B070BD00280AD0BE
S31508002ED006494878002806D1087F002804D0002231
S31508002EE00A778A6170470020704700003404002082
S31508002EF000060008389C1C00A186010081C3C90190
S31508002F0090D003007047000070B504461E2C03D20B
S31508002F10BDE8704001F05BB8DFF8A4030168C90793
S31508002F2004D5416811B11825641F11E00168C90765
S31508002F3004D5416811B90C250A3C09E00168C9079E
S31508002F4004D4406810B10C250F3C01E00625143C5A
S31508002F5001F028FF064601F037FF00F03DF9A4B25C
S31508002F604FF0FF3104FB0511416000F0EDFB01F065
S31508002F702DFF3046BDE8704001F010BFDFF844036E
S31508002F80002141608160016821F002010160CE489C
S31508002F9000210170417801290BD1CC4901220A6030
S31508002FA0CB490968C90701D5032106E0022141700A
S31508002FB073E04178042901D105214170704710B5A5
S31508002FC0BF490A68D20704D54A6812B11821401FBA
S31508002FD011E00A68D20704D54A6812B90C210A38E2
S31508002FE009E00A68D20704D4496811B10C210F38E0
S31508002FF001E006211438B34A0723136000235360FF
S315080030009360B44B4FF000741C6080B24FF0FF33EE
S3150800301000FB0130506010BD2DE9F0410024AE4D93
S315080030202C60AE4E34604FF4A040706041F29A08AE
S315080030304046FFF769FF686844F69041081A00B2EF
S315080030404FF4487190FBF1F000B200F303003060D2
S315080030504046FFF759FF08274046FFF755FF6868BF
S3150800306004197F1EF8D19E48211DC908B0FBF1F04E
S3150800307080B27060BDE8F08138B56FF00F04994DE5
S315080030800120A8602C608020FFF73EFFE868FF2833
S3150800309002D8641C102CF5DB31BD9348016841F059
S315080030A0010101609148042101609148016070475F
S315080030B010B5854C0020E0708E48816901F0030147
S315080030C0032906D10020207000F091F80120E07055
S315080030D010BD0F210160022181610120607064200A
S315080030E0BDE810406BE710B5754C206840F001004C
S315080030F020600120606001F055FE616801F0010161
S3150800310041F010017C4A1160BDE8104001F046BE4E
S3150800311070B56D4DE888774C4FF6FF76B04222D1F0
S3150800312002237F2275480188A81D00F037FEE8882B
S31508003130B04204BF0220E880A069800703D4A069D2
S3150800314040F00200A06101202870E888206000F0A5
S3150800315043F8A169C9072DD5E16900292AD048F69F
S315080031609F41416005E0A1698907E8D529780029CA
S3150800317001D0002070BDA16811F00101A26803D139
S315080031800F2809D2401C06E0920705D52A791AB1FC
S31508003190032801D3401EE8802971E88802283CBF2D
S315080031A00220E8802068E9888842CCD1FFF79BFF97
S315080031B0012070BDA169C90705D5E169002902D1B9
S315080031C044F24F61CDE7A169C90702D4E169002934
S315080031D0F6D142F22731C4E73A48072101600021B7
S315080031E0416081603B494FF000720A60704738B50C
S315080031F001F0D8FD044601F0E7FDFFF789FF050059
S3150800320008BF00F0A1FA01F0E1FD204601F0C6FD75
S31508003210002DEDD031BD38B52B4CE07878BB0EE0EB
S3150800322001F0C0FD054601F0CFFD6078032818BF00
S3150800323000F08AFA01F0CAFD284601F0AFFD607871
S315080032400328EDD12B48E1880160A17879B12C4A91
S31508003250536D43F00103536513688568ED07FBD585
S315080032601568ED1A2D032D0BB5EB510FF5D3FFF7A6
S315080032703AFF042060704FF4C870FFF7A0FE31BD16
S3150800328038B520480068800619D50F4CE078B0B9E3
S315080032900EE001F087FD054601F096FD60780528E9
S315080032A018BF00F051FA01F091FD284601F076FDAD
S315080032B060780528EDD100202070FFF798FF31BD12
S315080032C01C40004010E000E01C05002018A000404B
S315080032D00C40004004ED00E0104000400C000040A7
S315080032E00060E3160840004058A0004080E200E075
S315080032F000E100E004400040008000404EC10008A4
S31508003300382000402C000040DFF8A403002101709B
S3150800331000F241010022CA7480F841208A740A75B5
S31508003320FF2048757047612828BF572107D24128D2
S3150800333028BF372103D23A2834BF30210021401A4A
S31508003340C0B27047DFF86813401890F8421090F83A
S315080033504100081AC0B27047DFF85413401890F8B5
S3150800336041004018401C70472DE9F84F80468946B1
S315080033700026DFF83C7307F253040FE0387801287B
S3150800338005D19DF8000000F09BF88DF80000E819BB
S315080033909DF8001041706078401C6070B8F1000F0D
S315080033A00ED100A801F011FA10B1012812D002E0DE
S315080033B03046BDE8F28F0120A0700420387076E010
S315080033C05FFA89F10029F3D018F8010B8DF800008F
S315080033D0A1F101099DF800000D28DFD00A2805D1C2
S315080033E001260025222805D1012004E000262028F0
S315080033F0F7D101250020397831B102292FD025D3FC
S31508003400042954D02ED3C9E77EB100F093F8C5E756
S31508003410401C87F85300C0B2C019617880F8411083
S3150800342000203870002EB9D0EFE7002DB6D130B1A4
S31508003430022038706578402DA0D10620BCE79DF89B
S3150800344000007B2814BF01200320F2E70EB9002DE7
S31508003450F0D097F853001128DAD10320ACE70028FA
S31508003460F7D1E7E794F803A0BAF1FF0F14BF4FF0BE
S31508003470010B4FF0000B9DF800007D2804D1BBF12D
S31508003480000FE6D0052097E7FFF74DFF10280BDA67
S31508003490BBF1000F06D000EB0A108DF80000FF20E4
S315080034A0E070C7E7E07079E7002DFCD1EAE7002E67
S315080034B0F9D0A07808B101F0F0FCFFF725FF6DE719
S315080034C0A0F14101C9B21A293CBF2030C0B27047E9
S315080034D0774991F857201018C0B2401890F8410063
S315080034E04018407870472DE9F84305460E4670B2F5
S315080034F0FFF732FF04463046FFF724FF06460BE087
S3150800350018F8010BFFF7DCFF814617F8010BFFF7E8
S31508003510D7FF814504D01035686848B12F68A046A2
S31508003520A8EB0400B042EBD138780028F3D128463E
S31508003530BDE8F2832DE9F8435E4C0027DFF8709169
S3150800354099F8530008B91BE0646839462046FFF726
S31508003550CAFF04000BD07F1CFFB2A06800786E2853
S31508003560F2D009F2530637714FF0000814E009F15A
S3150800357053000221817009F15300807801F08DFC17
S31508003580BDE8F143C0E6B07800283ED17F1CFFB203
S3150800359008F101005FFA80F899F85300A16887429C
S315080035A02EDA18F801504046FFF792FF294619B35C
S315080035B062391BD0113902D0891E02291ED8752DF1
S315080035C008BFFF2509D0762D08BF4FF6FF7504D032
S315080035D0732D0CBF7F254FF0FF350121404600F0C3
S315080035E01AF88542CFD20420B070C4E72228CAD080
S315080035F07B28C8D00520F7E70320F5E70720F3E77F
S315080036003279801A405C0028F6D1B0780028B2D109
S3150800361060688047B4E72DE9F0478846DFF8909060
S3150800362099F857100818C0B200EB090191F8411033
S3150800363049444E1CFFF786FE824600240A250027C9
S3150800364002E074B910257F1C574516DAB85DB8F143
S31508003650000F02D00FB92D28F5D07828F1D05828B8
S31508003660EFD0FFF760FEA842B8BF05FB0404EADB0B
S31508003670052089F85500002000E02046BDE8F087BF
S315080036800021C8E770B50C46094991F857100D187E
S31508003690EDB2C6432CB12846FFF754FEB0EBD67000
S315080036A0207068B2FFF758FE10EBD67070BD0000A8
S315080036B010070020780F0008F8B50C4616461F4676
S315080036C000A9FFF7DFFF05469DF80000864298BF70
S315080036D030468DF80000002F1DBF9DF80000361AF1
S315080036E0F6B2002632460021204600F06FFD9DF80E
S315080036F000202946301900F062FD9DF80000F2BD51
S315080037000B48007850B1EFF30880A0F1200080F351
S31508003710088880E8F00F0749086030BF0548006848
S3150800372090E8F00F00F1200080F308887047000049
S31508003730680700206C0700200248006880F30888A4
S3150800374062B670476C07002000BF30BF00BF7047E5
S315080037503748018A40F6A772914209D1418A4FF447
S315080037607F40014204D102298041C043C00F7047FF
S31508003770002070472DE9F0470446884601F012FB01
S3150800378082462A4F012038702A4DFFF7E1FF40B9DB
S31508003790EB2205F1140105F1080008F0A4FD08F074
S315080037A0A1FD2348D0F8289041464FF48070204365
S315080037B0C8470646504601F0F1FA002038700EB1A7
S315080037C0705D05E041464FF400702043C847405DF0
S315080037D0BDE8F0872DE9F04780468946560001F096
S315080037E0E1FA8246134CFFF7B3FF48B94FF49672D5
S315080037F004F1140104F1080008F075FD08F072FDE3
S315080038000B48456A0023324649464046A8470746BC
S31508003810504601F0C3FA0FB1385D05E03346002281
S3150800382049464046A847005DBDE8F08716100020C7
S31508003830000004082406000810B5A4490A6802F026
S315080038408F020A600A68C388448823431A430A60B9
S315080038508288CA62008888620120486110BD70B5F6
S315080038609B49CA694EF6FF731A40CA61CB690A6852
S315080038708C6948F6FF752C40058844EA05244DF600
S31508003880FF752B4005894688354343EA0533C088CA
S31508003890C86392B20A60A4B28C619BB2CB6170BD58
S315080038A08C490A684FF2FF731A4042EA002080B238
S315080038B00860704785490028086812BF40F08000F4
S315080038C040F27F3210400860704780490028086837
S315080038D012BF40F0010040F2FE3210400860704707
S315080038E07D487E4902680A60816821F0100181607E
S315080038F0016821F00E010160704700B587B04FF4EA
S31508003900A77000F0BDF800F0B4F8532095E070B544
S3150800391000F0D2F8044640F27935C4F5801603F073
S3150800392020F9A04203D303F01CF9001B02E003F0C0
S3150800393018F98019A842F2D3FFF7D2FF03F011F95C
S315080039400446C4F5801603F00CF9A04203D303F02D
S3150800395008F9001B02E003F004F98019A842F2D323
S3150800396070BD70B503F0FDF8054640F27934C5F52B
S31508003970801603F0F6F8A84203D303F0F2F8401BCA
S3150800398002E003F0EEF88019A042F2D300F094F8B2
S315080039900546C5F5801603F0E4F8A84203D303F0FC
S315080039A0E0F8401B02E003F0DCF88019A042F2D3ED
S315080039B0BDE8704094E770B504460D461646FFF715
S315080039C0D0FFFFF7CEFF16B1FFF7CBFF01E0FFF7F9
S315080039D09EFFED000526280602D5FFF7C2FF01E087
S315080039E0FFF795FF6D00761EF5D1A4000625200683
S315080039F002D5FFF7B6FF01E0FFF789FF64006D1EE9
S31508003A00F5D103F0AEF800F099F803F0AAF8A04251
S31508003A1003D303F0A6F8001B02E003F0A2F840194E
S31508003A202F498842F1D370BD00B587B04FF4967020
S31508003A3000F026F800F01DF85420ADF8120000201A
S31508003A40ADF8140003A8FFF70AFF0820FFF728FFC0
S31508003A500120FFF72FFF21481F490968016001204F
S31508003A60FFF733FF1F48016841F08001016007B086
S31508003A7000BD6020ADF80C000120ADF80E007047BF
S31508003A80ADF8040000200090ADF8060000A8D3E6C3
S31508003A9038B500F011F800F051F803F062F8A042CA
S31508003AA003D303F05EF8001B02E003F05AF840194E
S31508003AB0B0F5166FF1D33EE00848006820F006001E
S31508003AC040F009000449086003F04BB800F00040D4
S31508003AD004F000401CF0004004B4004070070020C9
S31508003AE00C5C010050F0004038B503F03AF800F0DD
S31508003AF025F803F036F8A04203D303F032F8001B8A
S31508003B0002E003F02EF840194FF416718842F0D3FC
S31508003B10FFF7D2FF00F012F803F023F8A04203D310
S31508003B2003F01FF8001B02E003F01BF840194FF4DE
S31508003B3016718842F0D3BDE83140D1E60446C4F593
S31508003B408015704738B503F00CF8FFF7F7FF03F058
S31508003B5008F8A04203D303F004F8001B02E003F0C0
S31508003B6000F840194FF416718842F0D3FFF7A4FF06
S31508003B70FFF7E4FF02F0F5FFA04203D302F0F1FFDE
S31508003B80001B02E002F0EDFF4019B0F5966FF1D385
S31508003B90D1E770B5044602F0E4FF0546C5F5801680
S31508003BA002F0DFFFA84203D302F0DBFF401B02E06E
S31508003BB002F0D7FF80194AF6C871091B8842EFD36D
S31508003BC070BD37B54FF41664FFF762FF07259DF8F9
S31508003BD00000C00704D5FFF7B5FF04F5E16403E06C
S31508003BE0FFF782FF04F596649DF8000040088DF8FB
S31508003BF000006D1EEBD1002509E0FFF775FF04F5FF
S31508003C009664BDF804004008ADF804006D1C9DF8E4
S31508003C100800EDB2854208D2BDF80400C007ECD50D
S31508003C20FFF790FF04F5E164EBE72046BDE83E4068
S31508003C30AFE7C00700D560E6F6E602460878D30780
S31508003C4002D58A784978B6E612094988B9E70000A4
S31508003C5080B5FF2803D000F00DF800F01EFA01BD6C
S31508003C6080B5FF2805D000F005F881F0010100F0C5
S31508003C7014FA01BD0E49096849680906C90F704753
S31508003C8010B50446FF2C11D001F08CF8E108032981
S31508003C900AD2E110074A02EB81210A68012304F0DF
S31508003CA00704A3405A400A6001F078F810BD0000E6
S31508003CB0300400200CB000405FEA000D7047000099
S31508003CC080B572B62748016821F0010101602648CF
S31508003CD011210160254826494160264981604FF037
S31508003CE078414161244981612449C1612449254AB1
S31508003CF00A604FF080324A608A60CA60E0220A6130
S31508003D00102101614FF4E02101621F490968890603
S31508003D1009D51E4900220A70016841F080510160E8
S31508003D20FFF70AFDFEE700F003F8012002BD0000D8
S31508003D3010B54FF000500168154A91420BD1002189
S31508003D400160017959B1012905D112484468006812
S31508003D50FFF7B2FFA04701F025F862B610BD0E487E
S31508003D60F4E70000FCED00E00080004004ED00E010
S31508003D70000000080004FA05F8F8F84080F840400A
S31508003D8000E400E0808040802C00004068070020A6
S31508003D904D2001B0001804080000040830B583B0AF
S31508003DA0044610467F2808BF0020B1F5004F19D1F8
S31508003DB008237F2240F6120100A8FFF7EFFF08222A
S31508003DC00D4900A800F0FDF930B908237F2240F21A
S31508003DD0A27100A8FFF7E2FF082200A9204600F01A
S31508003DE0EEF937BD1A46054D294300FB0311204657
S31508003DF000F0E5F937BD0000640600080000040875
S31508003E0070B505460E467C4C206C20F008002064F0
S31508003E1000F0C8FF310341EAC51141F00101774AB4
S31508003E20116008212160BDE8704000F0B7BF10B5E9
S31508003E30714C13E000F0C8FF714804210160206C42
S31508003E4040F008002064FFF77FFC206C20F0080093
S31508003E5020646C480421016000F0B8FF2068000760
S31508003E60E8D5082020606848006880B210BD80B593
S31508003E70FFF7C6FFBDE80140D9E76048016821F0B1
S31508003E80010101607047F8B5054600F062F804467E
S31508003E9029460320FFF7EBFF064629460120FFF7D0
S31508003EA0E6FF074629460020FFF7E1FF53490A685F
S31508003EB022F001020A60801B0004B91BB0FBF1F076
S31508003EC060434000000CF2BD10B5504C0020FFF7CF
S31508003ED0DAFF40F68C218842206834BF40F008009B
S31508003EE020F00800206010BD10B582B000F029F857
S31508003EF000F021F803D1FF2804BF04200021002C7C
S31508003F001DBF801CC0B201220022414B1A7008282E
S31508003F10A8BF07200829A8BF0721FFE73D4A13685D
S31508003F2023F4607343EAC01010601068C00851EAB1
S31508003F30C000106013BD9DF801009DF80010FF2910
S31508003F407047044602237F223348018800A8FFF7FA
S31508003F5025BF00B583B002237F223048018800A818
S31508003F60FFF71CFFBDF800004FF6FF7188420EBF31
S31508003F704FF4E1600A2190FBF1F0ADF80000244807
S31508003F80007808B302237F222348018801A8FFF797
S31508003F9005FF9DF80500FF2808BF0420811CC9B24B
S31508003FA00829A8BF0721C1F12F02BDF80030C0F1CA
S31508003FB02F0002EBD272521000FB0320C1F12F0131
S31508003FC0B0FBF1F0ADF80000BDF800000EBD1449D5
S31508003FD00A68144B1B68DB0758BF4008032809D337
S31508003FE04B6D43F001034B650B689B1A1B031B0BB8
S31508003FF08342F9D37047000018A0004004700040BF
S3150800400000E100E080E200E00070004000BC0040F3
S31508004010171000201800004044C1000846C10008D7
S31508004020382000401C40004010B5040004D110BDE3
S315080040304FF47A70FFF7CBFF2046441E80B2002863
S31508004040F6D110BD2948012181604EF6BE21416096
S31508004050FFE7012101607047A52805D123484DF6E1
S31508004060AD6141600221016070472048006810F088
S31508004070010018BF0120704710B582081C4B53F881
S315080040802220136800F0030080000F248440A34315
S3150800409001FA00F01843106010BDC208032A0CD2BA
S315080040A0012200F007039A400029C0F3D50019BF82
S315080040B080021049800210490A50704780B50F489F
S315080040C0102101600E48022101600E484FF400617C
S315080040D00160FEF7A1FF0C48072101600021016479
S315080040E00A4810210160002002BD0000006000405F
S315080040F06C06000810B0004014B0004080E100E0F3
S31508004100080000400C60004014A0004000E100E0F8
S3150800411080B5FEF7FDFF4248016821F010010160F5
S315080041200020FFF7E1FEFDF7EBFEFDF795FCFFF734
S31508004130CBFEFDF74AFFFFF75AF8FEF79DFFBDE8ED
S315080041400140FFF7BBBF80B500F02CFE35480021C3
S315080041500160416034483549016001BDFDF7FCBE88
S3150800416080B5FEF7A5FFFDF777FCFFF7ADFEFDF777
S315080041702CFFBDE80140FFF74EB881B209B94BF6EE
S31508004180EF612B4A1180000C08BF4FF6CE205080F5
S3150800419070470288130448BF4A405100018090B214
S315080041A0704738B5224C62212046FFF7F2FF0546D4
S315080041B041F20B01A01CFFF7ECFF684032BD07F087
S315080041C02BBC80B507F094FC40B202BD13460A46E4
S315080041D0194607F059BC17480168C90708D5164992
S315080041E003220A70016C21F00101016401210160BA
S315080041F0704710B5022810D24FF00053012807D196
S31508004200A1F10B04E4B2102C28BF0F215971DA80F2
S315080042100A4919601871FFF796FF022010BD0000C1
S3150800422000BC00401C4000400CED00E00400FA050C
S315080042302405002018A000401D0500204D2001B0CF
S31508004240DFF8E8030068DFF8E81309686FF0FF0293
S31508004250DFF8E033984213D111F1010F01D10420A0
S3150800426070476FF47F00814201D10220704711F137
S31508004270807F01D10320704791421ED105207047E7
S3150800428010F1807F03D1914208D10620704710F1C2
S31508004290010F07D1994210D10820704799420CD1D5
S315080042A007207047904208D1994201D109207047EA
S315080042B011F1807F01D10A207047002070472DE94F
S315080042C0F04781460D461746DFF86C8340F2FF7AC1
S315080042D0DFF8586316EA0A0F07D06D2208F12401A1
S315080042E0404608F000F807F0FDFFD14C14EA0A0F23
S315080042F008D06E2208F1240108F1500007F0F3FFF8
S3150800430007F0F0FFE80708D5702208F1240108F144
S31508004310740007F0E8FF07F0E5FFF80708D57222F2
S3150800432008F1240108F1840007F0DDFF07F0DAFF41
S315080043307819B0F5006F08D3742208F1240108F142
S31508004340940007F0D0FF07F0CDFFFFF779FF401E76
S31508004350032805D9001F03280ED9001F012817D8DE
S31508004360A8190021B1EB570FBEBF30F8112029F864
S315080043701120491CF6DB17E028190021B1EB570F6D
S31508004380BEBF30F8112029F81120491CF6DB0BE0D6
S3150800439000214FF6FF7002E029F81100491CB1EB25
S315080043A0570FF9DB012000E00020BDE8F0872DE972
S315080043B0F04182B00446A04D40F2FF789B4E16EAC3
S315080043C0080F04D0A62200F063F907F08BFF984F78
S315080043D017EA080F04D0A72200F065F907F082FF54
S315080043E0E00704D5A92200F058F907F07BFFA519C4
S315080043F0FFF726FF401E032811D9001F032803D9FB
S31508004400001F01280BD901E0E51908E04FF6FF70F7
S31508004410ADF800000222002100A800F01FF8284687
S31508004420BDE8F681F8B5044601256D1E04EBC526E0
S31508004430374600203978FF2906D031460220FFF793
S3150800444099F948B94FF40060401C7F1CB0F5006F1D
S31508004450F0D3002DE9D10020F2BD00002DE9F54F7B
S3150800446083B00E46744D40F2FF74DFF8C08118EA37
S31508004470040F05D040F2251200F00AF907F032FFC2
S31508004480DFF8ACA11AEA040F05D04FF4937200F0D6
S315080044900AF907F027FFF00705D54FF4947200F0E4
S315080044A0FCF807F01FFFBDF81000C00709D54FF448
S315080044B0957205F1240105F1840007F014FF07F051
S315080044C011FFBDF81040A019B0F5006F09D34FF4DD
S315080044D0967205F1240105F1940007F004FF07F030
S315080044E001FFFFF7ADFEBDF81010C1F50061891B8D
S315080044F0091F4FEA510B3419311F49080191411E12
S31508004500032905D9091F032918D9091F01291AD80A
S31508004510474655464FF007090A28FDD8DFE800F058
S31508004520072D31353F515D61697B7F00F4E73846D9
S31508004530FFF778FF60B105B0BDE8F08F57464546EE
S315080045404FF00309E8E7574645464FF00309EEE7FB
S315080045502846FFF767FF0028EDD100F074F8002819
S31508004560E9D100F07FF80028E5D100F067F80028C7
S31508004570E1D100F086F80028DDD100F069F80028BE
S31508004580D9D100F076F80028D5D1B9F1030F01D1B9
S315080045900020D0E72846FFF745FF0028CBD100F0DA
S315080045A052F80028C7D100F05DF80028C3D100F002
S315080045B045F80028BFD14FF47F4000F05BF800288B
S315080045C0B9D14FF47F40ADF80000012200A908F1E7
S315080045D00200FFF7FFF80028ADD100F04AF80028DE
S315080045E0A9D1B9F1070FD3D02846FFF71BFF00283A
S315080045F0A1D100F028F800289DD100F033F8002852
S3150800460099D100F01BF8002895D14FF47F4000F0AF
S3150800461038F800288FD100F01BF800288BD100202D
S3150800462000F02FF8002886D1AFE7000000F0030855
S3150800463000F803080000FFFF840600085A463919E7
S315080046402819FFF7C7B8019A391D281DFFF7C2B800
S315080046504FF47F40ADF80000012200A90AF10200DC
S31508004660FFF7B8B8BDF81000420803997019FFF7AC
S31508004670B1B80020ADF80000012200A95046FFF7A6
S31508004680A9B8ADF80000012200A94046FFF7A2B874
S3150800469005F12401284607F026BE05F1240105F197
S315080046A0740007F020BE05F1240105F1500007F05B
S315080046B01ABE000010B5044603E014F8010B01F019
S315080046C0C3FB20780028F8D1012010BD70B582B050
S315080046D006460D461446207808B1A84208D300209D
S315080046E0307005E02078411C21709DF80010815536
S315080046F000A801F09FFB002851D09DF800008028F3
S31508004700F6D2207828B99DF800100A29F0D0002999
S31508004710EED0A84207D3002020709DF800000D288F
S31508004720E6D00028E4D020789DF8001008290AD1A0
S315080047300028DDD0401E2070C0B20021815518A087
S31508004740FFF7B8FFD4E7801C8542BCBF0D208DF863
S3150800475000009DF8000000F025F89DF8000061387B
S31508004760C0B21A2804D29DF8000020388DF800003F
S315080047709DF800000D2818BF0A28B3D1207800211B
S3150800478081559DF800000D2804D10A2000F00AF88A
S31508004790002502E00D2000F005F82570012076BD01
S315080047A0082008008DF8010001210DF10100FFE73E
S315080047B070B504460D46002603E0305D01F044FB63
S315080047C0761CAE42F9DB012070BD01F033BB000058
S315080047D02DE9F14F9AB0DFF87C4560681890DFF84C
S315080047E078552868696840EA0120A96840EA0140C6
S315080047F002906868400703D5E06940F00200E0616E
S315080048002868400703D5E06940F00400E0614FF0EE
S3150800481001080298296908FA01F1084203D0E069FB
S3150800482040F00800E061DFF828B50020CBF8040066
S31508004830DFF828659DF86800012800F04182022803
S3150800484007D003281AD0042840F04C820020606064
S3150800485014E0306CC00703D5E06940F04000E06121
S31508004860306C400703D5E06940F02000E061306C09
S31508004870800703D5E06940F01000E06100F092FA85
S31508004880FFF7F3FB17904FF0000A306C1690706C28
S315080048901590DFF8CC94D9F84C001490D9F850004C
S315080048A01390D9F854001290D9F858001190DFF8EF
S315080048B0B40400681090DFF8AC0440680F90DFF885
S315080048C0A40440690E90DFF89C04406A0D90DFF856
S315080048D0987438680C9078680B90B8680A90F868ED
S315080048E009903869089078690790B8690690F86958
S315080048F00490B86A0390DFF874040068DFF870144F
S315080049004968019102212160DFF868140968DFF817
S315080049106824126841EA0221DFF86024126841EA35
S31508004920024105914FF0FF316162DFF854140A68BD
S31508004930DBF80410D20409D56A68D20706D5E269FD
S31508004940D20703D5C2464FF48072114300F0DBF953
S31508004950920408D56A68520605D5E269D20744BFAB
S31508004960C24641F4804100F0CEF952040AD500F05F
S31508004970C4F907D0E269D20704D5C246EA6808FA3C
S3150800498002F2114300F0BFF9120410D5029A2B69FE
S3150800499008FA03F31A420AD0E269D20702D4E26996
S315080049A0120704D5C2462A6908FA02F2114300F032
S315080049B0AAF9D20305D5E269120644BFC24641F0F8
S315080049C00061CBF8041000216A68D20748BF4FF48B
S315080049D080516A68520648BF41F4005100F08DF9CB
S315080049E018BF41F480412B6908FA03F31A4218BF2D
S315080049F041F40041E269D20605D4E269920602D47E
S31508004A00E269520601D541F01001E269120648BF73
S31508004A1041F4803108400090A520FFF71DFBC4F83B
S31508004A203C80E069A16B11B1616A0142FAD0616A02
S31508004A30014200F0F8800020E063C246DBF804007B
S31508004A4040F08040CBF8040000F0BEF90720306043
S31508004A500F20C9F8000018986060169830641598F9
S31508004A6070641498C9F84C001398C9F85000129845
S31508004A70C9F854001198C9F85800BA481099016045
S31508004A800F9941600E9941610D9941620C98386001
S31508004A900B9878600A98B8600998F86008983861A1
S31508004AA0079878610698B8610498F8610398B8621F
S31508004AB0AE4800990160AE4801994160B1484FF08F
S31508004AC0FF310160AB4800680490AB480768AB4803
S31508004AD00068616AE26911402A69039211F00202CC
S31508004AE018BF012211F0040C634618BF012311F008
S31508004AF0080EF44618BFC446DBF804E0CDF804E017
S31508004B00DDF814E0CDF800E0DDF810E04EEA0727FE
S31508004B1047EA0040009F7840029F384040EA8220DA
S31508004B2040EA8300039A0CFA02F210434FF47C72AF
S31508004B30114040EA015101980843CBF8040000F0FF
S31508004B4031F900F043F900202060179808B1FFF703
S31508004B5079FADBF8040085490968C90303D5010118
S31508004B6044BF20212162316C890703D5C10144BFA6
S31508004B700221F160316C490703D5810144BF042144
S31508004B80F160316CC90703D5410148BFC6F80C80EE
S31508004B90D9F84C10E022114205D0C10503D5784951
S31508004BA04FF480520A60D9F85010E022114205D01D
S31508004BB0410403D572494FF400520A60D9F85410DB
S31508004BC0E022114208D0E96808FA01F1084203D048
S31508004BD06B494FF480420A60D9F85810E022114216
S31508004BE008D0296908FA01F1084203D064494FF44C
S31508004BF000420A60BAF1000F5BD1634909680905EA
S31508004C0057D56168890754D59DF86810042950D08E
S31508004C1056490968C9062BD559490968C90627D5C9
S31508004C208BF8008045E0BAF1000F7FF407AF4D48D6
S31508004C30816921F0010181614D48C06840F0040096
S31508004C404B49C860514880F80080096841F0805196
S31508004C50474A116001780029FCD14B484068000496
S31508004C60CBF80800484989680843CBF80800EDE600
S31508004C704FF47A7100228BF80020454A536D43F0B1
S31508004C8001035365374B9B69DB0758BF4FF4FA712D
S31508004C9013683D4C64683C4DAD6845EA0444DBF84E
S31508004CA00850AC4205D11468E41A2403240B8C423C
S31508004CB0EFD340F00040CBF8040000F081F819E08B
S31508004CC0FFF7D3F90446A520FFF7C6F900F07CF8EC
S31508004CD000F076F8FEF738FD0CB1FFF7B3F900F0EF
S31508004CE075F807E04FF46C722A4918A007F0FBFA2A
S31508004CF007F0F8FA1BB0BDE8F08F029AEB6808FADD
S31508004D0003F31A4270471E4A12687047124ACBB21A
S31508004D101360C1F307235360C1F3074191601E492D
S31508004D2000230B6013681BB953680BB992681AB154
S31508004D300A6842F001020A600A684FF400731A43CF
S31508004D400A600A6842F080020A6041E53000000005
S31508004D50740700200400004008BC004014A000406E
S31508004D6014A80040044000400050004000E100E064
S31508004D7004ED00E008B0004008B4004008B8004060
S31508004D8000E200E080E200E00C60004068070020D6
S31508004D9038200040380700082000004080F31188BA
S31508004DA070470000EFF31180602181F31188704786
S31508004DB0EFF311806028B4BF00200120704700007F
S31508004DC0002181F31188704772B6704762B6704742
S31508004DD010B50021DFF8283C0A01D45C844205D1CD
S31508004DE0D11888684968BDE810400847491C1B293E
S31508004DF0F2D30246014603F2B010BDE8104006F0B1
S31508004E00FBBD38B50278532A0AD14278303AD2B275
S31508004E100A2A05D240783038C0B200F06FFA31BDA0
S31508004E2002787B2A36D10A1812F8033C7D2B31D139
S31508004E3000238DF800300123002402F8024C0A1FD3
S31508004E40D2B20AE09DF80040155C303D03FB0544EC
S31508004E508DF800400A246343521E012A0CDB145CB9
S31508004E60303CE4B20A2CEDD3002904D00146DFF821
S31508004E70940B06F0C1FD31BD00A9012000F0F0F940
S31508004E804FF603418842F6D101F01AFBDFF8A41C5D
S31508004E90C86031BDFEF768FA31BDDFF86C1B51F802
S31508004EA02010DFF8940C06F0A7BD38B5DFF8844C5F
S31508004EB0E06858B101F00AFBDFF8041C884205D304
S31508004EC00021032000F0CCF90020E060042000F067
S31508004ED035FE00F09BFD032803D004280BD145209E
S31508004EE007E094F906004FF0FF3188420CBF5420C2
S31508004EF04420FFF76DFF607940BBDFF8C85B6A1C8A
S31508004F00FF21281DFFF7E2FB002838D0002000E02B
S31508004F100846C0B242191379411C0A2B18BF0D2B3B
S31508004F2018BF002BF4D128700D2010712970C9B252
S31508004F3048190A220271491C297000206870C9B2F2
S31508004F40281DFFF75EFF0120607132BD00A8FFF73C
S31508004F503CFC002813D09DF800000D2801D00A2833
S31508004F6003D1BEA006F048FD12E0DFF8440C9DF818
S31508004F7000101B2905D106F03FFD002060710020B6
S31508004F8032BD143006F038FD9DF80000FFF720FF0B
S31508004F90012032BDDFF89C2B92F90710DFF8600C70
S31508004FA092F9062012B1012A02D003E006F024BDC8
S31508004FB01030FBE71C3006F01FBD38B5DFF8444C4F
S31508004FC004F1100505E0EB68AA68204606F014FD12
S31508004FD0103529680029F6D131BD10B5DFF8544BD4
S31508004FE00020FEF74DFB20712179DFF81C0CBDE887
S31508004FF0104006F001BD10B504460021207800F0E7
S3150800500014F818B10121207800F00FF8DFF8240B06
S31508005010217839B10121817100F04BFAFEF709FEBA
S31508005020032001E08171002065E3F0B585B0040036
S315080050308DF8001014BFA01D04208DF801006FF034
S315080050407F40019001208DF808000020039000A8F9
S31508005050FDF79AFC0546DFF8DC6A4FF0FF37DFF804
S31508005060AC0B54B19DF8001039B1294606F0C4FCC2
S31508005070032000F063FDF77103E02946203006F0AF
S31508005080BBFC15B900F023F90746F771284605B0A9
S31508005090F0BD80B502F002F8DFF8980A4FF0FF314C
S315080050A08171DFF86C0B06F0A7FCFFF74CF80020BF
S315080050B0BDE8024000F042BD70B586B00024DFF8B6
S315080050C0540BDFF8705A95F90610012902D006F03C
S315080050D093FC4AE0DFF8401BDFF8402B914218BFEB
S315080050E02C30F4D195F907104FF0FF32914204BFE6
S315080050F0643006F081FC95F907004FF0FF318842CD
S3150800510029D0B0218DF8001001218DF8081000A9CA
S3150800511003918DF8040001208DF805004FF6F17013
S31508005120ADF806004C208DF8100001A8FDF744FEE6
S315080051304FF60341884218BF012401F0C1F906461B
S3150800514001E0FDF769FE304601F0C0F9DFF8D01A34
S315080051508842F6D34CB995F9060001280CBF0121FF
S31508005160002195F90700FDF70DFA06B070BD10B5D8
S315080051708CB0FF22252102A806F0ECFC00F0EBF823
S3150800518000248DF8014000A801F097FB641C052C4B
S31508005190F7DBDFF8900A06F02FFCDFF898094FF0E6
S315080051A0FF31C1710CB010BD80B5DFF8880990F9E0
S315080051B0060018B102208DF8010004E001208DF8E0
S315080051C0010000F02EF8022000F0B8FC00208DF84F
S315080051D0000000A8FDF75DFC0146DFF84C0A06F062
S315080051E00BFC01BD10B582B0DFF83C4A00F003FCA9
S315080051F004D004F1380006F0FFFB13BD022000F0CE
S315080052009DFC02208DF8010001208DF8000000F0B9
S3150800521008F800A8FDF73DFC0146204606F0ECFB21
S3150800522013BD02208DF8020000208DF80300704798
S3150800523080B50146012000F013F84FF60341884275
S3150800524005D101F03DF9DFF8EC18C86001BD01464B
S31508005250DFF8D809BDE8044006F0CEBB0D0A000009
S3150800526070B590B04FF60444DFF8C858012802D04C
S31508005270032805D008E0287008786870022001E045
S31508005280287001208DF8100095F90700DFF8A0694D
S31508005290002815D468218DF8001005A9019100F0A1
S315080052A0E2F80395E8798DF808009DF83800022899
S315080052B004D102A8FDF70DFD044605E0304601E0DD
S315080052C006F1200006F098FB204610B070BD30B5F8
S315080052D08DB04FF0FF3400F03EF800258DF80150F0
S315080052E000F0C3F89DF82C00022808BF2C4602D00F
S315080052F06D1C052DF2DB60B20DB030BD70B58CB0FB
S315080053000646DFF83049204606F076FBDFF82458D3
S31508005310052E24BF314604F124000ED200F01BF8F6
S315080053208DF8016000F0A1F89DF82C00022808BF4E
S31508005330EE7104D0314604F1540006F05DFB95F990
S31508005340071004F17C0006F057FB04F1980006F0FC
S3150800535053FB0CB070BD68208DF8000002A80190C0
S3150800536070472DE9F04F8DB0FFF7F5FFDFF8C898C5
S31508005370484606F041FB09F1180006F03DFB0025FA
S3150800538099A60FF2942B0FF294288DF8015000F08D
S315080053906CF80DF113042079DDF81710C1F34001FC
S315080053A040084941DDF81700C0F3800041EA800053
S315080053B0DDF81710C1F3C00140EAC100DDF8171087
S315080053C0C1F3031140EA01105FFA80FA2946404604
S315080053D006F012FB9DF82C1009F15C0006F00CFB98
S315080053E0BDF8081000F044F89DF80A1009F170009D
S315080053F006F002FB584606F0FFFA072702A83818F7
S31508005400C17809F1780006F0F7FA7F1EF6D5BDF8DF
S31508005410131000F02DF8618800F02AF8069909F1B2
S31508005420800006F0E9FA514609F1700006F0E4FA40
S31508005430584606F0E1FA002402A82018017D09F171
S31508005440780006F0D9FA641C102CF5DB304606F015
S31508005450D3FA6D1C052D98DB09F1880006F0CCFA05
S315080054600DB0BDE8F08F8DF8010000A801F0F7B97E
S3150800547009F1680006F0C0BAFEF765BE10B5DFF898
S31508005480BC4700210020FFF7D0FD00280FD00021DF
S315080054900120FFF7CAFD002807D10120A07100F0FE
S315080054A008F8BDE81040FEF7C4BB4FF0FF30A07106
S315080054B010BDDFF88C07002101805020704738B5F1
S315080054C0DFF83C4504F2D41006F096FA00252801C8
S315080054D00119CA686AB113782A2B05D0015D04F24E
S315080054E0042006F089FA04E0511C04F2CC1006F0F8
S315080054F083FA6D1C1B2DEAD331BDF0B50378642100
S31508005500DFF83C27DFF83C47032B10D12078FF282B
